{
  "_format": "hh-sol-artifact-1",
  "contractName": "ExampleFeeManager",
  "sourceName": "contracts/ExampleFeeManager.sol",
  "abi": [
    {
      "inputs": [],
      "stateMutability": "nonpayable",
      "type": "constructor"
    },
    {
      "anonymous": false,
      "inputs": [
        {
          "indexed": true,
          "internalType": "address",
          "name": "previousOwner",
          "type": "address"
        },
        {
          "indexed": true,
          "internalType": "address",
          "name": "newOwner",
          "type": "address"
        }
      ],
      "name": "OwnershipTransferred",
      "type": "event"
    },
    {
      "inputs": [],
      "name": "enableCChainFees",
      "outputs": [],
      "stateMutability": "nonpayable",
      "type": "function"
    },
    {
      "inputs": [
        {
          "components": [
            {
              "internalType": "uint256",
              "name": "gasLimit",
              "type": "uint256"
            },
            {
              "internalType": "uint256",
              "name": "targetBlockRate",
              "type": "uint256"
            },
            {
              "internalType": "uint256",
              "name": "minBaseFee",
              "type": "uint256"
            },
            {
              "internalType": "uint256",
              "name": "targetGas",
              "type": "uint256"
            },
            {
              "internalType": "uint256",
              "name": "baseFeeChangeDenominator",
              "type": "uint256"
            },
            {
              "internalType": "uint256",
              "name": "minBlockGasCost",
              "type": "uint256"
            },
            {
              "internalType": "uint256",
              "name": "maxBlockGasCost",
              "type": "uint256"
            },
            {
              "internalType": "uint256",
              "name": "blockGasCostStep",
              "type": "uint256"
            }
          ],
          "internalType": "struct FeeConfig",
          "name": "config",
          "type": "tuple"
        }
      ],
      "name": "enableCustomFees",
      "outputs": [],
      "stateMutability": "nonpayable",
      "type": "function"
    },
    {
      "inputs": [],
      "name": "enableWAGMIFees",
      "outputs": [],
      "stateMutability": "nonpayable",
      "type": "function"
    },
    {
      "inputs": [],
      "name": "getCurrentFeeConfig",
      "outputs": [
        {
          "components": [
            {
              "internalType": "uint256",
              "name": "gasLimit",
              "type": "uint256"
            },
            {
              "internalType": "uint256",
              "name": "targetBlockRate",
              "type": "uint256"
            },
            {
              "internalType": "uint256",
              "name": "minBaseFee",
              "type": "uint256"
            },
            {
              "internalType": "uint256",
              "name": "targetGas",
              "type": "uint256"
            },
            {
              "internalType": "uint256",
              "name": "baseFeeChangeDenominator",
              "type": "uint256"
            },
            {
              "internalType": "uint256",
              "name": "minBlockGasCost",
              "type": "uint256"
            },
            {
              "internalType": "uint256",
              "name": "maxBlockGasCost",
              "type": "uint256"
            },
            {
              "internalType": "uint256",
              "name": "blockGasCostStep",
              "type": "uint256"
            }
          ],
          "internalType": "struct FeeConfig",
          "name": "",
          "type": "tuple"
        }
      ],
      "stateMutability": "view",
      "type": "function"
    },
    {
      "inputs": [],
      "name": "getFeeConfigLastChangedAt",
      "outputs": [
        {
          "internalType": "uint256",
          "name": "",
          "type": "uint256"
        }
      ],
      "stateMutability": "view",
      "type": "function"
    },
    {
      "inputs": [
        {
          "internalType": "address",
          "name": "addr",
          "type": "address"
        }
      ],
      "name": "isAdmin",
      "outputs": [
        {
          "internalType": "bool",
          "name": "",
          "type": "bool"
        }
      ],
      "stateMutability": "view",
      "type": "function"
    },
    {
      "inputs": [
        {
          "internalType": "address",
          "name": "addr",
          "type": "address"
        }
      ],
      "name": "isEnabled",
      "outputs": [
        {
          "internalType": "bool",
          "name": "",
          "type": "bool"
        }
      ],
      "stateMutability": "view",
      "type": "function"
    },
    {
      "inputs": [],
      "name": "owner",
      "outputs": [
        {
          "internalType": "address",
          "name": "",
          "type": "address"
        }
      ],
      "stateMutability": "view",
      "type": "function"
    },
    {
      "inputs": [],
      "name": "renounceOwnership",
      "outputs": [],
      "stateMutability": "nonpayable",
      "type": "function"
    },
    {
      "inputs": [
        {
          "internalType": "address",
          "name": "addr",
          "type": "address"
        }
      ],
      "name": "revoke",
      "outputs": [],
      "stateMutability": "nonpayable",
      "type": "function"
    },
    {
      "inputs": [
        {
          "internalType": "address",
          "name": "addr",
          "type": "address"
        }
      ],
      "name": "setAdmin",
      "outputs": [],
      "stateMutability": "nonpayable",
      "type": "function"
    },
    {
      "inputs": [
        {
          "internalType": "address",
          "name": "addr",
          "type": "address"
        }
      ],
      "name": "setEnabled",
      "outputs": [],
      "stateMutability": "nonpayable",
      "type": "function"
    },
    {
      "inputs": [
        {
          "internalType": "address",
          "name": "newOwner",
          "type": "address"
        }
      ],
      "name": "transferOwnership",
      "outputs": [],
      "stateMutability": "nonpayable",
      "type": "function"
    }
  ],
  "bytecode": "0x6080604052730200000000000000000000000000000000000003600260006101000a81548173ffffffffffffffffffffffffffffffffffffffff021916908373ffffffffffffffffffffffffffffffffffffffff16021790555034801561006557600080fd5b5073020000000000000000000000000000000000000361009761008c6100de60201b60201c565b6100e660201b60201c565b80600160006101000a81548173ffffffffffffffffffffffffffffffffffffffff021916908373ffffffffffffffffffffffffffffffffffffffff160217905550506101aa565b600033905090565b60008060009054906101000a900473ffffffffffffffffffffffffffffffffffffffff169050816000806101000a81548173ffffffffffffffffffffffffffffffffffffffff021916908373ffffffffffffffffffffffffffffffffffffffff1602179055508173ffffffffffffffffffffffffffffffffffffffff168173ffffffffffffffffffffffffffffffffffffffff167f8be0079c531659141344cd1fd0a4f28419497f9722a3daafe3b4186f6b6457e060405160405180910390a35050565b6113bb806101b96000396000f3fe608060405234801561001057600080fd5b50600436106100cf5760003560e01c8063715018a61161008c5780638da5cb5b116100665780638da5cb5b146101b05780639015d371146101ce5780639e05549a146101fe578063f2fde38b1461021c576100cf565b8063715018a61461018057806374a8f1031461018a57806385c1b4ac146101a6576100cf565b80630aaf7043146100d457806324d7806c146100f057806341f577281461012057806352965cfc1461013e5780636f0edc9d1461015a578063704b6c0214610164575b600080fd5b6100ee60048036038101906100e99190610e01565b610238565b005b61010a60048036038101906101059190610e01565b61024c565b604051610117919061114e565b60405180910390f35b610128610308565b60405161013591906111e9565b60405180910390f35b61015860048036038101906101539190610e2a565b610408565b005b61016261050e565b005b61017e60048036038101906101799190610e01565b610608565b005b61018861061c565b005b6101a4600480360381019061019f9190610e01565b610630565b005b6101ae610644565b005b6101b861073d565b6040516101c59190611133565b60405180910390f35b6101e860048036038101906101e39190610e01565b610766565b6040516101f5919061114e565b60405180910390f35b610206610823565b6040516102139190611205565b60405180910390f35b61023660048036038101906102319190610e01565b6108ca565b005b61024061094e565b610249816109cc565b50565b600080600160009054906101000a900473ffffffffffffffffffffffffffffffffffffffff1673ffffffffffffffffffffffffffffffffffffffff1663eb54dae1846040518263ffffffff1660e01b81526004016102aa9190611133565b60206040518083038186803b1580156102c257600080fd5b505afa1580156102d6573d6000803e3d6000fd5b505050506040513d601f19601f820116820180604052508101906102fa9190610e54565b905060028114915050919050565b610310610cb7565b610318610cb7565b600260009054906101000a900473ffffffffffffffffffffffffffffffffffffffff1673ffffffffffffffffffffffffffffffffffffffff16635fbbc0d26040518163ffffffff1660e01b81526004016101006040518083038186803b15801561038157600080fd5b505afa158015610395573d6000803e3d6000fd5b505050506040513d601f19601f820116820180604052508101906103b99190610e7d565b88600001896020018a6040018b6060018c6080018d60a0018e60c0018f60e001888152508881525088815250888152508881525088815250888152508881525050505050505050508091505090565b61041133610766565b610450576040517f08c379a0000000000000000000000000000000000000000000000000000000008152600401610447906111c9565b60405180910390fd5b600260009054906101000a900473ffffffffffffffffffffffffffffffffffffffff1673ffffffffffffffffffffffffffffffffffffffff16638f10b586826000015183602001518460400151856060015186608001518760a001518860c001518960e001516040518963ffffffff1660e01b81526004016104d9989796959493929190611220565b600060405180830381600087803b1580156104f357600080fd5b505af1158015610507573d6000803e3d6000fd5b5050505050565b61051733610766565b610556576040517f08c379a000000000000000000000000000000000000000000000000000000000815260040161054d906111c9565b60405180910390fd5b600260009054906101000a900473ffffffffffffffffffffffffffffffffffffffff1673ffffffffffffffffffffffffffffffffffffffff16638f10b5866301312d006002633b9aca006305f5e10060306000629896806207a1206040518963ffffffff1660e01b81526004016105d4989796959493929190611220565b600060405180830381600087803b1580156105ee57600080fd5b505af1158015610602573d6000803e3d6000fd5b50505050565b61061061094e565b61061981610a5c565b50565b61062461094e565b61062e6000610aec565b565b61063861094e565b61064181610bb0565b50565b61064d33610766565b61068c576040517f08c379a0000000000000000000000000000000000000000000000000000000008152600401610683906111c9565b60405180910390fd5b600260009054906101000a900473ffffffffffffffffffffffffffffffffffffffff1673ffffffffffffffffffffffffffffffffffffffff16638f10b586627a120060026405d21dba0062e4e1c060246000620f4240620186a06040518963ffffffff1660e01b8152600401610709989796959493929190611220565b600060405180830381600087803b15801561072357600080fd5b505af1158015610737573d6000803e3d6000fd5b50505050565b60008060009054906101000a900473ffffffffffffffffffffffffffffffffffffffff16905090565b600080600160009054906101000a900473ffffffffffffffffffffffffffffffffffffffff1673ffffffffffffffffffffffffffffffffffffffff1663eb54dae1846040518263ffffffff1660e01b81526004016107c49190611133565b60206040518083038186803b1580156107dc57600080fd5b505afa1580156107f0573d6000803e3d6000fd5b505050506040513d601f19601f820116820180604052508101906108149190610e54565b90506000811415915050919050565b6000600260009054906101000a900473ffffffffffffffffffffffffffffffffffffffff1673ffffffffffffffffffffffffffffffffffffffff16639e05549a6040518163ffffffff1660e01b815260040160206040518083038186803b15801561088d57600080fd5b505afa1580156108a1573d6000803e3d6000fd5b505050506040513d601f19601f820116820180604052508101906108c59190610e54565b905090565b6108d261094e565b600073ffffffffffffffffffffffffffffffffffffffff168173ffffffffffffffffffffffffffffffffffffffff161415610942576040517f08c379a000000000000000000000000000000000000000000000000000000000815260040161093990611169565b60405180910390fd5b61094b81610aec565b50565b610956610caf565b73ffffffffffffffffffffffffffffffffffffffff1661097461073d565b73ffffffffffffffffffffffffffffffffffffffff16146109ca576040517f08c379a00000000000000000000000000000000000000000000000000000000081526004016109c190611189565b60405180910390fd5b565b600160009054906101000a900473ffffffffffffffffffffffffffffffffffffffff1673ffffffffffffffffffffffffffffffffffffffff16630aaf7043826040518263ffffffff1660e01b8152600401610a279190611133565b600060405180830381600087803b158015610a4157600080fd5b505af1158015610a55573d6000803e3d6000fd5b5050505050565b600160009054906101000a900473ffffffffffffffffffffffffffffffffffffffff1673ffffffffffffffffffffffffffffffffffffffff1663704b6c02826040518263ffffffff1660e01b8152600401610ab79190611133565b600060405180830381600087803b158015610ad157600080fd5b505af1158015610ae5573d6000803e3d6000fd5b5050505050565b60008060009054906101000a900473ffffffffffffffffffffffffffffffffffffffff169050816000806101000a81548173ffffffffffffffffffffffffffffffffffffffff021916908373ffffffffffffffffffffffffffffffffffffffff1602179055508173ffffffffffffffffffffffffffffffffffffffff168173ffffffffffffffffffffffffffffffffffffffff167f8be0079c531659141344cd1fd0a4f28419497f9722a3daafe3b4186f6b6457e060405160405180910390a35050565b8073ffffffffffffffffffffffffffffffffffffffff163373ffffffffffffffffffffffffffffffffffffffff161415610c1f576040517f08c379a0000000000000000000000000000000000000000000000000000000008152600401610c16906111a9565b60405180910390fd5b600160009054906101000a900473ffffffffffffffffffffffffffffffffffffffff1673ffffffffffffffffffffffffffffffffffffffff16638c6bfb3b826040518263ffffffff1660e01b8152600401610c7a9190611133565b600060405180830381600087803b158015610c9457600080fd5b505af1158015610ca8573d6000803e3d6000fd5b5050505050565b600033905090565b60405180610100016040528060008152602001600081526020016000815260200160008152602001600081526020016000815260200160008152602001600081525090565b600081359050610d0b81611357565b92915050565b60006101008284031215610d2457600080fd5b610d2f61010061129e565b90506000610d3f84828501610dd7565b6000830152506020610d5384828501610dd7565b6020830152506040610d6784828501610dd7565b6040830152506060610d7b84828501610dd7565b6060830152506080610d8f84828501610dd7565b60808301525060a0610da384828501610dd7565b60a08301525060c0610db784828501610dd7565b60c08301525060e0610dcb84828501610dd7565b60e08301525092915050565b600081359050610de68161136e565b92915050565b600081519050610dfb8161136e565b92915050565b600060208284031215610e1357600080fd5b6000610e2184828501610cfc565b91505092915050565b60006101008284031215610e3d57600080fd5b6000610e4b84828501610d11565b91505092915050565b600060208284031215610e6657600080fd5b6000610e7484828501610dec565b91505092915050565b600080600080600080600080610100898b031215610e9a57600080fd5b6000610ea88b828c01610dec565b9850506020610eb98b828c01610dec565b9750506040610eca8b828c01610dec565b9650506060610edb8b828c01610dec565b9550506080610eec8b828c01610dec565b94505060a0610efd8b828c01610dec565b93505060c0610f0e8b828c01610dec565b92505060e0610f1f8b828c01610dec565b9150509295985092959890939650565b610f38816112e0565b82525050565b610f47816112f2565b82525050565b6000610f5a6026836112cf565b91507f4f776e61626c653a206e6577206f776e657220697320746865207a65726f206160008301527f64647265737300000000000000000000000000000000000000000000000000006020830152604082019050919050565b6000610fc06020836112cf565b91507f4f776e61626c653a2063616c6c6572206973206e6f7420746865206f776e65726000830152602082019050919050565b60006110006016836112cf565b91507f63616e6e6f74207265766f6b65206f776e20726f6c65000000000000000000006000830152602082019050919050565b6000611040600b836112cf565b91507f6e6f7420656e61626c65640000000000000000000000000000000000000000006000830152602082019050919050565b6101008201600082015161108a6000850182611115565b50602082015161109d6020850182611115565b5060408201516110b06040850182611115565b5060608201516110c36060850182611115565b5060808201516110d66080850182611115565b5060a08201516110e960a0850182611115565b5060c08201516110fc60c0850182611115565b5060e082015161110f60e0850182611115565b50505050565b61111e8161131e565b82525050565b61112d8161131e565b82525050565b60006020820190506111486000830184610f2f565b92915050565b60006020820190506111636000830184610f3e565b92915050565b6000602082019050818103600083015261118281610f4d565b9050919050565b600060208201905081810360008301526111a281610fb3565b9050919050565b600060208201905081810360008301526111c281610ff3565b9050919050565b600060208201905081810360008301526111e281611033565b9050919050565b6000610100820190506111ff6000830184611073565b92915050565b600060208201905061121a6000830184611124565b92915050565b600061010082019050611236600083018b611124565b611243602083018a611124565b6112506040830189611124565b61125d6060830188611124565b61126a6080830187611124565b61127760a0830186611124565b61128460c0830185611124565b61129160e0830184611124565b9998505050505050505050565b6000604051905081810181811067ffffffffffffffff821117156112c5576112c4611328565b5b8060405250919050565b600082825260208201905092915050565b60006112eb826112fe565b9050919050565b60008115159050919050565b600073ffffffffffffffffffffffffffffffffffffffff82169050919050565b6000819050919050565b7f4e487b7100000000000000000000000000000000000000000000000000000000600052604160045260246000fd5b611360816112e0565b811461136b57600080fd5b50565b6113778161131e565b811461138257600080fd5b5056fea264697066735822122067a7033ba467cefa722580b4449c53af9485b8df2f9baca29108d6fb8e42641664736f6c63430008000033",
  "linkReferences": {},
  "deployedLinkReferences": {}
}