{
  "_format": "hh-sol-artifact-1",
  "contractName": "ExampleFeeManager",
  "sourceName": "contracts/ExampleFeeManager.sol",
  "abi": [
    {
      "inputs": [],
      "stateMutability": "nonpayable",
      "type": "constructor"
    },
    {
      "anonymous": false,
      "inputs": [
        {
          "indexed": true,
          "internalType": "address",
          "name": "previousOwner",
          "type": "address"
        },
        {
          "indexed": true,
          "internalType": "address",
          "name": "newOwner",
          "type": "address"
        }
      ],
      "name": "OwnershipTransferred",
      "type": "event"
    },
    {
      "inputs": [],
      "name": "MANAGER_ROLE",
      "outputs": [
        {
          "internalType": "bytes32",
          "name": "",
          "type": "bytes32"
        }
      ],
      "stateMutability": "view",
      "type": "function"
    },
    {
      "inputs": [],
      "name": "enableCChainFees",
      "outputs": [],
      "stateMutability": "nonpayable",
      "type": "function"
    },
    {
      "inputs": [
        {
          "components": [
            {
              "internalType": "uint256",
              "name": "gasLimit",
              "type": "uint256"
            },
            {
              "internalType": "uint256",
              "name": "targetBlockRate",
              "type": "uint256"
            },
            {
              "internalType": "uint256",
              "name": "minBaseFee",
              "type": "uint256"
            },
            {
              "internalType": "uint256",
              "name": "targetGas",
              "type": "uint256"
            },
            {
              "internalType": "uint256",
              "name": "baseFeeChangeDenominator",
              "type": "uint256"
            },
            {
              "internalType": "uint256",
              "name": "minBlockGasCost",
              "type": "uint256"
            },
            {
              "internalType": "uint256",
              "name": "maxBlockGasCost",
              "type": "uint256"
            },
            {
              "internalType": "uint256",
              "name": "blockGasCostStep",
              "type": "uint256"
            }
          ],
          "internalType": "struct ExampleFeeManager.FeeConfig",
          "name": "config",
          "type": "tuple"
        }
      ],
      "name": "enableCustomFees",
      "outputs": [],
      "stateMutability": "nonpayable",
      "type": "function"
    },
    {
      "inputs": [],
      "name": "enableWAGMIFees",
      "outputs": [],
      "stateMutability": "nonpayable",
      "type": "function"
    },
    {
      "inputs": [],
      "name": "getCurrentFeeConfig",
      "outputs": [
        {
          "components": [
            {
              "internalType": "uint256",
              "name": "gasLimit",
              "type": "uint256"
            },
            {
              "internalType": "uint256",
              "name": "targetBlockRate",
              "type": "uint256"
            },
            {
              "internalType": "uint256",
              "name": "minBaseFee",
              "type": "uint256"
            },
            {
              "internalType": "uint256",
              "name": "targetGas",
              "type": "uint256"
            },
            {
              "internalType": "uint256",
              "name": "baseFeeChangeDenominator",
              "type": "uint256"
            },
            {
              "internalType": "uint256",
              "name": "minBlockGasCost",
              "type": "uint256"
            },
            {
              "internalType": "uint256",
              "name": "maxBlockGasCost",
              "type": "uint256"
            },
            {
              "internalType": "uint256",
              "name": "blockGasCostStep",
              "type": "uint256"
            }
          ],
          "internalType": "struct ExampleFeeManager.FeeConfig",
          "name": "",
          "type": "tuple"
        }
      ],
      "stateMutability": "view",
      "type": "function"
    },
    {
      "inputs": [],
      "name": "getFeeConfigLastChangedAt",
      "outputs": [
        {
          "internalType": "uint256",
          "name": "",
          "type": "uint256"
        }
      ],
      "stateMutability": "view",
      "type": "function"
    },
    {
      "inputs": [
        {
          "internalType": "address",
          "name": "addr",
          "type": "address"
        }
      ],
      "name": "isAdmin",
      "outputs": [
        {
          "internalType": "bool",
          "name": "",
          "type": "bool"
        }
      ],
      "stateMutability": "view",
      "type": "function"
    },
    {
      "inputs": [
        {
          "internalType": "address",
          "name": "addr",
          "type": "address"
        }
      ],
      "name": "isEnabled",
      "outputs": [
        {
          "internalType": "bool",
          "name": "",
          "type": "bool"
        }
      ],
      "stateMutability": "view",
      "type": "function"
    },
    {
      "inputs": [],
      "name": "owner",
      "outputs": [
        {
          "internalType": "address",
          "name": "",
          "type": "address"
        }
      ],
      "stateMutability": "view",
      "type": "function"
    },
    {
      "inputs": [],
      "name": "renounceOwnership",
      "outputs": [],
      "stateMutability": "nonpayable",
      "type": "function"
    },
    {
      "inputs": [
        {
          "internalType": "address",
          "name": "addr",
          "type": "address"
        }
      ],
      "name": "revoke",
      "outputs": [],
      "stateMutability": "nonpayable",
      "type": "function"
    },
    {
      "inputs": [
        {
          "internalType": "address",
          "name": "addr",
          "type": "address"
        }
      ],
      "name": "setAdmin",
      "outputs": [],
      "stateMutability": "nonpayable",
      "type": "function"
    },
    {
      "inputs": [
        {
          "internalType": "address",
          "name": "addr",
          "type": "address"
        }
      ],
      "name": "setEnabled",
      "outputs": [],
      "stateMutability": "nonpayable",
      "type": "function"
    },
    {
      "inputs": [
        {
          "internalType": "address",
          "name": "newOwner",
          "type": "address"
        }
      ],
      "name": "transferOwnership",
      "outputs": [],
      "stateMutability": "nonpayable",
      "type": "function"
    }
  ],
  "bytecode": "0x6080604052730200000000000000000000000000000000000003600260006101000a81548173ffffffffffffffffffffffffffffffffffffffff021916908373ffffffffffffffffffffffffffffffffffffffff16021790555034801561006557600080fd5b5073020000000000000000000000000000000000000361009761008c6100de60201b60201c565b6100e660201b60201c565b80600160006101000a81548173ffffffffffffffffffffffffffffffffffffffff021916908373ffffffffffffffffffffffffffffffffffffffff160217905550506101aa565b600033905090565b60008060009054906101000a900473ffffffffffffffffffffffffffffffffffffffff169050816000806101000a81548173ffffffffffffffffffffffffffffffffffffffff021916908373ffffffffffffffffffffffffffffffffffffffff1602179055508173ffffffffffffffffffffffffffffffffffffffff168173ffffffffffffffffffffffffffffffffffffffff167f8be0079c531659141344cd1fd0a4f28419497f9722a3daafe3b4186f6b6457e060405160405180910390a35050565b611910806101b96000396000f3fe608060405234801561001057600080fd5b50600436106100ea5760003560e01c806374a8f1031161008c5780639015d371116100665780639015d371146101e95780639e05549a14610219578063ec87621c14610237578063f2fde38b14610255576100ea565b806374a8f103146101a557806385c1b4ac146101c15780638da5cb5b146101cb576100ea565b806352965cfc116100c857806352965cfc146101595780636f0edc9d14610175578063704b6c021461017f578063715018a61461019b576100ea565b80630aaf7043146100ef57806324d7806c1461010b57806341f577281461013b575b600080fd5b61010960048036038101906101049190610dc6565b610271565b005b61012560048036038101906101209190610dc6565b610285565b6040516101329190610e0e565b60405180910390f35b610143610341565b6040516101509190610ee4565b60405180910390f35b610173600480360381019061016e9190611087565b610441565b005b61017d610547565b005b61019960048036038101906101949190610dc6565b610641565b005b6101a3610655565b005b6101bf60048036038101906101ba9190610dc6565b610669565b005b6101c961067d565b005b6101d3610776565b6040516101e091906110c4565b60405180910390f35b61020360048036038101906101fe9190610dc6565b61079f565b6040516102109190610e0e565b60405180910390f35b61022161085c565b60405161022e91906110ee565b60405180910390f35b61023f610903565b60405161024c9190611122565b60405180910390f35b61026f600480360381019061026a9190610dc6565b610927565b005b6102796109ab565b61028281610a29565b50565b600080600160009054906101000a900473ffffffffffffffffffffffffffffffffffffffff1673ffffffffffffffffffffffffffffffffffffffff1663eb54dae1846040518263ffffffff1660e01b81526004016102e391906110c4565b60206040518083038186803b1580156102fb57600080fd5b505afa15801561030f573d6000803e3d6000fd5b505050506040513d601f19601f820116820180604052508101906103339190611152565b905060028114915050919050565b610349610d14565b610351610d14565b600260009054906101000a900473ffffffffffffffffffffffffffffffffffffffff1673ffffffffffffffffffffffffffffffffffffffff16635fbbc0d26040518163ffffffff1660e01b81526004016101006040518083038186803b1580156103ba57600080fd5b505afa1580156103ce573d6000803e3d6000fd5b505050506040513d601f19601f820116820180604052508101906103f2919061117f565b88600001896020018a6040018b6060018c6080018d60a0018e60c0018f60e001888152508881525088815250888152508881525088815250888152508881525050505050505050508091505090565b61044a3361079f565b610489576040517f08c379a000000000000000000000000000000000000000000000000000000000815260040161048090611292565b60405180910390fd5b600260009054906101000a900473ffffffffffffffffffffffffffffffffffffffff1673ffffffffffffffffffffffffffffffffffffffff16638f10b586826000015183602001518460400151856060015186608001518760a001518860c001518960e001516040518963ffffffff1660e01b81526004016105129897969594939291906112b2565b600060405180830381600087803b15801561052c57600080fd5b505af1158015610540573d6000803e3d6000fd5b5050505050565b6105503361079f565b61058f576040517f08c379a000000000000000000000000000000000000000000000000000000000815260040161058690611292565b60405180910390fd5b600260009054906101000a900473ffffffffffffffffffffffffffffffffffffffff1673ffffffffffffffffffffffffffffffffffffffff16638f10b5866301312d006002633b9aca006305f5e10060306000629896806207a1206040518963ffffffff1660e01b815260040161060d989796959493929190611512565b600060405180830381600087803b15801561062757600080fd5b505af115801561063b573d6000803e3d6000fd5b50505050565b6106496109ab565b61065281610ab9565b50565b61065d6109ab565b6106676000610b49565b565b6106716109ab565b61067a81610c0d565b50565b6106863361079f565b6106c5576040517f08c379a00000000000000000000000000000000000000000000000000000000081526004016106bc90611292565b60405180910390fd5b600260009054906101000a900473ffffffffffffffffffffffffffffffffffffffff1673ffffffffffffffffffffffffffffffffffffffff16638f10b586627a120060026405d21dba0062e4e1c060246000620f424062030d406040518963ffffffff1660e01b81526004016107429897969594939291906116f2565b600060405180830381600087803b15801561075c57600080fd5b505af1158015610770573d6000803e3d6000fd5b50505050565b60008060009054906101000a900473ffffffffffffffffffffffffffffffffffffffff16905090565b600080600160009054906101000a900473ffffffffffffffffffffffffffffffffffffffff1673ffffffffffffffffffffffffffffffffffffffff1663eb54dae1846040518263ffffffff1660e01b81526004016107fd91906110c4565b60206040518083038186803b15801561081557600080fd5b505afa158015610829573d6000803e3d6000fd5b505050506040513d601f19601f8201168201806040525081019061084d9190611152565b90506000811415915050919050565b6000600260009054906101000a900473ffffffffffffffffffffffffffffffffffffffff1673ffffffffffffffffffffffffffffffffffffffff16639e05549a6040518163ffffffff1660e01b815260040160206040518083038186803b1580156108c657600080fd5b505afa1580156108da573d6000803e3d6000fd5b505050506040513d601f19601f820116820180604052508101906108fe9190611152565b905090565b7f241ecf16d79d0f8dbfb92cbc07fe17840425976cf0667f022fe9877caa831b0881565b61092f6109ab565b600073ffffffffffffffffffffffffffffffffffffffff168173ffffffffffffffffffffffffffffffffffffffff16141561099f576040517f08c379a0000000000000000000000000000000000000000000000000000000008152600401610996906117e2565b60405180910390fd5b6109a881610b49565b50565b6109b3610d0c565b73ffffffffffffffffffffffffffffffffffffffff166109d1610776565b73ffffffffffffffffffffffffffffffffffffffff1614610a27576040517f08c379a0000000000000000000000000000000000000000000000000000000008152600401610a1e9061184e565b60405180910390fd5b565b600160009054906101000a900473ffffffffffffffffffffffffffffffffffffffff1673ffffffffffffffffffffffffffffffffffffffff16630aaf7043826040518263ffffffff1660e01b8152600401610a8491906110c4565b600060405180830381600087803b158015610a9e57600080fd5b505af1158015610ab2573d6000803e3d6000fd5b5050505050565b600160009054906101000a900473ffffffffffffffffffffffffffffffffffffffff1673ffffffffffffffffffffffffffffffffffffffff1663704b6c02826040518263ffffffff1660e01b8152600401610b1491906110c4565b600060405180830381600087803b158015610b2e57600080fd5b505af1158015610b42573d6000803e3d6000fd5b5050505050565b60008060009054906101000a900473ffffffffffffffffffffffffffffffffffffffff169050816000806101000a81548173ffffffffffffffffffffffffffffffffffffffff021916908373ffffffffffffffffffffffffffffffffffffffff1602179055508173ffffffffffffffffffffffffffffffffffffffff168173ffffffffffffffffffffffffffffffffffffffff167f8be0079c531659141344cd1fd0a4f28419497f9722a3daafe3b4186f6b6457e060405160405180910390a35050565b8073ffffffffffffffffffffffffffffffffffffffff163373ffffffffffffffffffffffffffffffffffffffff161415610c7c576040517f08c379a0000000000000000000000000000000000000000000000000000000008152600401610c73906118ba565b60405180910390fd5b600160009054906101000a900473ffffffffffffffffffffffffffffffffffffffff1673ffffffffffffffffffffffffffffffffffffffff16638c6bfb3b826040518263ffffffff1660e01b8152600401610cd791906110c4565b600060405180830381600087803b158015610cf157600080fd5b505af1158015610d05573d6000803e3d6000fd5b5050505050565b600033905090565b60405180610100016040528060008152602001600081526020016000815260200160008152602001600081526020016000815260200160008152602001600081525090565b6000604051905090565b600080fd5b600073ffffffffffffffffffffffffffffffffffffffff82169050919050565b6000610d9382610d68565b9050919050565b610da381610d88565b8114610dae57600080fd5b50565b600081359050610dc081610d9a565b92915050565b600060208284031215610ddc57610ddb610d63565b5b6000610dea84828501610db1565b91505092915050565b60008115159050919050565b610e0881610df3565b82525050565b6000602082019050610e236000830184610dff565b92915050565b6000819050919050565b610e3c81610e29565b82525050565b61010082016000820151610e596000850182610e33565b506020820151610e6c6020850182610e33565b506040820151610e7f6040850182610e33565b506060820151610e926060850182610e33565b506080820151610ea56080850182610e33565b5060a0820151610eb860a0850182610e33565b5060c0820151610ecb60c0850182610e33565b5060e0820151610ede60e0850182610e33565b50505050565b600061010082019050610efa6000830184610e42565b92915050565b600080fd5b6000601f19601f8301169050919050565b7f4e487b7100000000000000000000000000000000000000000000000000000000600052604160045260246000fd5b610f4e82610f05565b810181811067ffffffffffffffff82111715610f6d57610f6c610f16565b5b80604052505050565b6000610f80610d59565b9050610f8c8282610f45565b919050565b610f9a81610e29565b8114610fa557600080fd5b50565b600081359050610fb781610f91565b92915050565b60006101008284031215610fd457610fd3610f00565b5b610fdf610100610f76565b90506000610fef84828501610fa8565b600083015250602061100384828501610fa8565b602083015250604061101784828501610fa8565b604083015250606061102b84828501610fa8565b606083015250608061103f84828501610fa8565b60808301525060a061105384828501610fa8565b60a08301525060c061106784828501610fa8565b60c08301525060e061107b84828501610fa8565b60e08301525092915050565b6000610100828403121561109e5761109d610d63565b5b60006110ac84828501610fbd565b91505092915050565b6110be81610d88565b82525050565b60006020820190506110d960008301846110b5565b92915050565b6110e881610e29565b82525050565b600060208201905061110360008301846110df565b92915050565b6000819050919050565b61111c81611109565b82525050565b60006020820190506111376000830184611113565b92915050565b60008151905061114c81610f91565b92915050565b60006020828403121561116857611167610d63565b5b60006111768482850161113d565b91505092915050565b600080600080600080600080610100898b0312156111a05761119f610d63565b5b60006111ae8b828c0161113d565b98505060206111bf8b828c0161113d565b97505060406111d08b828c0161113d565b96505060606111e18b828c0161113d565b95505060806111f28b828c0161113d565b94505060a06112038b828c0161113d565b93505060c06112148b828c0161113d565b92505060e06112258b828c0161113d565b9150509295985092959890939650565b600082825260208201905092915050565b7f6e6f7420656e61626c6564000000000000000000000000000000000000000000600082015250565b600061127c600b83611235565b915061128782611246565b602082019050919050565b600060208201905081810360008301526112ab8161126f565b9050919050565b6000610100820190506112c8600083018b6110df565b6112d5602083018a6110df565b6112e260408301896110df565b6112ef60608301886110df565b6112fc60808301876110df565b61130960a08301866110df565b61131660c08301856110df565b61132360e08301846110df565b9998505050505050505050565b6000819050919050565b6000819050919050565b600061135f61135a61135584611330565b61133a565b610e29565b9050919050565b61136f81611344565b82525050565b6000819050919050565b600061139a61139561139084611375565b61133a565b610e29565b9050919050565b6113aa8161137f565b82525050565b6000819050919050565b60006113d56113d06113cb846113b0565b61133a565b610e29565b9050919050565b6113e5816113ba565b82525050565b6000819050919050565b600061141061140b611406846113eb565b61133a565b610e29565b9050919050565b611420816113f5565b82525050565b6000819050919050565b600061144b61144661144184611426565b61133a565b610e29565b9050919050565b61145b81611430565b82525050565b6000819050919050565b600061148661148161147c84611461565b61133a565b610e29565b9050919050565b6114968161146b565b82525050565b6000819050919050565b60006114c16114bc6114b78461149c565b61133a565b610e29565b9050919050565b6114d1816114a6565b82525050565b6000819050919050565b60006114fc6114f76114f2846114d7565b61133a565b610e29565b9050919050565b61150c816114e1565b82525050565b600061010082019050611528600083018b611366565b611535602083018a6113a1565b61154260408301896113dc565b61154f6060830188611417565b61155c6080830187611452565b61156960a083018661148d565b61157660c08301856114c8565b61158360e0830184611503565b9998505050505050505050565b6000819050919050565b60006115b56115b06115ab84611590565b61133a565b610e29565b9050919050565b6115c58161159a565b82525050565b6000819050919050565b60006115f06115eb6115e6846115cb565b61133a565b610e29565b9050919050565b611600816115d5565b82525050565b6000819050919050565b600061162b61162661162184611606565b61133a565b610e29565b9050919050565b61163b81611610565b82525050565b6000819050919050565b600061166661166161165c84611641565b61133a565b610e29565b9050919050565b6116768161164b565b82525050565b6000819050919050565b60006116a161169c6116978461167c565b61133a565b610e29565b9050919050565b6116b181611686565b82525050565b6000819050919050565b60006116dc6116d76116d2846116b7565b61133a565b610e29565b9050919050565b6116ec816116c1565b82525050565b600061010082019050611708600083018b6115bc565b611715602083018a6113a1565b61172260408301896115f7565b61172f6060830188611632565b61173c608083018761166d565b61174960a083018661148d565b61175660c08301856116a8565b61176360e08301846116e3565b9998505050505050505050565b7f4f776e61626c653a206e6577206f776e657220697320746865207a65726f206160008201527f6464726573730000000000000000000000000000000000000000000000000000602082015250565b60006117cc602683611235565b91506117d782611770565b604082019050919050565b600060208201905081810360008301526117fb816117bf565b9050919050565b7f4f776e61626c653a2063616c6c6572206973206e6f7420746865206f776e6572600082015250565b6000611838602083611235565b915061184382611802565b602082019050919050565b600060208201905081810360008301526118678161182b565b9050919050565b7f63616e6e6f74207265766f6b65206f776e20726f6c6500000000000000000000600082015250565b60006118a4601683611235565b91506118af8261186e565b602082019050919050565b600060208201905081810360008301526118d381611897565b905091905056fea2646970667358221220d99fcb8b7d749b50dcd56177aca0d349845d22085096392e194d8bf2ce03d3d764736f6c63430008090033",
  "linkReferences": {},
  "deployedLinkReferences": {}
}