{
  "_format": "hh-sol-artifact-1",
  "contractName": "OrderBook",
  "sourceName": "contracts/hubble-v2/OrderBook.sol",
  "abi": [
    {
      "anonymous": false,
      "inputs": [
        {
          "indexed": false,
          "internalType": "uint8",
          "name": "version",
          "type": "uint8"
        }
      ],
      "name": "Initialized",
      "type": "event"
    },
    {
      "anonymous": false,
      "inputs": [
        {
          "indexed": true,
          "internalType": "address",
          "name": "trader",
          "type": "address"
        },
        {
          "components": [
            {
              "internalType": "address",
              "name": "trader",
              "type": "address"
            },
            {
              "internalType": "int256",
              "name": "baseAssetQuantity",
              "type": "int256"
            },
            {
              "internalType": "uint256",
              "name": "price",
              "type": "uint256"
            },
            {
              "internalType": "uint256",
              "name": "salt",
              "type": "uint256"
            }
          ],
          "indexed": false,
          "internalType": "struct OrderBook.Order",
          "name": "order",
          "type": "tuple"
        },
        {
          "indexed": false,
          "internalType": "bytes",
          "name": "signature",
          "type": "bytes"
        }
      ],
      "name": "OrderPlaced",
      "type": "event"
    },
    {
      "anonymous": false,
      "inputs": [
        {
          "components": [
            {
              "internalType": "address",
              "name": "trader",
              "type": "address"
            },
            {
              "internalType": "int256",
              "name": "baseAssetQuantity",
              "type": "int256"
            },
            {
              "internalType": "uint256",
              "name": "price",
              "type": "uint256"
            },
            {
              "internalType": "uint256",
              "name": "salt",
              "type": "uint256"
            }
          ],
          "indexed": false,
          "internalType": "struct OrderBook.Order[2]",
          "name": "orders",
          "type": "tuple[2]"
        },
        {
          "indexed": false,
          "internalType": "bytes[2]",
          "name": "signatures",
          "type": "bytes[2]"
        },
        {
          "indexed": false,
          "internalType": "int256",
          "name": "fillAmount",
          "type": "int256"
        },
        {
          "indexed": false,
          "internalType": "address",
          "name": "relayer",
          "type": "address"
        }
      ],
      "name": "OrdersMatched",
      "type": "event"
    },
    {
      "inputs": [],
      "name": "ORDER_TYPEHASH",
      "outputs": [
        {
          "internalType": "bytes32",
          "name": "",
          "type": "bytes32"
        }
      ],
      "stateMutability": "view",
      "type": "function"
    },
    {
      "inputs": [
        {
          "components": [
            {
              "internalType": "address",
              "name": "trader",
              "type": "address"
            },
            {
              "internalType": "int256",
              "name": "baseAssetQuantity",
              "type": "int256"
            },
            {
              "internalType": "uint256",
              "name": "price",
              "type": "uint256"
            },
            {
              "internalType": "uint256",
              "name": "salt",
              "type": "uint256"
            }
          ],
          "internalType": "struct OrderBook.Order",
          "name": "order1",
          "type": "tuple"
        },
        {
          "internalType": "bytes",
          "name": "signature1",
          "type": "bytes"
        },
        {
          "components": [
            {
              "internalType": "address",
              "name": "trader",
              "type": "address"
            },
            {
              "internalType": "int256",
              "name": "baseAssetQuantity",
              "type": "int256"
            },
            {
              "internalType": "uint256",
              "name": "price",
              "type": "uint256"
            },
            {
              "internalType": "uint256",
              "name": "salt",
              "type": "uint256"
            }
          ],
          "internalType": "struct OrderBook.Order",
          "name": "order2",
          "type": "tuple"
        },
        {
          "internalType": "bytes",
          "name": "signature2",
          "type": "bytes"
        }
      ],
      "name": "executeMatchedOrders",
      "outputs": [],
      "stateMutability": "nonpayable",
      "type": "function"
    },
    {
      "inputs": [
        {
          "components": [
            {
              "internalType": "address",
              "name": "trader",
              "type": "address"
            },
            {
              "internalType": "int256",
              "name": "baseAssetQuantity",
              "type": "int256"
            },
            {
              "internalType": "uint256",
              "name": "price",
              "type": "uint256"
            },
            {
              "internalType": "uint256",
              "name": "salt",
              "type": "uint256"
            }
          ],
          "internalType": "struct OrderBook.Order",
          "name": "order",
          "type": "tuple"
        },
        {
          "internalType": "bytes",
          "name": "signature",
          "type": "bytes"
        }
      ],
      "name": "executeTestOrder",
      "outputs": [],
      "stateMutability": "nonpayable",
      "type": "function"
    },
    {
      "inputs": [
        {
          "components": [
            {
              "internalType": "address",
              "name": "trader",
              "type": "address"
            },
            {
              "internalType": "int256",
              "name": "baseAssetQuantity",
              "type": "int256"
            },
            {
              "internalType": "uint256",
              "name": "price",
              "type": "uint256"
            },
            {
              "internalType": "uint256",
              "name": "salt",
              "type": "uint256"
            }
          ],
          "internalType": "struct OrderBook.Order",
          "name": "order",
          "type": "tuple"
        }
      ],
      "name": "getOrderHash",
      "outputs": [
        {
          "internalType": "bytes32",
          "name": "",
          "type": "bytes32"
        }
      ],
      "stateMutability": "view",
      "type": "function"
    },
    {
      "inputs": [
        {
          "internalType": "string",
          "name": "name",
          "type": "string"
        },
        {
          "internalType": "string",
          "name": "version",
          "type": "string"
        }
      ],
      "name": "initialize",
      "outputs": [],
      "stateMutability": "nonpayable",
      "type": "function"
    },
    {
      "inputs": [],
      "name": "isInitialized",
      "outputs": [
        {
          "internalType": "bool",
          "name": "",
          "type": "bool"
        }
      ],
      "stateMutability": "view",
      "type": "function"
    },
    {
      "inputs": [
        {
          "internalType": "bytes32",
          "name": "",
          "type": "bytes32"
        }
      ],
      "name": "ordersStatus",
      "outputs": [
        {
          "internalType": "enum OrderBook.OrderStatus",
          "name": "",
          "type": "uint8"
        }
      ],
      "stateMutability": "view",
      "type": "function"
    },
    {
      "inputs": [
        {
          "components": [
            {
              "internalType": "address",
              "name": "trader",
              "type": "address"
            },
            {
              "internalType": "int256",
              "name": "baseAssetQuantity",
              "type": "int256"
            },
            {
              "internalType": "uint256",
              "name": "price",
              "type": "uint256"
            },
            {
              "internalType": "uint256",
              "name": "salt",
              "type": "uint256"
            }
          ],
          "internalType": "struct OrderBook.Order",
          "name": "order",
          "type": "tuple"
        },
        {
          "internalType": "bytes",
          "name": "signature",
          "type": "bytes"
        }
      ],
      "name": "placeOrder",
      "outputs": [],
      "stateMutability": "nonpayable",
      "type": "function"
    },
    {
      "inputs": [
        {
          "internalType": "address",
          "name": "",
          "type": "address"
        }
      ],
      "name": "positions",
      "outputs": [
        {
          "internalType": "int256",
          "name": "size",
          "type": "int256"
        },
        {
          "internalType": "uint256",
          "name": "openNotional",
          "type": "uint256"
        }
      ],
      "stateMutability": "view",
      "type": "function"
    },
    {
      "inputs": [],
      "name": "testVal",
      "outputs": [
        {
          "internalType": "int256",
          "name": "",
          "type": "int256"
        }
      ],
      "stateMutability": "view",
      "type": "function"
    },
    {
      "inputs": [],
      "name": "testtest",
      "outputs": [
        {
          "internalType": "int256",
          "name": "",
          "type": "int256"
        }
      ],
      "stateMutability": "view",
      "type": "function"
    },
    {
      "inputs": [
        {
          "components": [
            {
              "internalType": "address",
              "name": "trader",
              "type": "address"
            },
            {
              "internalType": "int256",
              "name": "baseAssetQuantity",
              "type": "int256"
            },
            {
              "internalType": "uint256",
              "name": "price",
              "type": "uint256"
            },
            {
              "internalType": "uint256",
              "name": "salt",
              "type": "uint256"
            }
          ],
          "internalType": "struct OrderBook.Order",
          "name": "order",
          "type": "tuple"
        },
        {
          "internalType": "bytes",
          "name": "signature",
          "type": "bytes"
        }
      ],
      "name": "verifySigner",
      "outputs": [
        {
          "internalType": "address",
          "name": "",
          "type": "address"
        },
        {
          "internalType": "bytes32",
          "name": "",
          "type": "bytes32"
        }
      ],
      "stateMutability": "view",
      "type": "function"
    }
  ],
  "bytecode": "0x608060405234801561001057600080fd5b50612070806100206000396000f3fe608060405234801561001057600080fd5b50600436106100b45760003560e01c8063a3d2c37b11610071578063a3d2c37b1461017a578063ab52dd2e14610196578063b533f71d146101c7578063e54808c6146101f7578063eaba40e914610215578063f973a20914610245576100b4565b80630ca05ec7146100b9578063392e53cd146100d55780634cd88b76146100f357806355f575101461010f57806377001dd614610140578063868872511461015e575b600080fd5b6100d360048036038101906100ce91906112f0565b610263565b005b6100dd610307565b6040516100ea9190611367565b60405180910390f35b61010d60048036038101906101089190611423565b61031a565b005b6101296004803603810190610124919061149b565b610477565b6040516101379291906114e6565b60405180910390f35b61014861049b565b604051610155919061150f565b60405180910390f35b610178600480360381019061017391906112f0565b6104a1565b005b610194600480360381019061018f919061152a565b610651565b005b6101b060048036038101906101ab91906112f0565b6109af565b6040516101be9291906115f3565b60405180910390f35b6101e160048036038101906101dc919061161c565b610a4e565b6040516101ee9190611649565b60405180910390f35b6101ff610aab565b60405161020c919061150f565b60405180910390f35b61022f600480360381019061022a9190611690565b610ab5565b60405161023c9190611734565b60405180910390f35b61024d610ad5565b60405161025a9190611649565b60405180910390f35b600061026f83836109af565b91505060006035600083815260200190815260200160002060006101000a81548160ff021916908360028111156102a9576102a86116bd565b5b0217905550826000015173ffffffffffffffffffffffffffffffffffffffff167f3a9d20246c4d53dd4255c096ed5b403c7defcf5c14a3799272f607494cfb2aed84846040516102fa929190611859565b60405180910390a2505050565b603760009054906101000a900460ff1681565b60008060019054906101000a900460ff1615905080801561034b5750600160008054906101000a900460ff1660ff16105b80610378575061035a30610afc565b1580156103775750600160008054906101000a900460ff1660ff16145b5b6103b7576040517f08c379a00000000000000000000000000000000000000000000000000000000081526004016103ae9061190c565b60405180910390fd5b60016000806101000a81548160ff021916908360ff16021790555080156103f4576001600060016101000a81548160ff0219169083151502179055505b6103fe8383610b1f565b6001603760006101000a81548160ff02191690831515021790555080156104725760008060016101000a81548160ff0219169083151502179055507f7f26b83ff96e1f2b6a682f133852f6798a09c465da95921460cefb38474024986001604051610469919061197e565b60405180910390a15b505050565b60366020528060005260406000206000915090508060000154908060010154905082565b61303981565b60006104ad83836109af565b915050600060028111156104c4576104c36116bd565b5b6035600083815260200190815260200160002060009054906101000a900460ff1660028111156104f7576104f66116bd565b5b14610537576040517f08c379a000000000000000000000000000000000000000000000000000000000815260040161052e906119e5565b60405180910390fd5b60016035600083815260200190815260200160002060006101000a81548160ff0219169083600281111561056e5761056d6116bd565b5b0217905550826020015160366000856000015173ffffffffffffffffffffffffffffffffffffffff1673ffffffffffffffffffffffffffffffffffffffff16815260200190815260200160002060000160008282546105cd9190611a34565b9250508190555082604001516105e68460200151610b7c565b6105f09190611ac8565b60366000856000015173ffffffffffffffffffffffffffffffffffffffff1673ffffffffffffffffffffffffffffffffffffffff16815260200190815260200160002060010160008282546106459190611b22565b92505081905550505050565b600061065d85856109af565b91505060006002811115610674576106736116bd565b5b6035600083815260200190815260200160002060009054906101000a900460ff1660028111156106a7576106a66116bd565b5b146106e7576040517f08c379a00000000000000000000000000000000000000000000000000000000081526004016106de906119e5565b60405180910390fd5b60016035600083815260200190815260200160002060006101000a81548160ff0219169083600281111561071e5761071d6116bd565b5b021790555061072d83836109af565b90508091505060006002811115610747576107466116bd565b5b6035600083815260200190815260200160002060009054906101000a900460ff16600281111561077a576107796116bd565b5b146107ba576040517f08c379a00000000000000000000000000000000000000000000000000000000081526004016107b1906119e5565b60405180910390fd5b60016035600083815260200190815260200160002060006101000a81548160ff021916908360028111156107f1576107f06116bd565b5b0217905550846020015160366000876000015173ffffffffffffffffffffffffffffffffffffffff1673ffffffffffffffffffffffffffffffffffffffff16815260200190815260200160002060000160008282546108509190611a34565b9250508190555084604001516108698660200151610b7c565b6108739190611ac8565b60366000876000015173ffffffffffffffffffffffffffffffffffffffff1673ffffffffffffffffffffffffffffffffffffffff16815260200190815260200160002060010160008282546108c89190611b22565b92505081905550826020015160366000856000015173ffffffffffffffffffffffffffffffffffffffff1673ffffffffffffffffffffffffffffffffffffffff16815260200190815260200160002060000160008282546109299190611a34565b9250508190555082604001516109428460200151610b7c565b61094c9190611ac8565b60366000856000015173ffffffffffffffffffffffffffffffffffffffff1673ffffffffffffffffffffffffffffffffffffffff16815260200190815260200160002060010160008282546109a19190611b22565b925050819055505050505050565b60008060006109bd85610a4e565b905060006109cb8286610b9e565b9050856000015173ffffffffffffffffffffffffffffffffffffffff168173ffffffffffffffffffffffffffffffffffffffff1614610a3f576040517f08c379a0000000000000000000000000000000000000000000000000000000008152600401610a3690611bc4565b60405180910390fd5b80829350935050509250929050565b6000610aa47f4cab2d4fcf58d07df65ee3d9d1e6e3c407eae39d76ee15b247a025ab52e2c45d60001b83604051602001610a89929190611be4565b60405160208183030381529060405280519060200120610bc5565b9050919050565b6000613039905090565b60356020528060005260406000206000915054906101000a900460ff1681565b7f4cab2d4fcf58d07df65ee3d9d1e6e3c407eae39d76ee15b247a025ab52e2c45d60001b81565b6000808273ffffffffffffffffffffffffffffffffffffffff163b119050919050565b600060019054906101000a900460ff16610b6e576040517f08c379a0000000000000000000000000000000000000000000000000000000008152600401610b6590611c7f565b60405180910390fd5b610b788282610bdf565b5050565b600080821215610b955781610b9090611c9f565b610b97565b815b9050919050565b6000806000610bad8585610c5a565b91509150610bba81610cac565b819250505092915050565b6000610bd8610bd2610e81565b83610ec1565b9050919050565b600060019054906101000a900460ff16610c2e576040517f08c379a0000000000000000000000000000000000000000000000000000000008152600401610c2590611c7f565b60405180910390fd5b600082805190602001209050600082805190602001209050816001819055508060028190555050505050565b600080604183511415610c9c5760008060006020860151925060408601519150606086015160001a9050610c9087828585610ef4565b94509450505050610ca5565b60006002915091505b9250929050565b60006004811115610cc057610cbf6116bd565b5b816004811115610cd357610cd26116bd565b5b1415610cde57610e7e565b60016004811115610cf257610cf16116bd565b5b816004811115610d0557610d046116bd565b5b1415610d46576040517f08c379a0000000000000000000000000000000000000000000000000000000008152600401610d3d90611d34565b60405180910390fd5b60026004811115610d5a57610d596116bd565b5b816004811115610d6d57610d6c6116bd565b5b1415610dae576040517f08c379a0000000000000000000000000000000000000000000000000000000008152600401610da590611da0565b60405180910390fd5b60036004811115610dc257610dc16116bd565b5b816004811115610dd557610dd46116bd565b5b1415610e16576040517f08c379a0000000000000000000000000000000000000000000000000000000008152600401610e0d90611e32565b60405180910390fd5b600480811115610e2957610e286116bd565b5b816004811115610e3c57610e3b6116bd565b5b1415610e7d576040517f08c379a0000000000000000000000000000000000000000000000000000000008152600401610e7490611ec4565b60405180910390fd5b5b50565b6000610ebc7f8b73c3c69bb8fe3d512ecc4cf759cc79239f7b179b0ffacaa9a75d522b39400f610eaf611001565b610eb761100b565b611015565b905090565b60008282604051602001610ed6929190611f5c565b60405160208183030381529060405280519060200120905092915050565b6000807f7fffffffffffffffffffffffffffffff5d576e7357a4501ddfe92f46681b20a08360001c1115610f2f576000600391509150610ff8565b601b8560ff1614158015610f475750601c8560ff1614155b15610f59576000600491509150610ff8565b600060018787878760405160008152602001604052604051610f7e9493929190611fa2565b6020604051602081039080840390855afa158015610fa0573d6000803e3d6000fd5b505050602060405103519050600073ffffffffffffffffffffffffffffffffffffffff168173ffffffffffffffffffffffffffffffffffffffff161415610fef57600060019250925050610ff8565b80600092509250505b94509492505050565b6000600154905090565b6000600254905090565b60008383834630604051602001611030959493929190611fe7565b6040516020818303038152906040528051906020012090509392505050565b6000604051905090565b600080fd5b600080fd5b600080fd5b6000601f19601f8301169050919050565b7f4e487b7100000000000000000000000000000000000000000000000000000000600052604160045260246000fd5b6110b182611068565b810181811067ffffffffffffffff821117156110d0576110cf611079565b5b80604052505050565b60006110e361104f565b90506110ef82826110a8565b919050565b600073ffffffffffffffffffffffffffffffffffffffff82169050919050565b600061111f826110f4565b9050919050565b61112f81611114565b811461113a57600080fd5b50565b60008135905061114c81611126565b92915050565b6000819050919050565b61116581611152565b811461117057600080fd5b50565b6000813590506111828161115c565b92915050565b6000819050919050565b61119b81611188565b81146111a657600080fd5b50565b6000813590506111b881611192565b92915050565b6000608082840312156111d4576111d3611063565b5b6111de60806110d9565b905060006111ee8482850161113d565b600083015250602061120284828501611173565b6020830152506040611216848285016111a9565b604083015250606061122a848285016111a9565b60608301525092915050565b600080fd5b600080fd5b600067ffffffffffffffff82111561125b5761125a611079565b5b61126482611068565b9050602081019050919050565b82818337600083830152505050565b600061129361128e84611240565b6110d9565b9050828152602081018484840111156112af576112ae61123b565b5b6112ba848285611271565b509392505050565b600082601f8301126112d7576112d6611236565b5b81356112e7848260208601611280565b91505092915050565b60008060a0838503121561130757611306611059565b5b6000611315858286016111be565b925050608083013567ffffffffffffffff8111156113365761133561105e565b5b611342858286016112c2565b9150509250929050565b60008115159050919050565b6113618161134c565b82525050565b600060208201905061137c6000830184611358565b92915050565b600067ffffffffffffffff82111561139d5761139c611079565b5b6113a682611068565b9050602081019050919050565b60006113c66113c184611382565b6110d9565b9050828152602081018484840111156113e2576113e161123b565b5b6113ed848285611271565b509392505050565b600082601f83011261140a57611409611236565b5b813561141a8482602086016113b3565b91505092915050565b6000806040838503121561143a57611439611059565b5b600083013567ffffffffffffffff8111156114585761145761105e565b5b611464858286016113f5565b925050602083013567ffffffffffffffff8111156114855761148461105e565b5b611491858286016113f5565b9150509250929050565b6000602082840312156114b1576114b0611059565b5b60006114bf8482850161113d565b91505092915050565b6114d181611152565b82525050565b6114e081611188565b82525050565b60006040820190506114fb60008301856114c8565b61150860208301846114d7565b9392505050565b600060208201905061152460008301846114c8565b92915050565b600080600080610140858703121561154557611544611059565b5b6000611553878288016111be565b945050608085013567ffffffffffffffff8111156115745761157361105e565b5b611580878288016112c2565b93505060a0611591878288016111be565b92505061012085013567ffffffffffffffff8111156115b3576115b261105e565b5b6115bf878288016112c2565b91505092959194509250565b6115d481611114565b82525050565b6000819050919050565b6115ed816115da565b82525050565b600060408201905061160860008301856115cb565b61161560208301846115e4565b9392505050565b60006080828403121561163257611631611059565b5b6000611640848285016111be565b91505092915050565b600060208201905061165e60008301846115e4565b92915050565b61166d816115da565b811461167857600080fd5b50565b60008135905061168a81611664565b92915050565b6000602082840312156116a6576116a5611059565b5b60006116b48482850161167b565b91505092915050565b7f4e487b7100000000000000000000000000000000000000000000000000000000600052602160045260246000fd5b600381106116fd576116fc6116bd565b5b50565b600081905061170e826116ec565b919050565b600061171e82611700565b9050919050565b61172e81611713565b82525050565b60006020820190506117496000830184611725565b92915050565b61175881611114565b82525050565b61176781611152565b82525050565b61177681611188565b82525050565b608082016000820151611792600085018261174f565b5060208201516117a5602085018261175e565b5060408201516117b8604085018261176d565b5060608201516117cb606085018261176d565b50505050565b600081519050919050565b600082825260208201905092915050565b60005b8381101561180b5780820151818401526020810190506117f0565b8381111561181a576000848401525b50505050565b600061182b826117d1565b61183581856117dc565b93506118458185602086016117ed565b61184e81611068565b840191505092915050565b600060a08201905061186e600083018561177c565b81810360808301526118808184611820565b90509392505050565b600082825260208201905092915050565b7f496e697469616c697a61626c653a20636f6e747261637420697320616c72656160008201527f647920696e697469616c697a6564000000000000000000000000000000000000602082015250565b60006118f6602e83611889565b91506119018261189a565b604082019050919050565b60006020820190508181036000830152611925816118e9565b9050919050565b6000819050919050565b600060ff82169050919050565b6000819050919050565b600061196861196361195e8461192c565b611943565b611936565b9050919050565b6119788161194d565b82525050565b6000602082019050611993600083018461196f565b92915050565b7f4f425f4f4d425500000000000000000000000000000000000000000000000000600082015250565b60006119cf600783611889565b91506119da82611999565b602082019050919050565b600060208201905081810360008301526119fe816119c2565b9050919050565b7f4e487b7100000000000000000000000000000000000000000000000000000000600052601160045260246000fd5b6000611a3f82611152565b9150611a4a83611152565b9250817f7fffffffffffffffffffffffffffffffffffffffffffffffffffffffffffffff03831360008312151615611a8557611a84611a05565b5b817f8000000000000000000000000000000000000000000000000000000000000000038312600083121615611abd57611abc611a05565b5b828201905092915050565b6000611ad382611188565b9150611ade83611188565b9250817fffffffffffffffffffffffffffffffffffffffffffffffffffffffffffffffff0483118215151615611b1757611b16611a05565b5b828202905092915050565b6000611b2d82611188565b9150611b3883611188565b9250827fffffffffffffffffffffffffffffffffffffffffffffffffffffffffffffffff03821115611b6d57611b6c611a05565b5b828201905092915050565b7f4f425f53494e5400000000000000000000000000000000000000000000000000600082015250565b6000611bae600783611889565b9150611bb982611b78565b602082019050919050565b60006020820190508181036000830152611bdd81611ba1565b9050919050565b600060a082019050611bf960008301856115e4565b611c06602083018461177c565b9392505050565b7f496e697469616c697a61626c653a20636f6e7472616374206973206e6f74206960008201527f6e697469616c697a696e67000000000000000000000000000000000000000000602082015250565b6000611c69602b83611889565b9150611c7482611c0d565b604082019050919050565b60006020820190508181036000830152611c9881611c5c565b9050919050565b6000611caa82611152565b91507f8000000000000000000000000000000000000000000000000000000000000000821415611cdd57611cdc611a05565b5b816000039050919050565b7f45434453413a20696e76616c6964207369676e61747572650000000000000000600082015250565b6000611d1e601883611889565b9150611d2982611ce8565b602082019050919050565b60006020820190508181036000830152611d4d81611d11565b9050919050565b7f45434453413a20696e76616c6964207369676e6174757265206c656e67746800600082015250565b6000611d8a601f83611889565b9150611d9582611d54565b602082019050919050565b60006020820190508181036000830152611db981611d7d565b9050919050565b7f45434453413a20696e76616c6964207369676e6174757265202773272076616c60008201527f7565000000000000000000000000000000000000000000000000000000000000602082015250565b6000611e1c602283611889565b9150611e2782611dc0565b604082019050919050565b60006020820190508181036000830152611e4b81611e0f565b9050919050565b7f45434453413a20696e76616c6964207369676e6174757265202776272076616c60008201527f7565000000000000000000000000000000000000000000000000000000000000602082015250565b6000611eae602283611889565b9150611eb982611e52565b604082019050919050565b60006020820190508181036000830152611edd81611ea1565b9050919050565b600081905092915050565b7f1901000000000000000000000000000000000000000000000000000000000000600082015250565b6000611f25600283611ee4565b9150611f3082611eef565b600282019050919050565b6000819050919050565b611f56611f51826115da565b611f3b565b82525050565b6000611f6782611f18565b9150611f738285611f45565b602082019150611f838284611f45565b6020820191508190509392505050565b611f9c81611936565b82525050565b6000608082019050611fb760008301876115e4565b611fc46020830186611f93565b611fd160408301856115e4565b611fde60608301846115e4565b95945050505050565b600060a082019050611ffc60008301886115e4565b61200960208301876115e4565b61201660408301866115e4565b61202360608301856114d7565b61203060808301846115cb565b969550505050505056fea264697066735822122088f261841191b86e3758bd3d5fc207998d484f6393cdadf5be78657edbcd864b64736f6c63430008090033",
  "linkReferences": {},
  "deployedLinkReferences": {}
}