{
  "_format": "hh-sol-artifact-1",
  "contractName": "ExampleRewardManager",
  "sourceName": "contracts/ExampleRewardManager.sol",
  "abi": [
    {
      "inputs": [],
      "stateMutability": "nonpayable",
      "type": "constructor"
    },
    {
      "anonymous": false,
      "inputs": [
        {
          "indexed": true,
          "internalType": "address",
          "name": "previousOwner",
          "type": "address"
        },
        {
          "indexed": true,
          "internalType": "address",
          "name": "newOwner",
          "type": "address"
        }
      ],
      "name": "OwnershipTransferred",
      "type": "event"
    },
    {
      "inputs": [],
      "name": "allowFeeRecipients",
      "outputs": [],
      "stateMutability": "nonpayable",
      "type": "function"
    },
    {
      "inputs": [],
      "name": "areFeeRecipientsAllowed",
      "outputs": [
        {
          "internalType": "bool",
          "name": "",
          "type": "bool"
        }
      ],
      "stateMutability": "view",
      "type": "function"
    },
    {
      "inputs": [],
      "name": "currentRewardAddress",
      "outputs": [
        {
          "internalType": "address",
          "name": "",
          "type": "address"
        }
      ],
      "stateMutability": "view",
      "type": "function"
    },
    {
      "inputs": [],
      "name": "disableRewards",
      "outputs": [],
      "stateMutability": "nonpayable",
      "type": "function"
    },
    {
      "inputs": [],
      "name": "owner",
      "outputs": [
        {
          "internalType": "address",
          "name": "",
          "type": "address"
        }
      ],
      "stateMutability": "view",
      "type": "function"
    },
    {
      "inputs": [],
      "name": "renounceOwnership",
      "outputs": [],
      "stateMutability": "nonpayable",
      "type": "function"
    },
    {
      "inputs": [
        {
          "internalType": "address",
          "name": "addr",
          "type": "address"
        }
      ],
      "name": "setRewardAddress",
      "outputs": [],
      "stateMutability": "nonpayable",
      "type": "function"
    },
    {
      "inputs": [
        {
          "internalType": "address",
          "name": "newOwner",
          "type": "address"
        }
      ],
      "name": "transferOwnership",
      "outputs": [],
      "stateMutability": "nonpayable",
      "type": "function"
    }
  ],
  "bytecode": "0x6080604052730200000000000000000000000000000000000004600160006101000a81548173ffffffffffffffffffffffffffffffffffffffff021916908373ffffffffffffffffffffffffffffffffffffffff16021790555034801561006557600080fd5b5061008261007761008760201b60201c565b61008f60201b60201c565b610153565b600033905090565b60008060009054906101000a900473ffffffffffffffffffffffffffffffffffffffff169050816000806101000a81548173ffffffffffffffffffffffffffffffffffffffff021916908373ffffffffffffffffffffffffffffffffffffffff1602179055508173ffffffffffffffffffffffffffffffffffffffff168173ffffffffffffffffffffffffffffffffffffffff167f8be0079c531659141344cd1fd0a4f28419497f9722a3daafe3b4186f6b6457e060405160405180910390a35050565b6108ed806101626000396000f3fe608060405234801561001057600080fd5b50600436106100885760003560e01c8063bc1786281161005b578063bc178628146100db578063e915608b146100e5578063f2fde38b14610103578063f6542b2e1461011f57610088565b80630329099f1461008d5780635e00e67914610097578063715018a6146100b35780638da5cb5b146100bd575b600080fd5b61009561013d565b005b6100b160048036038101906100ac9190610685565b6101c9565b005b6100bb610261565b005b6100c5610275565b6040516100d291906107c4565b60405180910390f35b6100e361029e565b005b6100ed61032a565b6040516100fa91906107c4565b60405180910390f35b61011d60048036038101906101189190610685565b6103d1565b005b610127610455565b60405161013491906107df565b60405180910390f35b6101456104fc565b600160009054906101000a900473ffffffffffffffffffffffffffffffffffffffff1673ffffffffffffffffffffffffffffffffffffffff16630329099f6040518163ffffffff1660e01b8152600401600060405180830381600087803b1580156101af57600080fd5b505af11580156101c3573d6000803e3d6000fd5b50505050565b6101d16104fc565b600160009054906101000a900473ffffffffffffffffffffffffffffffffffffffff1673ffffffffffffffffffffffffffffffffffffffff16635e00e679826040518263ffffffff1660e01b815260040161022c91906107c4565b600060405180830381600087803b15801561024657600080fd5b505af115801561025a573d6000803e3d6000fd5b5050505050565b6102696104fc565b610273600061057a565b565b60008060009054906101000a900473ffffffffffffffffffffffffffffffffffffffff16905090565b6102a66104fc565b600160009054906101000a900473ffffffffffffffffffffffffffffffffffffffff1673ffffffffffffffffffffffffffffffffffffffff1663bc1786286040518163ffffffff1660e01b8152600401600060405180830381600087803b15801561031057600080fd5b505af1158015610324573d6000803e3d6000fd5b50505050565b6000600160009054906101000a900473ffffffffffffffffffffffffffffffffffffffff1673ffffffffffffffffffffffffffffffffffffffff1663e915608b6040518163ffffffff1660e01b815260040160206040518083038186803b15801561039457600080fd5b505afa1580156103a8573d6000803e3d6000fd5b505050506040513d601f19601f820116820180604052508101906103cc91906106ae565b905090565b6103d96104fc565b600073ffffffffffffffffffffffffffffffffffffffff168173ffffffffffffffffffffffffffffffffffffffff161415610449576040517f08c379a0000000000000000000000000000000000000000000000000000000008152600401610440906107fa565b60405180910390fd5b6104528161057a565b50565b6000600160009054906101000a900473ffffffffffffffffffffffffffffffffffffffff1673ffffffffffffffffffffffffffffffffffffffff1663f6542b2e6040518163ffffffff1660e01b815260040160206040518083038186803b1580156104bf57600080fd5b505afa1580156104d3573d6000803e3d6000fd5b505050506040513d601f19601f820116820180604052508101906104f791906106d7565b905090565b61050461063e565b73ffffffffffffffffffffffffffffffffffffffff16610522610275565b73ffffffffffffffffffffffffffffffffffffffff1614610578576040517f08c379a000000000000000000000000000000000000000000000000000000000815260040161056f9061081a565b60405180910390fd5b565b60008060009054906101000a900473ffffffffffffffffffffffffffffffffffffffff169050816000806101000a81548173ffffffffffffffffffffffffffffffffffffffff021916908373ffffffffffffffffffffffffffffffffffffffff1602179055508173ffffffffffffffffffffffffffffffffffffffff168173ffffffffffffffffffffffffffffffffffffffff167f8be0079c531659141344cd1fd0a4f28419497f9722a3daafe3b4186f6b6457e060405160405180910390a35050565b600033905090565b60008135905061065581610889565b92915050565b60008151905061066a81610889565b92915050565b60008151905061067f816108a0565b92915050565b60006020828403121561069757600080fd5b60006106a584828501610646565b91505092915050565b6000602082840312156106c057600080fd5b60006106ce8482850161065b565b91505092915050565b6000602082840312156106e957600080fd5b60006106f784828501610670565b91505092915050565b6107098161084b565b82525050565b6107188161085d565b82525050565b600061072b60268361083a565b91507f4f776e61626c653a206e6577206f776e657220697320746865207a65726f206160008301527f64647265737300000000000000000000000000000000000000000000000000006020830152604082019050919050565b600061079160208361083a565b91507f4f776e61626c653a2063616c6c6572206973206e6f7420746865206f776e65726000830152602082019050919050565b60006020820190506107d96000830184610700565b92915050565b60006020820190506107f4600083018461070f565b92915050565b600060208201905081810360008301526108138161071e565b9050919050565b6000602082019050818103600083015261083381610784565b9050919050565b600082825260208201905092915050565b600061085682610869565b9050919050565b60008115159050919050565b600073ffffffffffffffffffffffffffffffffffffffff82169050919050565b6108928161084b565b811461089d57600080fd5b50565b6108a98161085d565b81146108b457600080fd5b5056fea26469706673582212203b579bbbd76a1d5546aeeb82ece16057c2a4bab4d622bd69d77c09dbc9b6217c64736f6c63430008000033",
  "linkReferences": {},
  "deployedLinkReferences": {}
}