{
  "_format": "hh-sol-artifact-1",
  "contractName": "ERC20NativeMinter",
  "sourceName": "contracts/ERC20NativeMinter.sol",
  "abi": [
    {
      "inputs": [
        {
          "internalType": "uint256",
          "name": "initSupply",
          "type": "uint256"
        }
      ],
      "stateMutability": "nonpayable",
      "type": "constructor"
    },
    {
      "anonymous": false,
      "inputs": [
        {
          "indexed": true,
          "internalType": "address",
          "name": "owner",
          "type": "address"
        },
        {
          "indexed": true,
          "internalType": "address",
          "name": "spender",
          "type": "address"
        },
        {
          "indexed": false,
          "internalType": "uint256",
          "name": "value",
          "type": "uint256"
        }
      ],
      "name": "Approval",
      "type": "event"
    },
    {
      "anonymous": false,
      "inputs": [
        {
          "indexed": true,
          "internalType": "address",
          "name": "dst",
          "type": "address"
        },
        {
          "indexed": false,
          "internalType": "uint256",
          "name": "wad",
          "type": "uint256"
        }
      ],
      "name": "Deposit",
      "type": "event"
    },
    {
      "anonymous": false,
      "inputs": [
        {
          "indexed": true,
          "internalType": "address",
          "name": "src",
          "type": "address"
        },
        {
          "indexed": false,
          "internalType": "uint256",
          "name": "wad",
          "type": "uint256"
        }
      ],
      "name": "Mintdrawal",
      "type": "event"
    },
    {
      "anonymous": false,
      "inputs": [
        {
          "indexed": true,
          "internalType": "address",
          "name": "previousOwner",
          "type": "address"
        },
        {
          "indexed": true,
          "internalType": "address",
          "name": "newOwner",
          "type": "address"
        }
      ],
      "name": "OwnershipTransferred",
      "type": "event"
    },
    {
      "anonymous": false,
      "inputs": [
        {
          "indexed": true,
          "internalType": "address",
          "name": "from",
          "type": "address"
        },
        {
          "indexed": true,
          "internalType": "address",
          "name": "to",
          "type": "address"
        },
        {
          "indexed": false,
          "internalType": "uint256",
          "name": "value",
          "type": "uint256"
        }
      ],
      "name": "Transfer",
      "type": "event"
    },
    {
      "inputs": [
        {
          "internalType": "address",
          "name": "owner",
          "type": "address"
        },
        {
          "internalType": "address",
          "name": "spender",
          "type": "address"
        }
      ],
      "name": "allowance",
      "outputs": [
        {
          "internalType": "uint256",
          "name": "",
          "type": "uint256"
        }
      ],
      "stateMutability": "view",
      "type": "function"
    },
    {
      "inputs": [
        {
          "internalType": "address",
          "name": "spender",
          "type": "address"
        },
        {
          "internalType": "uint256",
          "name": "amount",
          "type": "uint256"
        }
      ],
      "name": "approve",
      "outputs": [
        {
          "internalType": "bool",
          "name": "",
          "type": "bool"
        }
      ],
      "stateMutability": "nonpayable",
      "type": "function"
    },
    {
      "inputs": [
        {
          "internalType": "address",
          "name": "account",
          "type": "address"
        }
      ],
      "name": "balanceOf",
      "outputs": [
        {
          "internalType": "uint256",
          "name": "",
          "type": "uint256"
        }
      ],
      "stateMutability": "view",
      "type": "function"
    },
    {
      "inputs": [
        {
          "internalType": "address",
          "name": "from",
          "type": "address"
        },
        {
          "internalType": "uint256",
          "name": "amount",
          "type": "uint256"
        }
      ],
      "name": "burn",
      "outputs": [],
      "stateMutability": "nonpayable",
      "type": "function"
    },
    {
      "inputs": [],
      "name": "decimals",
      "outputs": [
        {
          "internalType": "uint8",
          "name": "",
          "type": "uint8"
        }
      ],
      "stateMutability": "view",
      "type": "function"
    },
    {
      "inputs": [
        {
          "internalType": "address",
          "name": "spender",
          "type": "address"
        },
        {
          "internalType": "uint256",
          "name": "subtractedValue",
          "type": "uint256"
        }
      ],
      "name": "decreaseAllowance",
      "outputs": [
        {
          "internalType": "bool",
          "name": "",
          "type": "bool"
        }
      ],
      "stateMutability": "nonpayable",
      "type": "function"
    },
    {
      "inputs": [],
      "name": "deposit",
      "outputs": [],
      "stateMutability": "payable",
      "type": "function"
    },
    {
      "inputs": [
        {
          "internalType": "address",
          "name": "spender",
          "type": "address"
        },
        {
          "internalType": "uint256",
          "name": "addedValue",
          "type": "uint256"
        }
      ],
      "name": "increaseAllowance",
      "outputs": [
        {
          "internalType": "bool",
          "name": "",
          "type": "bool"
        }
      ],
      "stateMutability": "nonpayable",
      "type": "function"
    },
    {
      "inputs": [
        {
          "internalType": "address",
          "name": "addr",
          "type": "address"
        }
      ],
      "name": "isAdmin",
      "outputs": [
        {
          "internalType": "bool",
          "name": "",
          "type": "bool"
        }
      ],
      "stateMutability": "view",
      "type": "function"
    },
    {
      "inputs": [
        {
          "internalType": "address",
          "name": "addr",
          "type": "address"
        }
      ],
      "name": "isEnabled",
      "outputs": [
        {
          "internalType": "bool",
          "name": "",
          "type": "bool"
        }
      ],
      "stateMutability": "view",
      "type": "function"
    },
    {
      "inputs": [
        {
          "internalType": "address",
          "name": "to",
          "type": "address"
        },
        {
          "internalType": "uint256",
          "name": "amount",
          "type": "uint256"
        }
      ],
      "name": "mint",
      "outputs": [],
      "stateMutability": "nonpayable",
      "type": "function"
    },
    {
      "inputs": [
        {
          "internalType": "uint256",
          "name": "wad",
          "type": "uint256"
        }
      ],
      "name": "mintdraw",
      "outputs": [],
      "stateMutability": "nonpayable",
      "type": "function"
    },
    {
      "inputs": [],
      "name": "name",
      "outputs": [
        {
          "internalType": "string",
          "name": "",
          "type": "string"
        }
      ],
      "stateMutability": "view",
      "type": "function"
    },
    {
      "inputs": [],
      "name": "owner",
      "outputs": [
        {
          "internalType": "address",
          "name": "",
          "type": "address"
        }
      ],
      "stateMutability": "view",
      "type": "function"
    },
    {
      "inputs": [],
      "name": "renounceOwnership",
      "outputs": [],
      "stateMutability": "nonpayable",
      "type": "function"
    },
    {
      "inputs": [
        {
          "internalType": "address",
          "name": "addr",
          "type": "address"
        }
      ],
      "name": "revoke",
      "outputs": [],
      "stateMutability": "nonpayable",
      "type": "function"
    },
    {
      "inputs": [
        {
          "internalType": "address",
          "name": "addr",
          "type": "address"
        }
      ],
      "name": "setAdmin",
      "outputs": [],
      "stateMutability": "nonpayable",
      "type": "function"
    },
    {
      "inputs": [
        {
          "internalType": "address",
          "name": "addr",
          "type": "address"
        }
      ],
      "name": "setEnabled",
      "outputs": [],
      "stateMutability": "nonpayable",
      "type": "function"
    },
    {
      "inputs": [],
      "name": "symbol",
      "outputs": [
        {
          "internalType": "string",
          "name": "",
          "type": "string"
        }
      ],
      "stateMutability": "view",
      "type": "function"
    },
    {
      "inputs": [],
      "name": "totalSupply",
      "outputs": [
        {
          "internalType": "uint256",
          "name": "",
          "type": "uint256"
        }
      ],
      "stateMutability": "view",
      "type": "function"
    },
    {
      "inputs": [
        {
          "internalType": "address",
          "name": "to",
          "type": "address"
        },
        {
          "internalType": "uint256",
          "name": "amount",
          "type": "uint256"
        }
      ],
      "name": "transfer",
      "outputs": [
        {
          "internalType": "bool",
          "name": "",
          "type": "bool"
        }
      ],
      "stateMutability": "nonpayable",
      "type": "function"
    },
    {
      "inputs": [
        {
          "internalType": "address",
          "name": "from",
          "type": "address"
        },
        {
          "internalType": "address",
          "name": "to",
          "type": "address"
        },
        {
          "internalType": "uint256",
          "name": "amount",
          "type": "uint256"
        }
      ],
      "name": "transferFrom",
      "outputs": [
        {
          "internalType": "bool",
          "name": "",
          "type": "bool"
        }
      ],
      "stateMutability": "nonpayable",
      "type": "function"
    },
    {
      "inputs": [
        {
          "internalType": "address",
          "name": "newOwner",
          "type": "address"
        }
      ],
      "name": "transferOwnership",
      "outputs": [],
      "stateMutability": "nonpayable",
      "type": "function"
    }
  ],
  "bytecode": "0x6080604052730200000000000000000000000000000000000001600760006101000a81548173ffffffffffffffffffffffffffffffffffffffff021916908373ffffffffffffffffffffffffffffffffffffffff1602179055503480156200006657600080fd5b5060405162002b5238038062002b5283398181016040528101906200008c91906200050c565b7302000000000000000000000000000000000000016040518060400160405280601681526020017f45524332304e61746976654d696e746572546f6b656e000000000000000000008152506040518060400160405280600481526020017f584d504c000000000000000000000000000000000000000000000000000000008152508160039080519060200190620001259291906200041c565b5080600490805190602001906200013e9291906200041c565b5050506200016162000155620001cb60201b60201c565b620001d360201b60201c565b80600660006101000a81548173ffffffffffffffffffffffffffffffffffffffff021916908373ffffffffffffffffffffffffffffffffffffffff16021790555050620001c4620001b7620001cb60201b60201c565b826200029960201b60201c565b50620006e0565b600033905090565b6000600560009054906101000a900473ffffffffffffffffffffffffffffffffffffffff16905081600560006101000a81548173ffffffffffffffffffffffffffffffffffffffff021916908373ffffffffffffffffffffffffffffffffffffffff1602179055508173ffffffffffffffffffffffffffffffffffffffff168173ffffffffffffffffffffffffffffffffffffffff167f8be0079c531659141344cd1fd0a4f28419497f9722a3daafe3b4186f6b6457e060405160405180910390a35050565b600073ffffffffffffffffffffffffffffffffffffffff168273ffffffffffffffffffffffffffffffffffffffff1614156200030c576040517f08c379a000000000000000000000000000000000000000000000000000000000815260040162000303906200059f565b60405180910390fd5b62000320600083836200041260201b60201c565b8060026000828254620003349190620005f0565b92505081905550806000808473ffffffffffffffffffffffffffffffffffffffff1673ffffffffffffffffffffffffffffffffffffffff16815260200190815260200160002060008282546200038b9190620005f0565b925050819055508173ffffffffffffffffffffffffffffffffffffffff16600073ffffffffffffffffffffffffffffffffffffffff167fddf252ad1be2c89b69c2b068fc378daa952ba7f163c4a11628f55a4df523b3ef83604051620003f291906200065e565b60405180910390a36200040e600083836200041760201b60201c565b5050565b505050565b505050565b8280546200042a90620006aa565b90600052602060002090601f0160209004810192826200044e57600085556200049a565b82601f106200046957805160ff19168380011785556200049a565b828001600101855582156200049a579182015b82811115620004995782518255916020019190600101906200047c565b5b509050620004a99190620004ad565b5090565b5b80821115620004c8576000816000905550600101620004ae565b5090565b600080fd5b6000819050919050565b620004e681620004d1565b8114620004f257600080fd5b50565b6000815190506200050681620004db565b92915050565b600060208284031215620005255762000524620004cc565b5b60006200053584828501620004f5565b91505092915050565b600082825260208201905092915050565b7f45524332303a206d696e7420746f20746865207a65726f206164647265737300600082015250565b600062000587601f836200053e565b915062000594826200054f565b602082019050919050565b60006020820190508181036000830152620005ba8162000578565b9050919050565b7f4e487b7100000000000000000000000000000000000000000000000000000000600052601160045260246000fd5b6000620005fd82620004d1565b91506200060a83620004d1565b9250827fffffffffffffffffffffffffffffffffffffffffffffffffffffffffffffffff03821115620006425762000641620005c1565b5b828201905092915050565b6200065881620004d1565b82525050565b60006020820190506200067560008301846200064d565b92915050565b7f4e487b7100000000000000000000000000000000000000000000000000000000600052602260045260246000fd5b60006002820490506001821680620006c357607f821691505b60208210811415620006da57620006d96200067b565b5b50919050565b61246280620006f06000396000f3fe6080604052600436106101405760003560e01c806370a08231116100b65780639dc29fac1161006f5780639dc29fac1461046e578063a457c2d714610497578063a9059cbb146104d4578063d0e30db014610511578063dd62ed3e1461051b578063f2fde38b1461055857610140565b806370a082311461035e578063715018a61461039b57806374a8f103146103b25780638da5cb5b146103db5780639015d3711461040657806395d89b411461044357610140565b806323b872dd1161010857806323b872dd1461022a57806324d7806c14610267578063313ce567146102a457806339509351146102cf57806340c10f191461030c578063704b6c021461033557610140565b80630356b6cd1461014557806306fdde031461016e578063095ea7b3146101995780630aaf7043146101d657806318160ddd146101ff575b600080fd5b34801561015157600080fd5b5061016c600480360381019061016791906118ce565b610581565b005b34801561017a57600080fd5b50610183610680565b6040516101909190611994565b60405180910390f35b3480156101a557600080fd5b506101c060048036038101906101bb9190611a14565b610712565b6040516101cd9190611a6f565b60405180910390f35b3480156101e257600080fd5b506101fd60048036038101906101f89190611a8a565b610735565b005b34801561020b57600080fd5b50610214610749565b6040516102219190611ac6565b60405180910390f35b34801561023657600080fd5b50610251600480360381019061024c9190611ae1565b610753565b60405161025e9190611a6f565b60405180910390f35b34801561027357600080fd5b5061028e60048036038101906102899190611a8a565b610782565b60405161029b9190611a6f565b60405180910390f35b3480156102b057600080fd5b506102b961083e565b6040516102c69190611b50565b60405180910390f35b3480156102db57600080fd5b506102f660048036038101906102f19190611a14565b610847565b6040516103039190611a6f565b60405180910390f35b34801561031857600080fd5b50610333600480360381019061032e9190611a14565b61087e565b005b34801561034157600080fd5b5061035c60048036038101906103579190611a8a565b610894565b005b34801561036a57600080fd5b5061038560048036038101906103809190611a8a565b6108a8565b6040516103929190611ac6565b60405180910390f35b3480156103a757600080fd5b506103b06108f0565b005b3480156103be57600080fd5b506103d960048036038101906103d49190611a8a565b610904565b005b3480156103e757600080fd5b506103f0610918565b6040516103fd9190611b7a565b60405180910390f35b34801561041257600080fd5b5061042d60048036038101906104289190611a8a565b610942565b60405161043a9190611a6f565b60405180910390f35b34801561044f57600080fd5b506104586109ff565b6040516104659190611994565b60405180910390f35b34801561047a57600080fd5b5061049560048036038101906104909190611a14565b610a91565b005b3480156104a357600080fd5b506104be60048036038101906104b99190611a14565b610aa7565b6040516104cb9190611a6f565b60405180910390f35b3480156104e057600080fd5b506104fb60048036038101906104f69190611a14565b610b1e565b6040516105089190611a6f565b60405180910390f35b610519610b41565b005b34801561052757600080fd5b50610542600480360381019061053d9190611b95565b610c04565b60405161054f9190611ac6565b60405180910390f35b34801561056457600080fd5b5061057f600480360381019061057a9190611a8a565b610c8b565b005b61059261058c610d0f565b82610d17565b600760009054906101000a900473ffffffffffffffffffffffffffffffffffffffff1673ffffffffffffffffffffffffffffffffffffffff16634f5aaaba6105d8610d0f565b836040518363ffffffff1660e01b81526004016105f6929190611bd5565b600060405180830381600087803b15801561061057600080fd5b505af1158015610624573d6000803e3d6000fd5b50505050610630610d0f565b73ffffffffffffffffffffffffffffffffffffffff167f25bedde6c8ebd3a89b719a16299dbfe271c7bffa42fe1ac1a52e15ab0cb767e6826040516106759190611ac6565b60405180910390a250565b60606003805461068f90611c2d565b80601f01602080910402602001604051908101604052809291908181526020018280546106bb90611c2d565b80156107085780601f106106dd57610100808354040283529160200191610708565b820191906000526020600020905b8154815290600101906020018083116106eb57829003601f168201915b5050505050905090565b60008061071d610d0f565b905061072a818585610eee565b600191505092915050565b61073d6110b9565b61074681611137565b50565b6000600254905090565b60008061075e610d0f565b905061076b8582856111c7565b610776858585611253565b60019150509392505050565b600080600660009054906101000a900473ffffffffffffffffffffffffffffffffffffffff1673ffffffffffffffffffffffffffffffffffffffff1663eb54dae1846040518263ffffffff1660e01b81526004016107e09190611b7a565b60206040518083038186803b1580156107f857600080fd5b505afa15801561080c573d6000803e3d6000fd5b505050506040513d601f19601f820116820180604052508101906108309190611c74565b905060028114915050919050565b60006012905090565b600080610852610d0f565b90506108738185856108648589610c04565b61086e9190611cd0565b610eee565b600191505092915050565b6108866110b9565b61089082826114d4565b5050565b61089c6110b9565b6108a581611634565b50565b60008060008373ffffffffffffffffffffffffffffffffffffffff1673ffffffffffffffffffffffffffffffffffffffff168152602001908152602001600020549050919050565b6108f86110b9565b61090260006116c4565b565b61090c6110b9565b6109158161178a565b50565b6000600560009054906101000a900473ffffffffffffffffffffffffffffffffffffffff16905090565b600080600660009054906101000a900473ffffffffffffffffffffffffffffffffffffffff1673ffffffffffffffffffffffffffffffffffffffff1663eb54dae1846040518263ffffffff1660e01b81526004016109a09190611b7a565b60206040518083038186803b1580156109b857600080fd5b505afa1580156109cc573d6000803e3d6000fd5b505050506040513d601f19601f820116820180604052508101906109f09190611c74565b90506000811415915050919050565b606060048054610a0e90611c2d565b80601f0160208091040260200160405190810160405280929190818152602001828054610a3a90611c2d565b8015610a875780601f10610a5c57610100808354040283529160200191610a87565b820191906000526020600020905b815481529060010190602001808311610a6a57829003601f168201915b5050505050905090565b610a996110b9565b610aa38282610d17565b5050565b600080610ab2610d0f565b90506000610ac08286610c04565b905083811015610b05576040517f08c379a0000000000000000000000000000000000000000000000000000000008152600401610afc90611d98565b60405180910390fd5b610b128286868403610eee565b60019250505092915050565b600080610b29610d0f565b9050610b36818585611253565b600191505092915050565b73010000000000000000000000000000000000000073ffffffffffffffffffffffffffffffffffffffff166108fc349081150290604051600060405180830381858888f19350505050158015610b9b573d6000803e3d6000fd5b50610bad610ba7610d0f565b346114d4565b610bb5610d0f565b73ffffffffffffffffffffffffffffffffffffffff167fe1fffcc4923d04b559f4d29a8bfc6cda04eb5b0d3c460751c2402c5c5cc9109c34604051610bfa9190611ac6565b60405180910390a2565b6000600160008473ffffffffffffffffffffffffffffffffffffffff1673ffffffffffffffffffffffffffffffffffffffff16815260200190815260200160002060008373ffffffffffffffffffffffffffffffffffffffff1673ffffffffffffffffffffffffffffffffffffffff16815260200190815260200160002054905092915050565b610c936110b9565b600073ffffffffffffffffffffffffffffffffffffffff168173ffffffffffffffffffffffffffffffffffffffff161415610d03576040517f08c379a0000000000000000000000000000000000000000000000000000000008152600401610cfa90611e2a565b60405180910390fd5b610d0c816116c4565b50565b600033905090565b600073ffffffffffffffffffffffffffffffffffffffff168273ffffffffffffffffffffffffffffffffffffffff161415610d87576040517f08c379a0000000000000000000000000000000000000000000000000000000008152600401610d7e90611ebc565b60405180910390fd5b610d9382600083611889565b60008060008473ffffffffffffffffffffffffffffffffffffffff1673ffffffffffffffffffffffffffffffffffffffff16815260200190815260200160002054905081811015610e19576040517f08c379a0000000000000000000000000000000000000000000000000000000008152600401610e1090611f4e565b60405180910390fd5b8181036000808573ffffffffffffffffffffffffffffffffffffffff1673ffffffffffffffffffffffffffffffffffffffff168152602001908152602001600020819055508160026000828254610e709190611f6e565b92505081905550600073ffffffffffffffffffffffffffffffffffffffff168373ffffffffffffffffffffffffffffffffffffffff167fddf252ad1be2c89b69c2b068fc378daa952ba7f163c4a11628f55a4df523b3ef84604051610ed59190611ac6565b60405180910390a3610ee98360008461188e565b505050565b600073ffffffffffffffffffffffffffffffffffffffff168373ffffffffffffffffffffffffffffffffffffffff161415610f5e576040517f08c379a0000000000000000000000000000000000000000000000000000000008152600401610f5590612014565b60405180910390fd5b600073ffffffffffffffffffffffffffffffffffffffff168273ffffffffffffffffffffffffffffffffffffffff161415610fce576040517f08c379a0000000000000000000000000000000000000000000000000000000008152600401610fc5906120a6565b60405180910390fd5b80600160008573ffffffffffffffffffffffffffffffffffffffff1673ffffffffffffffffffffffffffffffffffffffff16815260200190815260200160002060008473ffffffffffffffffffffffffffffffffffffffff1673ffffffffffffffffffffffffffffffffffffffff168152602001908152602001600020819055508173ffffffffffffffffffffffffffffffffffffffff168373ffffffffffffffffffffffffffffffffffffffff167f8c5be1e5ebec7d5bd14f71427d1e84f3dd0314c0f7b2291e5b200ac8c7c3b925836040516110ac9190611ac6565b60405180910390a3505050565b6110c1610d0f565b73ffffffffffffffffffffffffffffffffffffffff166110df610918565b73ffffffffffffffffffffffffffffffffffffffff1614611135576040517f08c379a000000000000000000000000000000000000000000000000000000000815260040161112c90612112565b60405180910390fd5b565b600660009054906101000a900473ffffffffffffffffffffffffffffffffffffffff1673ffffffffffffffffffffffffffffffffffffffff16630aaf7043826040518263ffffffff1660e01b81526004016111929190611b7a565b600060405180830381600087803b1580156111ac57600080fd5b505af11580156111c0573d6000803e3d6000fd5b5050505050565b60006111d38484610c04565b90507fffffffffffffffffffffffffffffffffffffffffffffffffffffffffffffffff811461124d578181101561123f576040517f08c379a00000000000000000000000000000000000000000000000000000000081526004016112369061217e565b60405180910390fd5b61124c8484848403610eee565b5b50505050565b600073ffffffffffffffffffffffffffffffffffffffff168373ffffffffffffffffffffffffffffffffffffffff1614156112c3576040517f08c379a00000000000000000000000000000000000000000000000000000000081526004016112ba90612210565b60405180910390fd5b600073ffffffffffffffffffffffffffffffffffffffff168273ffffffffffffffffffffffffffffffffffffffff161415611333576040517f08c379a000000000000000000000000000000000000000000000000000000000815260040161132a906122a2565b60405180910390fd5b61133e838383611889565b60008060008573ffffffffffffffffffffffffffffffffffffffff1673ffffffffffffffffffffffffffffffffffffffff168152602001908152602001600020549050818110156113c4576040517f08c379a00000000000000000000000000000000000000000000000000000000081526004016113bb90612334565b60405180910390fd5b8181036000808673ffffffffffffffffffffffffffffffffffffffff1673ffffffffffffffffffffffffffffffffffffffff16815260200190815260200160002081905550816000808573ffffffffffffffffffffffffffffffffffffffff1673ffffffffffffffffffffffffffffffffffffffff16815260200190815260200160002060008282546114579190611cd0565b925050819055508273ffffffffffffffffffffffffffffffffffffffff168473ffffffffffffffffffffffffffffffffffffffff167fddf252ad1be2c89b69c2b068fc378daa952ba7f163c4a11628f55a4df523b3ef846040516114bb9190611ac6565b60405180910390a36114ce84848461188e565b50505050565b600073ffffffffffffffffffffffffffffffffffffffff168273ffffffffffffffffffffffffffffffffffffffff161415611544576040517f08c379a000000000000000000000000000000000000000000000000000000000815260040161153b906123a0565b60405180910390fd5b61155060008383611889565b80600260008282546115629190611cd0565b92505081905550806000808473ffffffffffffffffffffffffffffffffffffffff1673ffffffffffffffffffffffffffffffffffffffff16815260200190815260200160002060008282546115b79190611cd0565b925050819055508173ffffffffffffffffffffffffffffffffffffffff16600073ffffffffffffffffffffffffffffffffffffffff167fddf252ad1be2c89b69c2b068fc378daa952ba7f163c4a11628f55a4df523b3ef8360405161161c9190611ac6565b60405180910390a36116306000838361188e565b5050565b600660009054906101000a900473ffffffffffffffffffffffffffffffffffffffff1673ffffffffffffffffffffffffffffffffffffffff1663704b6c02826040518263ffffffff1660e01b815260040161168f9190611b7a565b600060405180830381600087803b1580156116a957600080fd5b505af11580156116bd573d6000803e3d6000fd5b5050505050565b6000600560009054906101000a900473ffffffffffffffffffffffffffffffffffffffff16905081600560006101000a81548173ffffffffffffffffffffffffffffffffffffffff021916908373ffffffffffffffffffffffffffffffffffffffff1602179055508173ffffffffffffffffffffffffffffffffffffffff168173ffffffffffffffffffffffffffffffffffffffff167f8be0079c531659141344cd1fd0a4f28419497f9722a3daafe3b4186f6b6457e060405160405180910390a35050565b8073ffffffffffffffffffffffffffffffffffffffff163373ffffffffffffffffffffffffffffffffffffffff1614156117f9576040517f08c379a00000000000000000000000000000000000000000000000000000000081526004016117f09061240c565b60405180910390fd5b600660009054906101000a900473ffffffffffffffffffffffffffffffffffffffff1673ffffffffffffffffffffffffffffffffffffffff16638c6bfb3b826040518263ffffffff1660e01b81526004016118549190611b7a565b600060405180830381600087803b15801561186e57600080fd5b505af1158015611882573d6000803e3d6000fd5b5050505050565b505050565b505050565b600080fd5b6000819050919050565b6118ab81611898565b81146118b657600080fd5b50565b6000813590506118c8816118a2565b92915050565b6000602082840312156118e4576118e3611893565b5b60006118f2848285016118b9565b91505092915050565b600081519050919050565b600082825260208201905092915050565b60005b8381101561193557808201518184015260208101905061191a565b83811115611944576000848401525b50505050565b6000601f19601f8301169050919050565b6000611966826118fb565b6119708185611906565b9350611980818560208601611917565b6119898161194a565b840191505092915050565b600060208201905081810360008301526119ae818461195b565b905092915050565b600073ffffffffffffffffffffffffffffffffffffffff82169050919050565b60006119e1826119b6565b9050919050565b6119f1816119d6565b81146119fc57600080fd5b50565b600081359050611a0e816119e8565b92915050565b60008060408385031215611a2b57611a2a611893565b5b6000611a39858286016119ff565b9250506020611a4a858286016118b9565b9150509250929050565b60008115159050919050565b611a6981611a54565b82525050565b6000602082019050611a846000830184611a60565b92915050565b600060208284031215611aa057611a9f611893565b5b6000611aae848285016119ff565b91505092915050565b611ac081611898565b82525050565b6000602082019050611adb6000830184611ab7565b92915050565b600080600060608486031215611afa57611af9611893565b5b6000611b08868287016119ff565b9350506020611b19868287016119ff565b9250506040611b2a868287016118b9565b9150509250925092565b600060ff82169050919050565b611b4a81611b34565b82525050565b6000602082019050611b656000830184611b41565b92915050565b611b74816119d6565b82525050565b6000602082019050611b8f6000830184611b6b565b92915050565b60008060408385031215611bac57611bab611893565b5b6000611bba858286016119ff565b9250506020611bcb858286016119ff565b9150509250929050565b6000604082019050611bea6000830185611b6b565b611bf76020830184611ab7565b9392505050565b7f4e487b7100000000000000000000000000000000000000000000000000000000600052602260045260246000fd5b60006002820490506001821680611c4557607f821691505b60208210811415611c5957611c58611bfe565b5b50919050565b600081519050611c6e816118a2565b92915050565b600060208284031215611c8a57611c89611893565b5b6000611c9884828501611c5f565b91505092915050565b7f4e487b7100000000000000000000000000000000000000000000000000000000600052601160045260246000fd5b6000611cdb82611898565b9150611ce683611898565b9250827fffffffffffffffffffffffffffffffffffffffffffffffffffffffffffffffff03821115611d1b57611d1a611ca1565b5b828201905092915050565b7f45524332303a2064656372656173656420616c6c6f77616e63652062656c6f7760008201527f207a65726f000000000000000000000000000000000000000000000000000000602082015250565b6000611d82602583611906565b9150611d8d82611d26565b604082019050919050565b60006020820190508181036000830152611db181611d75565b9050919050565b7f4f776e61626c653a206e6577206f776e657220697320746865207a65726f206160008201527f6464726573730000000000000000000000000000000000000000000000000000602082015250565b6000611e14602683611906565b9150611e1f82611db8565b604082019050919050565b60006020820190508181036000830152611e4381611e07565b9050919050565b7f45524332303a206275726e2066726f6d20746865207a65726f2061646472657360008201527f7300000000000000000000000000000000000000000000000000000000000000602082015250565b6000611ea6602183611906565b9150611eb182611e4a565b604082019050919050565b60006020820190508181036000830152611ed581611e99565b9050919050565b7f45524332303a206275726e20616d6f756e7420657863656564732062616c616e60008201527f6365000000000000000000000000000000000000000000000000000000000000602082015250565b6000611f38602283611906565b9150611f4382611edc565b604082019050919050565b60006020820190508181036000830152611f6781611f2b565b9050919050565b6000611f7982611898565b9150611f8483611898565b925082821015611f9757611f96611ca1565b5b828203905092915050565b7f45524332303a20617070726f76652066726f6d20746865207a65726f2061646460008201527f7265737300000000000000000000000000000000000000000000000000000000602082015250565b6000611ffe602483611906565b915061200982611fa2565b604082019050919050565b6000602082019050818103600083015261202d81611ff1565b9050919050565b7f45524332303a20617070726f766520746f20746865207a65726f20616464726560008201527f7373000000000000000000000000000000000000000000000000000000000000602082015250565b6000612090602283611906565b915061209b82612034565b604082019050919050565b600060208201905081810360008301526120bf81612083565b9050919050565b7f4f776e61626c653a2063616c6c6572206973206e6f7420746865206f776e6572600082015250565b60006120fc602083611906565b9150612107826120c6565b602082019050919050565b6000602082019050818103600083015261212b816120ef565b9050919050565b7f45524332303a20696e73756666696369656e7420616c6c6f77616e6365000000600082015250565b6000612168601d83611906565b915061217382612132565b602082019050919050565b600060208201905081810360008301526121978161215b565b9050919050565b7f45524332303a207472616e736665722066726f6d20746865207a65726f20616460008201527f6472657373000000000000000000000000000000000000000000000000000000602082015250565b60006121fa602583611906565b91506122058261219e565b604082019050919050565b60006020820190508181036000830152612229816121ed565b9050919050565b7f45524332303a207472616e7366657220746f20746865207a65726f206164647260008201527f6573730000000000000000000000000000000000000000000000000000000000602082015250565b600061228c602383611906565b915061229782612230565b604082019050919050565b600060208201905081810360008301526122bb8161227f565b9050919050565b7f45524332303a207472616e7366657220616d6f756e742065786365656473206260008201527f616c616e63650000000000000000000000000000000000000000000000000000602082015250565b600061231e602683611906565b9150612329826122c2565b604082019050919050565b6000602082019050818103600083015261234d81612311565b9050919050565b7f45524332303a206d696e7420746f20746865207a65726f206164647265737300600082015250565b600061238a601f83611906565b915061239582612354565b602082019050919050565b600060208201905081810360008301526123b98161237d565b9050919050565b7f63616e6e6f74207265766f6b65206f776e20726f6c6500000000000000000000600082015250565b60006123f6601683611906565b9150612401826123c0565b602082019050919050565b60006020820190508181036000830152612425816123e9565b905091905056fea264697066735822122090eb2ccd4fc561146d56f75b2b90f92113cd105a5a736a5f634096db8e25bf9f64736f6c63430008090033",
  "linkReferences": {},
  "deployedLinkReferences": {}
}