{
  "_format": "hh-sol-artifact-1",
  "contractName": "ExampleTxAllowList",
  "sourceName": "contracts/ExampleTxAllowList.sol",
  "abi": [
    {
      "inputs": [],
      "stateMutability": "nonpayable",
      "type": "constructor"
    },
    {
      "anonymous": false,
      "inputs": [
        {
          "indexed": true,
          "internalType": "address",
          "name": "previousOwner",
          "type": "address"
        },
        {
          "indexed": true,
          "internalType": "address",
          "name": "newOwner",
          "type": "address"
        }
      ],
      "name": "OwnershipTransferred",
      "type": "event"
    },
    {
      "inputs": [],
      "name": "deployContract",
      "outputs": [],
      "stateMutability": "nonpayable",
      "type": "function"
    },
    {
      "inputs": [
        {
          "internalType": "address",
          "name": "addr",
          "type": "address"
        }
      ],
      "name": "isAdmin",
      "outputs": [
        {
          "internalType": "bool",
          "name": "",
          "type": "bool"
        }
      ],
      "stateMutability": "view",
      "type": "function"
    },
    {
      "inputs": [
        {
          "internalType": "address",
          "name": "addr",
          "type": "address"
        }
      ],
      "name": "isEnabled",
      "outputs": [
        {
          "internalType": "bool",
          "name": "",
          "type": "bool"
        }
      ],
      "stateMutability": "view",
      "type": "function"
    },
    {
      "inputs": [],
      "name": "owner",
      "outputs": [
        {
          "internalType": "address",
          "name": "",
          "type": "address"
        }
      ],
      "stateMutability": "view",
      "type": "function"
    },
    {
      "inputs": [],
      "name": "renounceOwnership",
      "outputs": [],
      "stateMutability": "nonpayable",
      "type": "function"
    },
    {
      "inputs": [
        {
          "internalType": "address",
          "name": "addr",
          "type": "address"
        }
      ],
      "name": "revoke",
      "outputs": [],
      "stateMutability": "nonpayable",
      "type": "function"
    },
    {
      "inputs": [
        {
          "internalType": "address",
          "name": "addr",
          "type": "address"
        }
      ],
      "name": "setAdmin",
      "outputs": [],
      "stateMutability": "nonpayable",
      "type": "function"
    },
    {
      "inputs": [
        {
          "internalType": "address",
          "name": "addr",
          "type": "address"
        }
      ],
      "name": "setEnabled",
      "outputs": [],
      "stateMutability": "nonpayable",
      "type": "function"
    },
    {
      "inputs": [
        {
          "internalType": "address",
          "name": "newOwner",
          "type": "address"
        }
      ],
      "name": "transferOwnership",
      "outputs": [],
      "stateMutability": "nonpayable",
      "type": "function"
    }
  ],
  "bytecode": "0x608060405234801561001057600080fd5b5073020000000000000000000000000000000000000261004261003761008960201b60201c565b61009160201b60201c565b80600160006101000a81548173ffffffffffffffffffffffffffffffffffffffff021916908373ffffffffffffffffffffffffffffffffffffffff16021790555050610155565b600033905090565b60008060009054906101000a900473ffffffffffffffffffffffffffffffffffffffff169050816000806101000a81548173ffffffffffffffffffffffffffffffffffffffff021916908373ffffffffffffffffffffffffffffffffffffffff1602179055508173ffffffffffffffffffffffffffffffffffffffff168173ffffffffffffffffffffffffffffffffffffffff167f8be0079c531659141344cd1fd0a4f28419497f9722a3daafe3b4186f6b6457e060405160405180910390a35050565b610ae0806101646000396000f3fe608060405234801561001057600080fd5b50600436106100935760003560e01c8063715018a611610066578063715018a61461010a57806374a8f103146101145780638da5cb5b146101305780639015d3711461014e578063f2fde38b1461017e57610093565b80630aaf70431461009857806324d7806c146100b45780636cd5c39b146100e4578063704b6c02146100ee575b600080fd5b6100b260048036038101906100ad91906107db565b61019a565b005b6100ce60048036038101906100c991906107db565b6101ae565b6040516100db919061094c565b60405180910390f35b6100ec61026a565b005b610108600480360381019061010391906107db565b610296565b005b6101126102aa565b005b61012e600480360381019061012991906107db565b6102be565b005b6101386102d2565b6040516101459190610931565b60405180910390f35b610168600480360381019061016391906107db565b6102fb565b604051610175919061094c565b60405180910390f35b610198600480360381019061019391906107db565b6103b8565b005b6101a261043c565b6101ab816104ba565b50565b600080600160009054906101000a900473ffffffffffffffffffffffffffffffffffffffff1673ffffffffffffffffffffffffffffffffffffffff1663eb54dae1846040518263ffffffff1660e01b815260040161020c9190610931565b60206040518083038186803b15801561022457600080fd5b505afa158015610238573d6000803e3d6000fd5b505050506040513d601f19601f8201168201806040525081019061025c9190610804565b905060028114915050919050565b604051610276906107a5565b604051809103906000f080158015610292573d6000803e3d6000fd5b5050565b61029e61043c565b6102a78161054a565b50565b6102b261043c565b6102bc60006105da565b565b6102c661043c565b6102cf8161069e565b50565b60008060009054906101000a900473ffffffffffffffffffffffffffffffffffffffff16905090565b600080600160009054906101000a900473ffffffffffffffffffffffffffffffffffffffff1673ffffffffffffffffffffffffffffffffffffffff1663eb54dae1846040518263ffffffff1660e01b81526004016103599190610931565b60206040518083038186803b15801561037157600080fd5b505afa158015610385573d6000803e3d6000fd5b505050506040513d601f19601f820116820180604052508101906103a99190610804565b90506000811415915050919050565b6103c061043c565b600073ffffffffffffffffffffffffffffffffffffffff168173ffffffffffffffffffffffffffffffffffffffff161415610430576040517f08c379a000000000000000000000000000000000000000000000000000000000815260040161042790610967565b60405180910390fd5b610439816105da565b50565b61044461079d565b73ffffffffffffffffffffffffffffffffffffffff166104626102d2565b73ffffffffffffffffffffffffffffffffffffffff16146104b8576040517f08c379a00000000000000000000000000000000000000000000000000000000081526004016104af90610987565b60405180910390fd5b565b600160009054906101000a900473ffffffffffffffffffffffffffffffffffffffff1673ffffffffffffffffffffffffffffffffffffffff16630aaf7043826040518263ffffffff1660e01b81526004016105159190610931565b600060405180830381600087803b15801561052f57600080fd5b505af1158015610543573d6000803e3d6000fd5b5050505050565b600160009054906101000a900473ffffffffffffffffffffffffffffffffffffffff1673ffffffffffffffffffffffffffffffffffffffff1663704b6c02826040518263ffffffff1660e01b81526004016105a59190610931565b600060405180830381600087803b1580156105bf57600080fd5b505af11580156105d3573d6000803e3d6000fd5b5050505050565b60008060009054906101000a900473ffffffffffffffffffffffffffffffffffffffff169050816000806101000a81548173ffffffffffffffffffffffffffffffffffffffff021916908373ffffffffffffffffffffffffffffffffffffffff1602179055508173ffffffffffffffffffffffffffffffffffffffff168173ffffffffffffffffffffffffffffffffffffffff167f8be0079c531659141344cd1fd0a4f28419497f9722a3daafe3b4186f6b6457e060405160405180910390a35050565b8073ffffffffffffffffffffffffffffffffffffffff163373ffffffffffffffffffffffffffffffffffffffff16141561070d576040517f08c379a0000000000000000000000000000000000000000000000000000000008152600401610704906109a7565b60405180910390fd5b600160009054906101000a900473ffffffffffffffffffffffffffffffffffffffff1673ffffffffffffffffffffffffffffffffffffffff16638c6bfb3b826040518263ffffffff1660e01b81526004016107689190610931565b600060405180830381600087803b15801561078257600080fd5b505af1158015610796573d6000803e3d6000fd5b5050505050565b600033905090565b605c80610a4f83390190565b6000813590506107c081610a20565b92915050565b6000815190506107d581610a37565b92915050565b6000602082840312156107ed57600080fd5b60006107fb848285016107b1565b91505092915050565b60006020828403121561081657600080fd5b6000610824848285016107c6565b91505092915050565b610836816109d8565b82525050565b610845816109ea565b82525050565b60006108586026836109c7565b91507f4f776e61626c653a206e6577206f776e657220697320746865207a65726f206160008301527f64647265737300000000000000000000000000000000000000000000000000006020830152604082019050919050565b60006108be6020836109c7565b91507f4f776e61626c653a2063616c6c6572206973206e6f7420746865206f776e65726000830152602082019050919050565b60006108fe6016836109c7565b91507f63616e6e6f74207265766f6b65206f776e20726f6c65000000000000000000006000830152602082019050919050565b6000602082019050610946600083018461082d565b92915050565b6000602082019050610961600083018461083c565b92915050565b600060208201905081810360008301526109808161084b565b9050919050565b600060208201905081810360008301526109a0816108b1565b9050919050565b600060208201905081810360008301526109c0816108f1565b9050919050565b600082825260208201905092915050565b60006109e3826109f6565b9050919050565b60008115159050919050565b600073ffffffffffffffffffffffffffffffffffffffff82169050919050565b6000819050919050565b610a29816109d8565b8114610a3457600080fd5b50565b610a4081610a16565b8114610a4b57600080fd5b5056fe6080604052348015600f57600080fd5b50603f80601d6000396000f3fe6080604052600080fdfea2646970667358221220fdd7e8350c527b1f156f13f30cb40003f68ccf39a4eca38301bd71e0c178f76764736f6c63430008000033a2646970667358221220b606707ec1a11966d821db85cc3de9853d08ea233360b8e3cfa24a004decdcaa64736f6c63430008000033",
  "linkReferences": {},
  "deployedLinkReferences": {}
}