{
  "_format": "hh-sol-artifact-1",
  "contractName": "GenesisTUP",
  "sourceName": "contracts/hubble-v2/GenesisTUP.sol",
  "abi": [
    {
      "inputs": [],
      "stateMutability": "nonpayable",
      "type": "constructor"
    },
    {
      "anonymous": false,
      "inputs": [
        {
          "indexed": false,
          "internalType": "address",
          "name": "previousAdmin",
          "type": "address"
        },
        {
          "indexed": false,
          "internalType": "address",
          "name": "newAdmin",
          "type": "address"
        }
      ],
      "name": "AdminChanged",
      "type": "event"
    },
    {
      "anonymous": false,
      "inputs": [
        {
          "indexed": true,
          "internalType": "address",
          "name": "beacon",
          "type": "address"
        }
      ],
      "name": "BeaconUpgraded",
      "type": "event"
    },
    {
      "anonymous": false,
      "inputs": [
        {
          "indexed": true,
          "internalType": "address",
          "name": "implementation",
          "type": "address"
        }
      ],
      "name": "Upgraded",
      "type": "event"
    },
    {
      "stateMutability": "payable",
      "type": "fallback"
    },
    {
      "inputs": [],
      "name": "admin",
      "outputs": [
        {
          "internalType": "address",
          "name": "admin_",
          "type": "address"
        }
      ],
      "stateMutability": "nonpayable",
      "type": "function"
    },
    {
      "inputs": [
        {
          "internalType": "address",
          "name": "newAdmin",
          "type": "address"
        }
      ],
      "name": "changeAdmin",
      "outputs": [],
      "stateMutability": "nonpayable",
      "type": "function"
    },
    {
      "inputs": [],
      "name": "implementation",
      "outputs": [
        {
          "internalType": "address",
          "name": "implementation_",
          "type": "address"
        }
      ],
      "stateMutability": "nonpayable",
      "type": "function"
    },
    {
      "inputs": [
        {
          "internalType": "address",
          "name": "admin_",
          "type": "address"
        }
      ],
      "name": "init",
      "outputs": [],
      "stateMutability": "nonpayable",
      "type": "function"
    },
    {
      "inputs": [
        {
          "internalType": "address",
          "name": "newImplementation",
          "type": "address"
        }
      ],
      "name": "upgradeTo",
      "outputs": [],
      "stateMutability": "nonpayable",
      "type": "function"
    },
    {
      "inputs": [
        {
          "internalType": "address",
          "name": "newImplementation",
          "type": "address"
        },
        {
          "internalType": "bytes",
          "name": "data",
          "type": "bytes"
        }
      ],
      "name": "upgradeToAndCall",
      "outputs": [],
      "stateMutability": "payable",
      "type": "function"
    },
    {
      "stateMutability": "payable",
      "type": "receive"
    }
  ],
  "bytecode": "0x60806040523480156200001157600080fd5b506000806040518060200160405280600081525082816200003b828260006200005760201b60201c565b50506200004e826200009a60201b60201c565b50505062000895565b6200006883620000f860201b60201c565b600082511180620000765750805b1562000095576200009383836200014f60201b6200038f1760201c565b505b505050565b7f7e644d79422f17c01e4894b5f4f588d331ebfa28653d42ae832dc59e38c9798f620000cb6200018560201b60201c565b82604051620000dc92919062000572565b60405180910390a1620000f581620001e960201b60201c565b50565b6200010981620002da60201b60201c565b8073ffffffffffffffffffffffffffffffffffffffff167fbc7cd75a20ee27fd9adebab32041f755214dbc6bffa90cc0225b39da2e5c2d3b60405160405180910390a250565b60606200017d83836040518060600160405280602781526020016200171960279139620003b060201b60201c565b905092915050565b6000620001c07fb53127684a568b3173ae13b9f8a6016e243e63b6e8ee1178d6a717850b5d610360001b6200049460201b620003bc1760201c565b60000160009054906101000a900473ffffffffffffffffffffffffffffffffffffffff16905090565b600073ffffffffffffffffffffffffffffffffffffffff168173ffffffffffffffffffffffffffffffffffffffff1614156200025c576040517f08c379a0000000000000000000000000000000000000000000000000000000008152600401620002539062000626565b60405180910390fd5b80620002967fb53127684a568b3173ae13b9f8a6016e243e63b6e8ee1178d6a717850b5d610360001b6200049460201b620003bc1760201c565b60000160006101000a81548173ffffffffffffffffffffffffffffffffffffffff021916908373ffffffffffffffffffffffffffffffffffffffff16021790555050565b620002f0816200049e60201b620003c61760201c565b62000332576040517f08c379a00000000000000000000000000000000000000000000000000000000081526004016200032990620006be565b60405180910390fd5b806200036c7f360894a13ba1a3210667c828492db98dca3e2076cc3735a920a3ca505d382bbc60001b6200049460201b620003bc1760201c565b60000160006101000a81548173ffffffffffffffffffffffffffffffffffffffff021916908373ffffffffffffffffffffffffffffffffffffffff16021790555050565b6060620003c3846200049e60201b60201c565b62000405576040517f08c379a0000000000000000000000000000000000000000000000000000000008152600401620003fc9062000756565b60405180910390fd5b6000808573ffffffffffffffffffffffffffffffffffffffff16856040516200042f9190620007fb565b600060405180830381855af49150503d80600081146200046c576040519150601f19603f3d011682016040523d82523d6000602084013e62000471565b606091505b509150915062000489828286620004c160201b60201c565b925050509392505050565b6000819050919050565b6000808273ffffffffffffffffffffffffffffffffffffffff163b119050919050565b60608315620004d35782905062000526565b600083511115620004e75782518084602001fd5b816040517f08c379a00000000000000000000000000000000000000000000000000000000081526004016200051d919062000871565b60405180910390fd5b9392505050565b600073ffffffffffffffffffffffffffffffffffffffff82169050919050565b60006200055a826200052d565b9050919050565b6200056c816200054d565b82525050565b600060408201905062000589600083018562000561565b62000598602083018462000561565b9392505050565b600082825260208201905092915050565b7f455243313936373a206e65772061646d696e20697320746865207a65726f206160008201527f6464726573730000000000000000000000000000000000000000000000000000602082015250565b60006200060e6026836200059f565b91506200061b82620005b0565b604082019050919050565b600060208201905081810360008301526200064181620005ff565b9050919050565b7f455243313936373a206e657720696d706c656d656e746174696f6e206973206e60008201527f6f74206120636f6e747261637400000000000000000000000000000000000000602082015250565b6000620006a6602d836200059f565b9150620006b38262000648565b604082019050919050565b60006020820190508181036000830152620006d98162000697565b9050919050565b7f416464726573733a2064656c65676174652063616c6c20746f206e6f6e2d636f60008201527f6e74726163740000000000000000000000000000000000000000000000000000602082015250565b60006200073e6026836200059f565b91506200074b82620006e0565b604082019050919050565b6000602082019050818103600083015262000771816200072f565b9050919050565b600081519050919050565b600081905092915050565b60005b83811015620007ae57808201518184015260208101905062000791565b83811115620007be576000848401525b50505050565b6000620007d18262000778565b620007dd818562000783565b9350620007ef8185602086016200078e565b80840191505092915050565b6000620008098284620007c4565b915081905092915050565b600081519050919050565b6000601f19601f8301169050919050565b60006200083d8262000814565b6200084981856200059f565b93506200085b8185602086016200078e565b62000866816200081f565b840191505092915050565b600060208201905081810360008301526200088d818462000830565b905092915050565b610e7480620008a56000396000f3fe6080604052600436106100595760003560e01c806319ab453c146100725780633659cfe61461009b5780634f1ef286146100c45780635c60da1b146100e05780638f2839701461010b578063f851a4401461013457610068565b366100685761006661015f565b005b61007061015f565b005b34801561007e57600080fd5b506100996004803603810190610094919061094b565b610179565b005b3480156100a757600080fd5b506100c260048036038101906100bd919061094b565b610185565b005b6100de60048036038101906100d991906109dd565b6101ec565b005b3480156100ec57600080fd5b506100f561028a565b6040516101029190610a4c565b60405180910390f35b34801561011757600080fd5b50610132600480360381019061012d919061094b565b6102e2565b005b34801561014057600080fd5b50610149610337565b6040516101569190610a4c565b60405180910390f35b6101676103e9565b610177610172610469565b610478565b565b6101828161049e565b50565b61018d6104ea565b73ffffffffffffffffffffffffffffffffffffffff163373ffffffffffffffffffffffffffffffffffffffff1614156101e0576101db81604051806020016040528060008152506000610541565b6101e9565b6101e861015f565b5b50565b6101f46104ea565b73ffffffffffffffffffffffffffffffffffffffff163373ffffffffffffffffffffffffffffffffffffffff16141561027c576102778383838080601f016020809104026020016040519081016040528093929190818152602001838380828437600081840152601f19601f820116905080830192505050505050506001610541565b610285565b61028461015f565b5b505050565b60006102946104ea565b73ffffffffffffffffffffffffffffffffffffffff163373ffffffffffffffffffffffffffffffffffffffff1614156102d6576102cf610469565b90506102df565b6102de61015f565b5b90565b6102ea6104ea565b73ffffffffffffffffffffffffffffffffffffffff163373ffffffffffffffffffffffffffffffffffffffff16141561032b576103268161049e565b610334565b61033361015f565b5b50565b60006103416104ea565b73ffffffffffffffffffffffffffffffffffffffff163373ffffffffffffffffffffffffffffffffffffffff1614156103835761037c6104ea565b905061038c565b61038b61015f565b5b90565b60606103b48383604051806060016040528060278152602001610e186027913961056d565b905092915050565b6000819050919050565b6000808273ffffffffffffffffffffffffffffffffffffffff163b119050919050565b6103f16104ea565b73ffffffffffffffffffffffffffffffffffffffff163373ffffffffffffffffffffffffffffffffffffffff16141561045f576040517f08c379a000000000000000000000000000000000000000000000000000000000815260040161045690610b10565b60405180910390fd5b61046761063a565b565b600061047361063c565b905090565b3660008037600080366000845af43d6000803e8060008114610499573d6000f35b3d6000fd5b7f7e644d79422f17c01e4894b5f4f588d331ebfa28653d42ae832dc59e38c9798f6104c76104ea565b826040516104d6929190610b30565b60405180910390a16104e781610693565b50565b60006105187fb53127684a568b3173ae13b9f8a6016e243e63b6e8ee1178d6a717850b5d610360001b6103bc565b60000160009054906101000a900473ffffffffffffffffffffffffffffffffffffffff16905090565b61054a83610774565b6000825111806105575750805b1561056857610566838361038f565b505b505050565b6060610578846103c6565b6105b7576040517f08c379a00000000000000000000000000000000000000000000000000000000081526004016105ae90610bcb565b60405180910390fd5b6000808573ffffffffffffffffffffffffffffffffffffffff16856040516105df9190610c65565b600060405180830381855af49150503d806000811461061a576040519150601f19603f3d011682016040523d82523d6000602084013e61061f565b606091505b509150915061062f8282866107c3565b925050509392505050565b565b600061066a7f360894a13ba1a3210667c828492db98dca3e2076cc3735a920a3ca505d382bbc60001b6103bc565b60000160009054906101000a900473ffffffffffffffffffffffffffffffffffffffff16905090565b600073ffffffffffffffffffffffffffffffffffffffff168173ffffffffffffffffffffffffffffffffffffffff161415610703576040517f08c379a00000000000000000000000000000000000000000000000000000000081526004016106fa90610cee565b60405180910390fd5b806107307fb53127684a568b3173ae13b9f8a6016e243e63b6e8ee1178d6a717850b5d610360001b6103bc565b60000160006101000a81548173ffffffffffffffffffffffffffffffffffffffff021916908373ffffffffffffffffffffffffffffffffffffffff16021790555050565b61077d8161082a565b8073ffffffffffffffffffffffffffffffffffffffff167fbc7cd75a20ee27fd9adebab32041f755214dbc6bffa90cc0225b39da2e5c2d3b60405160405180910390a250565b606083156107d357829050610823565b6000835111156107e65782518084602001fd5b816040517f08c379a000000000000000000000000000000000000000000000000000000000815260040161081a9190610d63565b60405180910390fd5b9392505050565b610833816103c6565b610872576040517f08c379a000000000000000000000000000000000000000000000000000000000815260040161086990610df7565b60405180910390fd5b8061089f7f360894a13ba1a3210667c828492db98dca3e2076cc3735a920a3ca505d382bbc60001b6103bc565b60000160006101000a81548173ffffffffffffffffffffffffffffffffffffffff021916908373ffffffffffffffffffffffffffffffffffffffff16021790555050565b600080fd5b600080fd5b600073ffffffffffffffffffffffffffffffffffffffff82169050919050565b6000610918826108ed565b9050919050565b6109288161090d565b811461093357600080fd5b50565b6000813590506109458161091f565b92915050565b600060208284031215610961576109606108e3565b5b600061096f84828501610936565b91505092915050565b600080fd5b600080fd5b600080fd5b60008083601f84011261099d5761099c610978565b5b8235905067ffffffffffffffff8111156109ba576109b961097d565b5b6020830191508360018202830111156109d6576109d5610982565b5b9250929050565b6000806000604084860312156109f6576109f56108e3565b5b6000610a0486828701610936565b935050602084013567ffffffffffffffff811115610a2557610a246108e8565b5b610a3186828701610987565b92509250509250925092565b610a468161090d565b82525050565b6000602082019050610a616000830184610a3d565b92915050565b600082825260208201905092915050565b7f5472616e73706172656e745570677261646561626c6550726f78793a2061646d60008201527f696e2063616e6e6f742066616c6c6261636b20746f2070726f7879207461726760208201527f6574000000000000000000000000000000000000000000000000000000000000604082015250565b6000610afa604283610a67565b9150610b0582610a78565b606082019050919050565b60006020820190508181036000830152610b2981610aed565b9050919050565b6000604082019050610b456000830185610a3d565b610b526020830184610a3d565b9392505050565b7f416464726573733a2064656c65676174652063616c6c20746f206e6f6e2d636f60008201527f6e74726163740000000000000000000000000000000000000000000000000000602082015250565b6000610bb5602683610a67565b9150610bc082610b59565b604082019050919050565b60006020820190508181036000830152610be481610ba8565b9050919050565b600081519050919050565b600081905092915050565b60005b83811015610c1f578082015181840152602081019050610c04565b83811115610c2e576000848401525b50505050565b6000610c3f82610beb565b610c498185610bf6565b9350610c59818560208601610c01565b80840191505092915050565b6000610c718284610c34565b915081905092915050565b7f455243313936373a206e65772061646d696e20697320746865207a65726f206160008201527f6464726573730000000000000000000000000000000000000000000000000000602082015250565b6000610cd8602683610a67565b9150610ce382610c7c565b604082019050919050565b60006020820190508181036000830152610d0781610ccb565b9050919050565b600081519050919050565b6000601f19601f8301169050919050565b6000610d3582610d0e565b610d3f8185610a67565b9350610d4f818560208601610c01565b610d5881610d19565b840191505092915050565b60006020820190508181036000830152610d7d8184610d2a565b905092915050565b7f455243313936373a206e657720696d706c656d656e746174696f6e206973206e60008201527f6f74206120636f6e747261637400000000000000000000000000000000000000602082015250565b6000610de1602d83610a67565b9150610dec82610d85565b604082019050919050565b60006020820190508181036000830152610e1081610dd4565b905091905056fe416464726573733a206c6f772d6c6576656c2064656c65676174652063616c6c206661696c6564a264697066735822122088821151a939c450b7690b418888baef554d86a8e8e7e8ed066f5baf9041bda064736f6c63430008090033416464726573733a206c6f772d6c6576656c2064656c65676174652063616c6c206661696c6564",
  "linkReferences": {},
  "deployedLinkReferences": {}
}