{
  "_format": "hh-sol-artifact-1",
  "contractName": "AllowList",
  "sourceName": "contracts/AllowList.sol",
  "abi": [
    {
      "inputs": [
        {
          "internalType": "address",
          "name": "precompileAddr",
          "type": "address"
        }
      ],
      "stateMutability": "nonpayable",
      "type": "constructor"
    },
    {
      "anonymous": false,
      "inputs": [
        {
          "indexed": true,
          "internalType": "address",
          "name": "previousOwner",
          "type": "address"
        },
        {
          "indexed": true,
          "internalType": "address",
          "name": "newOwner",
          "type": "address"
        }
      ],
      "name": "OwnershipTransferred",
      "type": "event"
    },
    {
      "inputs": [
        {
          "internalType": "address",
          "name": "addr",
          "type": "address"
        }
      ],
      "name": "isAdmin",
      "outputs": [
        {
          "internalType": "bool",
          "name": "",
          "type": "bool"
        }
      ],
      "stateMutability": "view",
      "type": "function"
    },
    {
      "inputs": [
        {
          "internalType": "address",
          "name": "addr",
          "type": "address"
        }
      ],
      "name": "isEnabled",
      "outputs": [
        {
          "internalType": "bool",
          "name": "",
          "type": "bool"
        }
      ],
      "stateMutability": "view",
      "type": "function"
    },
    {
      "inputs": [],
      "name": "owner",
      "outputs": [
        {
          "internalType": "address",
          "name": "",
          "type": "address"
        }
      ],
      "stateMutability": "view",
      "type": "function"
    },
    {
      "inputs": [],
      "name": "renounceOwnership",
      "outputs": [],
      "stateMutability": "nonpayable",
      "type": "function"
    },
    {
      "inputs": [
        {
          "internalType": "address",
          "name": "addr",
          "type": "address"
        }
      ],
      "name": "revoke",
      "outputs": [],
      "stateMutability": "nonpayable",
      "type": "function"
    },
    {
      "inputs": [
        {
          "internalType": "address",
          "name": "addr",
          "type": "address"
        }
      ],
      "name": "setAdmin",
      "outputs": [],
      "stateMutability": "nonpayable",
      "type": "function"
    },
    {
      "inputs": [
        {
          "internalType": "address",
          "name": "addr",
          "type": "address"
        }
      ],
      "name": "setEnabled",
      "outputs": [],
      "stateMutability": "nonpayable",
      "type": "function"
    },
    {
      "inputs": [
        {
          "internalType": "address",
          "name": "newOwner",
          "type": "address"
        }
      ],
      "name": "transferOwnership",
      "outputs": [],
      "stateMutability": "nonpayable",
      "type": "function"
    }
  ],
  "bytecode": "0x608060405234801561001057600080fd5b50604051610c68380380610c68833981810160405281019061003291906101c4565b61004e61004361009560201b60201c565b61009d60201b60201c565b80600160006101000a81548173ffffffffffffffffffffffffffffffffffffffff021916908373ffffffffffffffffffffffffffffffffffffffff160217905550506101f1565b600033905090565b60008060009054906101000a900473ffffffffffffffffffffffffffffffffffffffff169050816000806101000a81548173ffffffffffffffffffffffffffffffffffffffff021916908373ffffffffffffffffffffffffffffffffffffffff1602179055508173ffffffffffffffffffffffffffffffffffffffff168173ffffffffffffffffffffffffffffffffffffffff167f8be0079c531659141344cd1fd0a4f28419497f9722a3daafe3b4186f6b6457e060405160405180910390a35050565b600080fd5b600073ffffffffffffffffffffffffffffffffffffffff82169050919050565b600061019182610166565b9050919050565b6101a181610186565b81146101ac57600080fd5b50565b6000815190506101be81610198565b92915050565b6000602082840312156101da576101d9610161565b5b60006101e8848285016101af565b91505092915050565b610a68806102006000396000f3fe608060405234801561001057600080fd5b50600436106100885760003560e01c806374a8f1031161005b57806374a8f103146100ff5780638da5cb5b1461011b5780639015d37114610139578063f2fde38b1461016957610088565b80630aaf70431461008d57806324d7806c146100a9578063704b6c02146100d9578063715018a6146100f5575b600080fd5b6100a760048036038101906100a291906107c7565b610185565b005b6100c360048036038101906100be91906107c7565b610199565b6040516100d0919061080f565b60405180910390f35b6100f360048036038101906100ee91906107c7565b610255565b005b6100fd610269565b005b610119600480360381019061011491906107c7565b61027d565b005b610123610291565b6040516101309190610839565b60405180910390f35b610153600480360381019061014e91906107c7565b6102ba565b604051610160919061080f565b60405180910390f35b610183600480360381019061017e91906107c7565b610377565b005b61018d6103fb565b61019681610479565b50565b600080600160009054906101000a900473ffffffffffffffffffffffffffffffffffffffff1673ffffffffffffffffffffffffffffffffffffffff1663eb54dae1846040518263ffffffff1660e01b81526004016101f79190610839565b60206040518083038186803b15801561020f57600080fd5b505afa158015610223573d6000803e3d6000fd5b505050506040513d601f19601f82011682018060405250810190610247919061088a565b905060028114915050919050565b61025d6103fb565b61026681610509565b50565b6102716103fb565b61027b6000610599565b565b6102856103fb565b61028e8161065d565b50565b60008060009054906101000a900473ffffffffffffffffffffffffffffffffffffffff16905090565b600080600160009054906101000a900473ffffffffffffffffffffffffffffffffffffffff1673ffffffffffffffffffffffffffffffffffffffff1663eb54dae1846040518263ffffffff1660e01b81526004016103189190610839565b60206040518083038186803b15801561033057600080fd5b505afa158015610344573d6000803e3d6000fd5b505050506040513d601f19601f82011682018060405250810190610368919061088a565b90506000811415915050919050565b61037f6103fb565b600073ffffffffffffffffffffffffffffffffffffffff168173ffffffffffffffffffffffffffffffffffffffff1614156103ef576040517f08c379a00000000000000000000000000000000000000000000000000000000081526004016103e69061093a565b60405180910390fd5b6103f881610599565b50565b61040361075c565b73ffffffffffffffffffffffffffffffffffffffff16610421610291565b73ffffffffffffffffffffffffffffffffffffffff1614610477576040517f08c379a000000000000000000000000000000000000000000000000000000000815260040161046e906109a6565b60405180910390fd5b565b600160009054906101000a900473ffffffffffffffffffffffffffffffffffffffff1673ffffffffffffffffffffffffffffffffffffffff16630aaf7043826040518263ffffffff1660e01b81526004016104d49190610839565b600060405180830381600087803b1580156104ee57600080fd5b505af1158015610502573d6000803e3d6000fd5b5050505050565b600160009054906101000a900473ffffffffffffffffffffffffffffffffffffffff1673ffffffffffffffffffffffffffffffffffffffff1663704b6c02826040518263ffffffff1660e01b81526004016105649190610839565b600060405180830381600087803b15801561057e57600080fd5b505af1158015610592573d6000803e3d6000fd5b5050505050565b60008060009054906101000a900473ffffffffffffffffffffffffffffffffffffffff169050816000806101000a81548173ffffffffffffffffffffffffffffffffffffffff021916908373ffffffffffffffffffffffffffffffffffffffff1602179055508173ffffffffffffffffffffffffffffffffffffffff168173ffffffffffffffffffffffffffffffffffffffff167f8be0079c531659141344cd1fd0a4f28419497f9722a3daafe3b4186f6b6457e060405160405180910390a35050565b8073ffffffffffffffffffffffffffffffffffffffff163373ffffffffffffffffffffffffffffffffffffffff1614156106cc576040517f08c379a00000000000000000000000000000000000000000000000000000000081526004016106c390610a12565b60405180910390fd5b600160009054906101000a900473ffffffffffffffffffffffffffffffffffffffff1673ffffffffffffffffffffffffffffffffffffffff16638c6bfb3b826040518263ffffffff1660e01b81526004016107279190610839565b600060405180830381600087803b15801561074157600080fd5b505af1158015610755573d6000803e3d6000fd5b5050505050565b600033905090565b600080fd5b600073ffffffffffffffffffffffffffffffffffffffff82169050919050565b600061079482610769565b9050919050565b6107a481610789565b81146107af57600080fd5b50565b6000813590506107c18161079b565b92915050565b6000602082840312156107dd576107dc610764565b5b60006107eb848285016107b2565b91505092915050565b60008115159050919050565b610809816107f4565b82525050565b60006020820190506108246000830184610800565b92915050565b61083381610789565b82525050565b600060208201905061084e600083018461082a565b92915050565b6000819050919050565b61086781610854565b811461087257600080fd5b50565b6000815190506108848161085e565b92915050565b6000602082840312156108a05761089f610764565b5b60006108ae84828501610875565b91505092915050565b600082825260208201905092915050565b7f4f776e61626c653a206e6577206f776e657220697320746865207a65726f206160008201527f6464726573730000000000000000000000000000000000000000000000000000602082015250565b60006109246026836108b7565b915061092f826108c8565b604082019050919050565b6000602082019050818103600083015261095381610917565b9050919050565b7f4f776e61626c653a2063616c6c6572206973206e6f7420746865206f776e6572600082015250565b60006109906020836108b7565b915061099b8261095a565b602082019050919050565b600060208201905081810360008301526109bf81610983565b9050919050565b7f63616e6e6f74207265766f6b65206f776e20726f6c6500000000000000000000600082015250565b60006109fc6016836108b7565b9150610a07826109c6565b602082019050919050565b60006020820190508181036000830152610a2b816109ef565b905091905056fea2646970667358221220bb28bc9d0a0e04b769904d0a0365d710f337c0a7b0a9450f25d9f6fc5270f10b64736f6c63430008090033",
  "linkReferences": {},
  "deployedLinkReferences": {}
}