{
  "_format": "hh-sol-artifact-1",
  "contractName": "ClearingHouse",
  "sourceName": "contracts/ClearingHouse.sol",
  "abi": [
    {
      "inputs": [
        {
          "internalType": "address",
          "name": "_trustedForwarder",
          "type": "address"
        }
      ],
      "stateMutability": "nonpayable",
      "type": "constructor"
    },
    {
      "anonymous": false,
      "inputs": [
        {
          "indexed": true,
          "internalType": "address",
          "name": "trader",
          "type": "address"
        },
        {
          "indexed": true,
          "internalType": "uint256",
          "name": "idx",
          "type": "uint256"
        },
        {
          "indexed": false,
          "internalType": "int256",
          "name": "takerFundingPayment",
          "type": "int256"
        },
        {
          "indexed": false,
          "internalType": "int256",
          "name": "cumulativePremiumFraction",
          "type": "int256"
        }
      ],
      "name": "FundingPaid",
      "type": "event"
    },
    {
      "anonymous": false,
      "inputs": [
        {
          "indexed": true,
          "internalType": "uint256",
          "name": "idx",
          "type": "uint256"
        },
        {
          "indexed": false,
          "internalType": "int256",
          "name": "premiumFraction",
          "type": "int256"
        },
        {
          "indexed": false,
          "internalType": "uint256",
          "name": "underlyingPrice",
          "type": "uint256"
        },
        {
          "indexed": false,
          "internalType": "int256",
          "name": "cumulativePremiumFraction",
          "type": "int256"
        },
        {
          "indexed": false,
          "internalType": "uint256",
          "name": "nextFundingTime",
          "type": "uint256"
        },
        {
          "indexed": false,
          "internalType": "uint256",
          "name": "timestamp",
          "type": "uint256"
        },
        {
          "indexed": false,
          "internalType": "uint256",
          "name": "blockNumber",
          "type": "uint256"
        }
      ],
      "name": "FundingRateUpdated",
      "type": "event"
    },
    {
      "anonymous": false,
      "inputs": [
        {
          "indexed": true,
          "internalType": "uint256",
          "name": "idx",
          "type": "uint256"
        },
        {
          "indexed": true,
          "internalType": "address",
          "name": "amm",
          "type": "address"
        }
      ],
      "name": "MarketAdded",
      "type": "event"
    },
    {
      "anonymous": false,
      "inputs": [
        {
          "indexed": false,
          "internalType": "address",
          "name": "account",
          "type": "address"
        }
      ],
      "name": "Paused",
      "type": "event"
    },
    {
      "anonymous": false,
      "inputs": [
        {
          "indexed": true,
          "internalType": "address",
          "name": "trader",
          "type": "address"
        },
        {
          "indexed": true,
          "internalType": "uint256",
          "name": "idx",
          "type": "uint256"
        },
        {
          "indexed": false,
          "internalType": "int256",
          "name": "baseAsset",
          "type": "int256"
        },
        {
          "indexed": false,
          "internalType": "uint256",
          "name": "quoteAsset",
          "type": "uint256"
        },
        {
          "indexed": false,
          "internalType": "int256",
          "name": "realizedPnl",
          "type": "int256"
        },
        {
          "indexed": false,
          "internalType": "int256",
          "name": "size",
          "type": "int256"
        },
        {
          "indexed": false,
          "internalType": "uint256",
          "name": "openNotional",
          "type": "uint256"
        },
        {
          "indexed": false,
          "internalType": "uint256",
          "name": "timestamp",
          "type": "uint256"
        }
      ],
      "name": "PositionLiquidated",
      "type": "event"
    },
    {
      "anonymous": false,
      "inputs": [
        {
          "indexed": true,
          "internalType": "address",
          "name": "trader",
          "type": "address"
        },
        {
          "indexed": true,
          "internalType": "uint256",
          "name": "idx",
          "type": "uint256"
        },
        {
          "indexed": false,
          "internalType": "int256",
          "name": "baseAsset",
          "type": "int256"
        },
        {
          "indexed": false,
          "internalType": "uint256",
          "name": "quoteAsset",
          "type": "uint256"
        },
        {
          "indexed": false,
          "internalType": "int256",
          "name": "realizedPnl",
          "type": "int256"
        },
        {
          "indexed": false,
          "internalType": "int256",
          "name": "size",
          "type": "int256"
        },
        {
          "indexed": false,
          "internalType": "uint256",
          "name": "openNotional",
          "type": "uint256"
        },
        {
          "indexed": false,
          "internalType": "uint256",
          "name": "timestamp",
          "type": "uint256"
        }
      ],
      "name": "PositionModified",
      "type": "event"
    },
    {
      "anonymous": false,
      "inputs": [
        {
          "indexed": true,
          "internalType": "address",
          "name": "referrer",
          "type": "address"
        },
        {
          "indexed": false,
          "internalType": "uint256",
          "name": "referralBonus",
          "type": "uint256"
        }
      ],
      "name": "ReferralBonusAdded",
      "type": "event"
    },
    {
      "anonymous": false,
      "inputs": [
        {
          "indexed": false,
          "internalType": "address",
          "name": "account",
          "type": "address"
        }
      ],
      "name": "Unpaused",
      "type": "event"
    },
    {
      "inputs": [
        {
          "internalType": "uint256",
          "name": "",
          "type": "uint256"
        }
      ],
      "name": "amms",
      "outputs": [
        {
          "internalType": "contract IAMM",
          "name": "",
          "type": "address"
        }
      ],
      "stateMutability": "view",
      "type": "function"
    },
    {
      "inputs": [
        {
          "internalType": "address",
          "name": "trader",
          "type": "address"
        }
      ],
      "name": "assertMarginRequirement",
      "outputs": [],
      "stateMutability": "view",
      "type": "function"
    },
    {
      "inputs": [
        {
          "internalType": "address",
          "name": "trader",
          "type": "address"
        },
        {
          "internalType": "bool",
          "name": "includeFundingPayments",
          "type": "bool"
        },
        {
          "internalType": "enum IClearingHouse.Mode",
          "name": "mode",
          "type": "uint8"
        }
      ],
      "name": "calcMarginFraction",
      "outputs": [
        {
          "internalType": "int256",
          "name": "",
          "type": "int256"
        }
      ],
      "stateMutability": "view",
      "type": "function"
    },
    {
      "inputs": [],
      "name": "feeSink",
      "outputs": [
        {
          "internalType": "address",
          "name": "",
          "type": "address"
        }
      ],
      "stateMutability": "view",
      "type": "function"
    },
    {
      "inputs": [],
      "name": "getAMMs",
      "outputs": [
        {
          "internalType": "contract IAMM[]",
          "name": "",
          "type": "address[]"
        }
      ],
      "stateMutability": "view",
      "type": "function"
    },
    {
      "inputs": [],
      "name": "getAmmsLength",
      "outputs": [
        {
          "internalType": "uint256",
          "name": "",
          "type": "uint256"
        }
      ],
      "stateMutability": "view",
      "type": "function"
    },
    {
      "inputs": [
        {
          "internalType": "address",
          "name": "trader",
          "type": "address"
        }
      ],
      "name": "getMarginFraction",
      "outputs": [
        {
          "internalType": "int256",
          "name": "",
          "type": "int256"
        }
      ],
      "stateMutability": "view",
      "type": "function"
    },
    {
      "inputs": [
        {
          "internalType": "address",
          "name": "trader",
          "type": "address"
        },
        {
          "internalType": "bool",
          "name": "includeFundingPayments",
          "type": "bool"
        },
        {
          "internalType": "enum IClearingHouse.Mode",
          "name": "mode",
          "type": "uint8"
        }
      ],
      "name": "getNotionalPositionAndMargin",
      "outputs": [
        {
          "internalType": "uint256",
          "name": "notionalPosition",
          "type": "uint256"
        },
        {
          "internalType": "int256",
          "name": "margin",
          "type": "int256"
        }
      ],
      "stateMutability": "view",
      "type": "function"
    },
    {
      "inputs": [
        {
          "internalType": "address",
          "name": "trader",
          "type": "address"
        }
      ],
      "name": "getTotalFunding",
      "outputs": [
        {
          "internalType": "int256",
          "name": "totalFunding",
          "type": "int256"
        }
      ],
      "stateMutability": "view",
      "type": "function"
    },
    {
      "inputs": [
        {
          "internalType": "address",
          "name": "trader",
          "type": "address"
        },
        {
          "internalType": "int256",
          "name": "margin",
          "type": "int256"
        },
        {
          "internalType": "enum IClearingHouse.Mode",
          "name": "mode",
          "type": "uint8"
        }
      ],
      "name": "getTotalNotionalPositionAndUnrealizedPnl",
      "outputs": [
        {
          "internalType": "uint256",
          "name": "notionalPosition",
          "type": "uint256"
        },
        {
          "internalType": "int256",
          "name": "unrealizedPnl",
          "type": "int256"
        }
      ],
      "stateMutability": "view",
      "type": "function"
    },
    {
      "inputs": [],
      "name": "governance",
      "outputs": [
        {
          "internalType": "address",
          "name": "",
          "type": "address"
        }
      ],
      "stateMutability": "view",
      "type": "function"
    },
    {
      "inputs": [],
      "name": "hubbleReferral",
      "outputs": [
        {
          "internalType": "contract IHubbleReferral",
          "name": "",
          "type": "address"
        }
      ],
      "stateMutability": "view",
      "type": "function"
    },
    {
      "inputs": [
        {
          "internalType": "address",
          "name": "_governance",
          "type": "address"
        },
        {
          "internalType": "address",
          "name": "_feeSink",
          "type": "address"
        },
        {
          "internalType": "address",
          "name": "_marginAccount",
          "type": "address"
        },
        {
          "internalType": "address",
          "name": "_orderBook",
          "type": "address"
        },
        {
          "internalType": "address",
          "name": "_vusd",
          "type": "address"
        },
        {
          "internalType": "address",
          "name": "_hubbleReferral",
          "type": "address"
        }
      ],
      "name": "initialize",
      "outputs": [],
      "stateMutability": "nonpayable",
      "type": "function"
    },
    {
      "inputs": [
        {
          "internalType": "address",
          "name": "trader",
          "type": "address"
        }
      ],
      "name": "isAboveMaintenanceMargin",
      "outputs": [
        {
          "internalType": "bool",
          "name": "",
          "type": "bool"
        }
      ],
      "stateMutability": "view",
      "type": "function"
    },
    {
      "inputs": [
        {
          "internalType": "address",
          "name": "forwarder",
          "type": "address"
        }
      ],
      "name": "isTrustedForwarder",
      "outputs": [
        {
          "internalType": "bool",
          "name": "",
          "type": "bool"
        }
      ],
      "stateMutability": "view",
      "type": "function"
    },
    {
      "inputs": [
        {
          "internalType": "address",
          "name": "trader",
          "type": "address"
        },
        {
          "internalType": "uint256",
          "name": "ammIndex",
          "type": "uint256"
        },
        {
          "internalType": "uint256",
          "name": "price",
          "type": "uint256"
        },
        {
          "internalType": "int256",
          "name": "toLiquidate",
          "type": "int256"
        }
      ],
      "name": "liquidate",
      "outputs": [],
      "stateMutability": "nonpayable",
      "type": "function"
    },
    {
      "inputs": [],
      "name": "liquidationPenalty",
      "outputs": [
        {
          "internalType": "uint256",
          "name": "",
          "type": "uint256"
        }
      ],
      "stateMutability": "view",
      "type": "function"
    },
    {
      "inputs": [],
      "name": "maintenanceMargin",
      "outputs": [
        {
          "internalType": "int256",
          "name": "",
          "type": "int256"
        }
      ],
      "stateMutability": "view",
      "type": "function"
    },
    {
      "inputs": [],
      "name": "makerFee",
      "outputs": [
        {
          "internalType": "uint256",
          "name": "",
          "type": "uint256"
        }
      ],
      "stateMutability": "view",
      "type": "function"
    },
    {
      "inputs": [],
      "name": "marginAccount",
      "outputs": [
        {
          "internalType": "contract IMarginAccount",
          "name": "",
          "type": "address"
        }
      ],
      "stateMutability": "view",
      "type": "function"
    },
    {
      "inputs": [],
      "name": "minAllowableMargin",
      "outputs": [
        {
          "internalType": "int256",
          "name": "",
          "type": "int256"
        }
      ],
      "stateMutability": "view",
      "type": "function"
    },
    {
      "inputs": [
        {
          "components": [
            {
              "internalType": "uint256",
              "name": "ammIndex",
              "type": "uint256"
            },
            {
              "internalType": "address",
              "name": "trader",
              "type": "address"
            },
            {
              "internalType": "int256",
              "name": "baseAssetQuantity",
              "type": "int256"
            },
            {
              "internalType": "uint256",
              "name": "price",
              "type": "uint256"
            },
            {
              "internalType": "uint256",
              "name": "salt",
              "type": "uint256"
            }
          ],
          "internalType": "struct IOrderBook.Order",
          "name": "order",
          "type": "tuple"
        },
        {
          "internalType": "int256",
          "name": "fillAmount",
          "type": "int256"
        },
        {
          "internalType": "uint256",
          "name": "fulfillPrice",
          "type": "uint256"
        },
        {
          "internalType": "bool",
          "name": "isMakerOrder",
          "type": "bool"
        }
      ],
      "name": "openPosition",
      "outputs": [],
      "stateMutability": "nonpayable",
      "type": "function"
    },
    {
      "inputs": [],
      "name": "orderBook",
      "outputs": [
        {
          "internalType": "contract IOrderBook",
          "name": "",
          "type": "address"
        }
      ],
      "stateMutability": "view",
      "type": "function"
    },
    {
      "inputs": [],
      "name": "pause",
      "outputs": [],
      "stateMutability": "nonpayable",
      "type": "function"
    },
    {
      "inputs": [],
      "name": "paused",
      "outputs": [
        {
          "internalType": "bool",
          "name": "",
          "type": "bool"
        }
      ],
      "stateMutability": "view",
      "type": "function"
    },
    {
      "inputs": [],
      "name": "referralShare",
      "outputs": [
        {
          "internalType": "uint256",
          "name": "",
          "type": "uint256"
        }
      ],
      "stateMutability": "view",
      "type": "function"
    },
    {
      "inputs": [
        {
          "internalType": "address",
          "name": "_governance",
          "type": "address"
        }
      ],
      "name": "setGovernace",
      "outputs": [],
      "stateMutability": "nonpayable",
      "type": "function"
    },
    {
      "inputs": [
        {
          "internalType": "int256",
          "name": "_maintenanceMargin",
          "type": "int256"
        },
        {
          "internalType": "int256",
          "name": "_minAllowableMargin",
          "type": "int256"
        },
        {
          "internalType": "uint256",
          "name": "_takerFee",
          "type": "uint256"
        },
        {
          "internalType": "uint256",
          "name": "_makerFee",
          "type": "uint256"
        },
        {
          "internalType": "uint256",
          "name": "_referralShare",
          "type": "uint256"
        },
        {
          "internalType": "uint256",
          "name": "_tradingFeeDiscount",
          "type": "uint256"
        },
        {
          "internalType": "uint256",
          "name": "_liquidationPenalty",
          "type": "uint256"
        }
      ],
      "name": "setParams",
      "outputs": [],
      "stateMutability": "nonpayable",
      "type": "function"
    },
    {
      "inputs": [],
      "name": "settleFunding",
      "outputs": [],
      "stateMutability": "nonpayable",
      "type": "function"
    },
    {
      "inputs": [],
      "name": "takerFee",
      "outputs": [
        {
          "internalType": "uint256",
          "name": "",
          "type": "uint256"
        }
      ],
      "stateMutability": "view",
      "type": "function"
    },
    {
      "inputs": [],
      "name": "tradingFeeDiscount",
      "outputs": [
        {
          "internalType": "uint256",
          "name": "",
          "type": "uint256"
        }
      ],
      "stateMutability": "view",
      "type": "function"
    },
    {
      "inputs": [],
      "name": "unpause",
      "outputs": [],
      "stateMutability": "nonpayable",
      "type": "function"
    },
    {
      "inputs": [
        {
          "internalType": "address",
          "name": "trader",
          "type": "address"
        }
      ],
      "name": "updatePositions",
      "outputs": [],
      "stateMutability": "nonpayable",
      "type": "function"
    },
    {
      "inputs": [],
      "name": "vusd",
      "outputs": [
        {
          "internalType": "contract VUSD",
          "name": "",
          "type": "address"
        }
      ],
      "stateMutability": "view",
      "type": "function"
    },
    {
      "inputs": [
        {
          "internalType": "address",
          "name": "_amm",
          "type": "address"
        }
      ],
      "name": "whitelistAmm",
      "outputs": [],
      "stateMutability": "nonpayable",
      "type": "function"
    }
  ],
  "bytecode": "0x60a06040523480156200001157600080fd5b506040516200289c3803806200289c833981016040819052620000349162000053565b6000805460ff60b01b191690556001600160a01b031660805262000085565b6000602082840312156200006657600080fd5b81516001600160a01b03811681146200007e57600080fd5b9392505050565b6080516127f4620000a8600039600081816103220152611f6801526127f46000f3fe608060405234801561001057600080fd5b50600436106102415760003560e01c8063813167a711610145578063cc2a9a5b116100bd578063e859e56c1161008c578063edac520311610071578063edac520314610577578063f742269d1461058a578063fc741c7c1461059d57600080fd5b8063e859e56c14610566578063ed83d79c1461056f57600080fd5b8063cc2a9a5b1461047e578063d2c1a6cd14610537578063d5eb05811461054a578063e239e8401461055357600080fd5b80639001568e116101145780639b645ad0116100f95780639b645ad014610445578063a752db8614610458578063b89a96091461046b57600080fd5b80639001568e1461042957806391735a391461043c57600080fd5b8063813167a7146103d35780638456cb59146103fb578063851e3ca51461040357806386a8cdbc1461041657600080fd5b806344f65a1f116101d85780635aa6e675116101a7578063651f19c61161018c578063651f19c61461039a578063776af5ba146103ad578063806cdccf146103c057600080fd5b80635aa6e675146103625780635c975abb1461037557600080fd5b806344f65a1f146102bf5780634b09b522146102d45780634b38474d146102ff578063572b6c051461031257600080fd5b80633be4a5b3116102145780633be4a5b3146102865780633f4ba83a1461029957806343ba4970146102a357806343f0179b146102b657600080fd5b806311affa391461024657806321db76ff1461026257806323f5589a1461026a5780632bccc65b14610273575b600080fd5b61024f60075481565b6040519081526020015b60405180910390f35b600c5461024f565b61024f60045481565b61024f610281366004611fec565b6105a6565b61024f610294366004612031565b6105ba565b6102a16105e2565b005b6102a16102b1366004611fec565b61064b565b61024f60025481565b6102c76108e4565b6040516102599190612078565b600d546102e7906001600160a01b031681565b6040516001600160a01b039091168152602001610259565b6009546102e7906001600160a01b031681565b610352610320366004611fec565b7f00000000000000000000000000000000000000000000000000000000000000006001600160a01b0390811691161490565b6040519015158152602001610259565b6000546102e7906001600160a01b031681565b600054760100000000000000000000000000000000000000000000900460ff16610352565b6102a16103a83660046120c5565b610946565b600b546102e7906001600160a01b031681565b6103526103ce366004611fec565b610c57565b6103e66103e1366004612195565b610c71565b60408051928352602083019190915201610259565b6102a1610ee9565b6102a1610411366004611fec565b610f4b565b6102e76104243660046121ca565b610fde565b6102a1610437366004611fec565b611008565b61024f60055481565b6103e6610453366004612031565b61108c565b6102a1610466366004611fec565b61116c565b6102a16104793660046121e3565b611306565b6102a161048c36600461221e565b600080547fffffffffffffffffffffffff0000000000000000000000000000000000000000166001600160a01b038816179055600980547fffffffffffffffffffffffff00000000000000000000000000000000000000009081166001600160a01b0397881617909155600a8054821695871695909517909455600b8054851693861693909317909255600880548416918516919091179055600d8054909216921691909117905550565b6102a16105453660046122a0565b61137b565b61024f60015481565b61024f610561366004611fec565b611445565b61024f60065481565b6102a1611551565b6008546102e7906001600160a01b031681565b600a546102e7906001600160a01b031681565b61024f60035481565b60006105b4826001806105ba565b92915050565b60008060006105ca86868661108c565b915091506105d881836116ea565b9695505050505050565b6000546001600160a01b031633146106415760405162461bcd60e51b815260206004820152600f60248201527f4f4e4c595f474f5645524e414e4345000000000000000000000000000000000060448201526064015b60405180910390fd5b610649611748565b565b600054760100000000000000000000000000000000000000000000900460ff16156106b85760405162461bcd60e51b815260206004820152601060248201527f5061757361626c653a20706175736564000000000000000000000000000000006044820152606401610638565b6001600160a01b03811661070e5760405162461bcd60e51b815260206004820152601660248201527f43483a20307830207472616465722041646472657373000000000000000000006044820152606401610638565b600c54600090815b8181101561084d57600080600c8381548110610734576107346122ec565b6000918252602090912001546040517fe0beac770000000000000000000000000000000000000000000000000000000081526001600160a01b0388811660048301529091169063e0beac77906024016040805180830381600087803b15801561079c57600080fd5b505af11580156107b0573d6000803e3d6000fd5b505050506040513d601f19601f820116820180604052508101906107d4919061231b565b915091508160001461083a576107ea828661236e565b945082866001600160a01b03167f2c73faab01c164483917d3b9aad7750ede67da3c50a0e9abcf23b2889ec734da8484604051610831929190918252602082015260400190565b60405180910390a35b505080610846906123e2565b9050610716565b50600a546001600160a01b0316639277f8ff846108698561241b565b6040517fffffffff0000000000000000000000000000000000000000000000000000000060e085901b1681526001600160a01b0390921660048301526024820152604401600060405180830381600087803b1580156108c757600080fd5b505af11580156108db573d6000803e3d6000fd5b50505050505050565b6060600c80548060200260200160405190810160405280929190818152602001828054801561093c57602002820191906000526020600020905b81546001600160a01b0316815260019091019060200180831161091e575b5050505050905090565b600b546001600160a01b031633146109a05760405162461bcd60e51b815260206004820152600e60248201527f4f6e6c79206f72646572426f6f6b0000000000000000000000000000000000006044820152606401610638565b6040840151158015906109b257508215155b6109fe5760405162461bcd60e51b815260206004820152601a60248201527f43483a206261736541737365745175616e74697479203d3d20300000000000006044820152606401610638565b610a0b846020015161064b565b6000670de0b6b3a764000083610a28610a2387611822565b61183e565b610a329190612454565b610a3c91906124c0565b9050600080600080600c896000015181548110610a5b57610a5b6122ec565b60009182526020918290200154604080517f13884b9f0000000000000000000000000000000000000000000000000000000081528c516004820152928c01516001600160a01b039081166024850152908c0151604484015260608c0151606484015260808c0151608484015260a483018b905260c483018a905216906313884b9f9060e401608060405180830381600087803b158015610afa57600080fd5b505af1158015610b0e573d6000803e3d6000fd5b505050506040513d601f19601f82011682018060405250810190610b3291906124d4565b93509350935093506000610b4e8a60200151868860008b611890565b600a546009546040517ffd9910e10000000000000000000000000000000000000000000000000000000081526001600160a01b03918216600482015260248101849052929350169063fd9910e190604401600060405180830381600087803b158015610bb957600080fd5b505af1158015610bcd573d6000803e3d6000fd5b505050508315610be457610be48a60200151611008565b895160208b01516001600160a01b03167f3b442cd83ba7b03d4797dc8c517ba4468767b11917e43622b04060282ab8b14c8b8989888842604080519687526020870195909552938501929092526060840152608083015260a082015260c00160405180910390a350505050505050505050565b6000600154610c6983600160006105ba565b121592915050565b600c54600090819081908190815b81811015610edd57600c8181548110610c9a57610c9a6122ec565b60009182526020918290200154604080517f9e01036200000000000000000000000000000000000000000000000000000000815290516001600160a01b0390921692639e01036292600480840193829003018186803b158015610cfc57600080fd5b505afa158015610d10573d6000803e3d6000fd5b505050506040513d601f19601f82011682018060405250810190610d349190612512565b15610dfb57600c8181548110610d4c57610d4c6122ec565b6000918252602090912001546040517f8f58f48b0000000000000000000000000000000000000000000000000000000081526001600160a01b0390911690638f58f48b90610da2908c908c908c9060040161252f565b604080518083038186803b158015610db957600080fd5b505afa158015610dcd573d6000803e3d6000fd5b505050506040513d601f19601f82011682018060405250810190610df1919061231b565b9094509250610eb5565b600c8181548110610e0e57610e0e6122ec565b6000918252602090912001546040517f16f086b70000000000000000000000000000000000000000000000000000000081526001600160a01b038b81166004830152909116906316f086b79060240160806040518083038186803b158015610e7557600080fd5b505afa158015610e89573d6000803e3d6000fd5b505050506040513d601f19601f82011682018060405250810190610ead919061258b565b509195509350505b610ebf84876125c1565b9550610ecb838661236e565b9450610ed6816123e2565b9050610c7f565b50505050935093915050565b6000546001600160a01b03163314610f435760405162461bcd60e51b815260206004820152600f60248201527f4f4e4c595f474f5645524e414e434500000000000000000000000000000000006044820152606401610638565b610649611b45565b6000546001600160a01b03163314610fa55760405162461bcd60e51b815260206004820152600f60248201527f4f4e4c595f474f5645524e414e434500000000000000000000000000000000006044820152606401610638565b600080547fffffffffffffffffffffffff0000000000000000000000000000000000000000166001600160a01b03831617905550565b50565b600c8181548110610fee57600080fd5b6000918252602090912001546001600160a01b0316905081565b60055461101882600060016105ba565b1215610fdb5760405162461bcd60e51b815260206004820152602260248201527f43483a2042656c6f77204d696e696d756d20416c6c6f7761626c65204d61726760448201527f696e0000000000000000000000000000000000000000000000000000000000006064820152608401610638565b600a546040517fe5590ea20000000000000000000000000000000000000000000000000000000081526001600160a01b038581166004830152600092839283929091169063e5590ea29060240160206040518083038186803b1580156110f157600080fd5b505afa158015611105573d6000803e3d6000fd5b505050506040513d601f19601f8201168201806040525081019061112991906125d9565b915084156111475761113a86611445565b61114490836125f2565b91505b611152868386610c71565b9093509050611161818361236e565b915050935093915050565b6000546001600160a01b031633146111c65760405162461bcd60e51b815260206004820152600f60248201527f4f4e4c595f474f5645524e414e434500000000000000000000000000000000006044820152606401610638565b600c5460005b8181101561126457826001600160a01b0316600c82815481106111f1576111f16122ec565b6000918252602090912001546001600160a01b031614156112545760405162461bcd60e51b815260206004820152601d60248201527f63682e77686974656c697374416d6d2e6475706c69636174655f616d6d0000006044820152606401610638565b61125d816123e2565b90506111cc565b506040516001600160a01b0383169082907f89ead78b5adc5070fcc35b67ed66e35bed6fb69ed4749b2d4c54fe725c3e7f6790600090a350600c80546001810182556000919091527fdf6966c971051c3d54ec59162606531493a51404a002842f56009d7e5cf4a8c70180547fffffffffffffffffffffffff0000000000000000000000000000000000000000166001600160a01b0392909216919091179055565b600b546001600160a01b031633146113605760405162461bcd60e51b815260206004820152600e60248201527f4f6e6c79206f72646572426f6f6b0000000000000000000000000000000000006044820152606401610638565b6113698461064b565b61137584848484611c1c565b50505050565b6000546001600160a01b031633146113d55760405162461bcd60e51b815260206004820152600f60248201527f4f4e4c595f474f5645524e414e434500000000000000000000000000000000006044820152606401610638565b600087136114255760405162461bcd60e51b815260206004820152601660248201527f5f6d61696e74656e616e63654d617267696e203c2030000000000000000000006044820152606401610638565b600196909655600594909455600292909255600355600655600755600455565b600c546000908190815b8181101561154957600c818154811061146a5761146a6122ec565b6000918252602090912001546040517fb72e1b480000000000000000000000000000000000000000000000000000000081526001600160a01b0387811660048301529091169063b72e1b4890602401604080518083038186803b1580156114d057600080fd5b505afa1580156114e4573d6000803e3d6000fd5b505050506040513d601f19601f82011682018060405250810190611508919061231b565b509250600083121561152d576115206103e884612666565b61152a90846125f2565b92505b611537838561236e565b9350611542816123e2565b905061144f565b505050919050565b600b546001600160a01b031633146115ab5760405162461bcd60e51b815260206004820152600e60248201527f4f6e6c79206f72646572426f6f6b0000000000000000000000000000000000006044820152606401610638565b600c5460005b818110156116e657600080600080600c85815481106115d2576115d26122ec565b9060005260206000200160009054906101000a90046001600160a01b03166001600160a01b031663ed83d79c6040518163ffffffff1660e01b8152600401608060405180830381600087803b15801561162a57600080fd5b505af115801561163e573d6000803e3d6000fd5b505050506040513d601f19601f82011682018060405250810190611662919061258b565b9350935093509350806000146116d157847fa02c873c68d47c8605d2a9dfbf71882251548b0857f3bd8116ac73e11ed1d6da8561169e8661183e565b604080519283526020830191909152818101869052606082018590524260808301524360a0830152519081900360c00190a25b50505050806116df906123e2565b90506115b1565b5050565b60008161171857507f7fffffffffffffffffffffffffffffffffffffffffffffffffffffffffffffff6105b4565b61172182611dfc565b61172d620f4240611dfc565b61173790856126ce565b6117419190612666565b9392505050565b600054760100000000000000000000000000000000000000000000900460ff166117b45760405162461bcd60e51b815260206004820152601460248201527f5061757361626c653a206e6f74207061757365640000000000000000000000006044820152606401610638565b600080547fffffffffffffffffff00ffffffffffffffffffffffffffffffffffffffffffff1690557f5db9ee0a495bf2e6ff9c91a7834c1ba4fdd244a5e8aa4e537bd38aeae4b073aa611805611e94565b6040516001600160a01b03909116815260200160405180910390a1565b60008082121561183a576118358261241b565b6105b4565b5090565b60008082121561183a5760405162461bcd60e51b815260206004820181905260248201527f53616665436173743a2076616c7565206d75737420626520706f7369746976656044820152606401610638565b60008083156118be576118a285611ea3565b91506118ad82611dfc565b6118b790876125f2565b9050611abc565b6118c88584611ec1565b600d546040517f770eabea0000000000000000000000000000000000000000000000000000000081526001600160a01b038a811660048301529294506000929091169063770eabea9060240160206040518083038186803b15801561192c57600080fd5b505afa158015611940573d6000803e3d6000fd5b505050506040513d601f19601f82011682018060405250810190611964919061278a565b905060006001600160a01b03821615611a9857620f4240600654886119899190612454565b61199391906124c0565b600a549091506001600160a01b0316639277f8ff836119b184611dfc565b6040517fffffffff0000000000000000000000000000000000000000000000000000000060e085901b1681526001600160a01b0390921660048301526024820152604401600060405180830381600087803b158015611a0f57600080fd5b505af1158015611a23573d6000803e3d6000fd5b50505050816001600160a01b03167f8ae4da220998234e5dbd6a2d3a17a0d13936f3f6d92f7cda454ba4e0b72f1f0e82604051611a6291815260200190565b60405180910390a26000620f424060075489611a7e9190612454565b611a8891906124c0565b9050611a9481866127a7565b9450505b611aa184611dfc565b611aab90896125f2565b9250611ab781856127a7565b935050505b600a546040517f9277f8ff0000000000000000000000000000000000000000000000000000000081526001600160a01b0389811660048301526024820184905290911690639277f8ff90604401600060405180830381600087803b158015611b2357600080fd5b505af1158015611b37573d6000803e3d6000fd5b505050505095945050505050565b600054760100000000000000000000000000000000000000000000900460ff1615611bb25760405162461bcd60e51b815260206004820152601060248201527f5061757361626c653a20706175736564000000000000000000000000000000006044820152606401610638565b600080547fffffffffffffffffff00ffffffffffffffffffffffffffffffffffffffffffff167601000000000000000000000000000000000000000000001790557f62e78cea01bee320cd4e420270b5ea74000d11b0c9f74754ebdbfc544b05a258611805611e94565b611c2584611f08565b600080600080600c8781548110611c3e57611c3e6122ec565b6000918252602090912001546040517f0476a6950000000000000000000000000000000000000000000000000000000081526001600160a01b038a81166004830152602482018990526044820188905290911690630476a69590606401608060405180830381600087803b158015611cb557600080fd5b505af1158015611cc9573d6000803e3d6000fd5b505050506040513d601f19601f82011682018060405250810190611ced919061258b565b935093509350935086886001600160a01b03167fdf06a2e039d9f07d63b4a2f99c2612d58fea71464f6f7f5af510502479a4e2ab8786888787611d2d4290565b604080519687526020870195909552938501929092526060840152608083015260a082015260c00160405180910390a36000611d6e89868660016000611890565b600a546009546040517ffd9910e10000000000000000000000000000000000000000000000000000000081526001600160a01b03918216600482015260248101849052929350169063fd9910e190604401600060405180830381600087803b158015611dd957600080fd5b505af1158015611ded573d6000803e3d6000fd5b50505050505050505050505050565b60007f7fffffffffffffffffffffffffffffffffffffffffffffffffffffffffffffff82111561183a5760405162461bcd60e51b815260206004820152602860248201527f53616665436173743a2076616c756520646f65736e27742066697420696e206160448201527f6e20696e743235360000000000000000000000000000000000000000000000006064820152608401610638565b6000611e9e611f64565b905090565b6000620f424060045483611eb79190612454565b6105b491906124c0565b60008115611eec57620f424060035484611edb9190612454565b611ee591906124c0565b90506105b4565b620f424060025484611efe9190612454565b61174191906124c0565b600154611f17826000806105ba565b12610fdb5760405162461bcd60e51b815260206004820152601c60248201527f43483a2041626f7665204d61696e74656e616e6365204d617267696e000000006044820152606401610638565b60007f00000000000000000000000000000000000000000000000000000000000000006001600160a01b0316331415611fc257507fffffffffffffffffffffffffffffffffffffffffffffffffffffffffffffffec36013560601c90565b503390565b6001600160a01b0381168114610fdb57600080fd5b8035611fe781611fc7565b919050565b600060208284031215611ffe57600080fd5b813561174181611fc7565b8015158114610fdb57600080fd5b8035611fe781612009565b803560028110611fe757600080fd5b60008060006060848603121561204657600080fd5b833561205181611fc7565b9250602084013561206181612009565b915061206f60408501612022565b90509250925092565b6020808252825182820181905260009190848201906040850190845b818110156120b95783516001600160a01b031683529284019291840191600101612094565b50909695505050505050565b6000806000808486036101008112156120dd57600080fd5b60a08112156120eb57600080fd5b5060405160a0810181811067ffffffffffffffff82111715612136577f4e487b7100000000000000000000000000000000000000000000000000000000600052604160045260246000fd5b6040528535815261214960208701611fdc565b60208201526040860135604082015260608601356060820152608086013560808201528094505060a0850135925060c0850135915061218a60e08601612017565b905092959194509250565b6000806000606084860312156121aa57600080fd5b83356121b581611fc7565b92506020840135915061206f60408501612022565b6000602082840312156121dc57600080fd5b5035919050565b600080600080608085870312156121f957600080fd5b843561220481611fc7565b966020860135965060408601359560600135945092505050565b60008060008060008060c0878903121561223757600080fd5b863561224281611fc7565b9550602087013561225281611fc7565b9450604087013561226281611fc7565b9350606087013561227281611fc7565b9250608087013561228281611fc7565b915060a087013561229281611fc7565b809150509295509295509295565b600080600080600080600060e0888a0312156122bb57600080fd5b505085359760208701359750604087013596606081013596506080810135955060a0810135945060c0013592509050565b7f4e487b7100000000000000000000000000000000000000000000000000000000600052603260045260246000fd5b6000806040838503121561232e57600080fd5b505080516020909101519092909150565b7f4e487b7100000000000000000000000000000000000000000000000000000000600052601160045260246000fd5b6000808212827f7fffffffffffffffffffffffffffffffffffffffffffffffffffffffffffffff038413811516156123a8576123a861233f565b827f80000000000000000000000000000000000000000000000000000000000000000384128116156123dc576123dc61233f565b50500190565b60007fffffffffffffffffffffffffffffffffffffffffffffffffffffffffffffffff8214156124145761241461233f565b5060010190565b60007f800000000000000000000000000000000000000000000000000000000000000082141561244d5761244d61233f565b5060000390565b6000817fffffffffffffffffffffffffffffffffffffffffffffffffffffffffffffffff048311821515161561248c5761248c61233f565b500290565b7f4e487b7100000000000000000000000000000000000000000000000000000000600052601260045260246000fd5b6000826124cf576124cf612491565b500490565b600080600080608085870312156124ea57600080fd5b8451935060208501516124fc81612009565b6040860151606090960151949790965092505050565b60006020828403121561252457600080fd5b815161174181612009565b6001600160a01b038416815260208101839052606081016002831061257d577f4e487b7100000000000000000000000000000000000000000000000000000000600052602160045260246000fd5b826040830152949350505050565b600080600080608085870312156125a157600080fd5b505082516020840151604085015160609095015191969095509092509050565b600082198211156125d4576125d461233f565b500190565b6000602082840312156125eb57600080fd5b5051919050565b6000808312837f80000000000000000000000000000000000000000000000000000000000000000183128115161561262c5761262c61233f565b837f7fffffffffffffffffffffffffffffffffffffffffffffffffffffffffffffff0183138116156126605761266061233f565b50500390565b60008261267557612675612491565b7fffffffffffffffffffffffffffffffffffffffffffffffffffffffffffffffff83147f8000000000000000000000000000000000000000000000000000000000000000831416156126c9576126c961233f565b500590565b60007f7fffffffffffffffffffffffffffffffffffffffffffffffffffffffffffffff60008413600084138583048511828216161561270f5761270f61233f565b7f8000000000000000000000000000000000000000000000000000000000000000600087128682058812818416161561274a5761274a61233f565b600087129250878205871284841616156127665761276661233f565b8785058712818416161561277c5761277c61233f565b505050929093029392505050565b60006020828403121561279c57600080fd5b815161174181611fc7565b6000828210156127b9576127b961233f565b50039056fea2646970667358221220ba77d9c84a84a2fffcd62a8ffa73def415fbc821fc4e593ad14fb6bd4024d7bb64736f6c63430008090033",
  "linkReferences": {},
  "deployedLinkReferences": {}
}