{
  "_format": "hh-sol-artifact-1",
  "contractName": "ExampleWarp",
  "sourceName": "contracts/ExampleWarp.sol",
  "abi": [
    {
      "inputs": [
        {
          "internalType": "bytes32",
          "name": "destinationChainID",
          "type": "bytes32"
        },
        {
          "internalType": "bytes32",
          "name": "destinationAddress",
          "type": "bytes32"
        },
        {
          "internalType": "bytes",
          "name": "payload",
          "type": "bytes"
        }
      ],
      "name": "sendWarpMessage",
      "outputs": [],
      "stateMutability": "nonpayable",
      "type": "function"
    },
    {
      "inputs": [
        {
          "internalType": "bytes32",
          "name": "expectedBlockchainID",
          "type": "bytes32"
        }
      ],
      "name": "validateGetBlockchainID",
      "outputs": [],
      "stateMutability": "view",
      "type": "function"
    },
    {
      "inputs": [
        {
          "internalType": "bytes32",
          "name": "originChainID",
          "type": "bytes32"
        },
        {
          "internalType": "bytes32",
          "name": "originSenderAddress",
          "type": "bytes32"
        },
        {
          "internalType": "bytes32",
          "name": "destinationChainID",
          "type": "bytes32"
        },
        {
          "internalType": "bytes32",
          "name": "destinationAddress",
          "type": "bytes32"
        },
        {
          "internalType": "bytes",
          "name": "payload",
          "type": "bytes"
        }
      ],
      "name": "validateWarpMessage",
      "outputs": [],
      "stateMutability": "view",
      "type": "function"
    }
  ],
  "bytecode": "0x60806040527302000000000000000000000000000000000000056000806101000a81548173ffffffffffffffffffffffffffffffffffffffff021916908373ffffffffffffffffffffffffffffffffffffffff16021790555034801561006457600080fd5b50610878806100746000396000f3fe608060405234801561001057600080fd5b50600436106100415760003560e01c806315f0c959146100465780631d9a3246146100625780636a0b64dd1461007e575b600080fd5b610060600480360381019061005b91906104a1565b61009a565b005b61007c600480360381019061007791906104f3565b61014d565b005b61009860048036038101906100939190610585565b610279565b005b60008060009054906101000a900473ffffffffffffffffffffffffffffffffffffffff1673ffffffffffffffffffffffffffffffffffffffff16634213cf786040518163ffffffff1660e01b815260040160206040518083038186803b15801561010357600080fd5b505afa158015610117573d6000803e3d6000fd5b505050506040513d601f19601f8201168201806040525081019061013b91906104ca565b905081811461014957600080fd5b5050565b60008060008054906101000a900473ffffffffffffffffffffffffffffffffffffffff1673ffffffffffffffffffffffffffffffffffffffff16631f9b40ec6040518163ffffffff1660e01b815260040160006040518083038186803b1580156101b657600080fd5b505afa1580156101ca573d6000803e3d6000fd5b505050506040513d6000823e3d601f19601f820116820180604052508101906101f391906105f1565b915091508061020157600080fd5b8782600001511461021157600080fd5b8682602001511461022157600080fd5b8582604001511461023157600080fd5b8482606001511461024157600080fd5b83836040516102519291906106a6565b60405180910390208260800151805190602001201461026f57600080fd5b5050505050505050565b60008054906101000a900473ffffffffffffffffffffffffffffffffffffffff1673ffffffffffffffffffffffffffffffffffffffff16636a0b64dd858585856040518563ffffffff1660e01b81526004016102d894939291906106bf565b600060405180830381600087803b1580156102f257600080fd5b505af1158015610306573d6000803e3d6000fd5b5050505050505050565b600061032361031e84610730565b6106ff565b90508281526020810184848401111561033b57600080fd5b6103468482856107a1565b509392505050565b60008151905061035d81610814565b92915050565b6000813590506103728161082b565b92915050565b6000815190506103878161082b565b92915050565b60008083601f84011261039f57600080fd5b8235905067ffffffffffffffff8111156103b857600080fd5b6020830191508360018202830111156103d057600080fd5b9250929050565b600082601f8301126103e857600080fd5b81516103f8848260208601610310565b91505092915050565b600060a0828403121561041357600080fd5b61041d60a06106ff565b9050600061042d84828501610378565b600083015250602061044184828501610378565b602083015250604061045584828501610378565b604083015250606061046984828501610378565b606083015250608082015167ffffffffffffffff81111561048957600080fd5b610495848285016103d7565b60808301525092915050565b6000602082840312156104b357600080fd5b60006104c184828501610363565b91505092915050565b6000602082840312156104dc57600080fd5b60006104ea84828501610378565b91505092915050565b60008060008060008060a0878903121561050c57600080fd5b600061051a89828a01610363565b965050602061052b89828a01610363565b955050604061053c89828a01610363565b945050606061054d89828a01610363565b935050608087013567ffffffffffffffff81111561056a57600080fd5b61057689828a0161038d565b92509250509295509295509295565b6000806000806060858703121561059b57600080fd5b60006105a987828801610363565b94505060206105ba87828801610363565b935050604085013567ffffffffffffffff8111156105d757600080fd5b6105e38782880161038d565b925092505092959194509250565b6000806040838503121561060457600080fd5b600083015167ffffffffffffffff81111561061e57600080fd5b61062a85828601610401565b925050602061063b8582860161034e565b9150509250929050565b61064e81610788565b82525050565b60006106608385610760565b935061066d838584610792565b61067683610803565b840190509392505050565b600061068d8385610771565b935061069a838584610792565b82840190509392505050565b60006106b3828486610681565b91508190509392505050565b60006060820190506106d46000830187610645565b6106e16020830186610645565b81810360408301526106f4818486610654565b905095945050505050565b6000604051905081810181811067ffffffffffffffff82111715610726576107256107d4565b5b8060405250919050565b600067ffffffffffffffff82111561074b5761074a6107d4565b5b601f19601f8301169050602081019050919050565b600082825260208201905092915050565b600081905092915050565b60008115159050919050565b6000819050919050565b82818337600083830152505050565b60005b838110156107bf5780820151818401526020810190506107a4565b838111156107ce576000848401525b50505050565b7f4e487b7100000000000000000000000000000000000000000000000000000000600052604160045260246000fd5b6000601f19601f8301169050919050565b61081d8161077c565b811461082857600080fd5b50565b61083481610788565b811461083f57600080fd5b5056fea2646970667358221220abd9fada0ac338b1fb03cb26f3ad4730292872f8ea47dd6df07d83547725ca3c64736f6c63430008000033",
  "linkReferences": {},
  "deployedLinkReferences": {}
}