{
  "_format": "hh-sol-artifact-1",
  "contractName": "MarginAccount",
  "sourceName": "contracts/MarginAccount.sol",
  "abi": [
    {
      "inputs": [
        {
          "internalType": "address",
          "name": "_trustedForwarder",
          "type": "address"
        }
      ],
      "stateMutability": "nonpayable",
      "type": "constructor"
    },
    {
      "inputs": [
        {
          "internalType": "enum IMarginAccount.LiquidationStatus",
          "name": "",
          "type": "uint8"
        }
      ],
      "name": "NOT_LIQUIDATABLE",
      "type": "error"
    },
    {
      "anonymous": false,
      "inputs": [
        {
          "indexed": true,
          "internalType": "address",
          "name": "trader",
          "type": "address"
        },
        {
          "indexed": true,
          "internalType": "uint256",
          "name": "idx",
          "type": "uint256"
        },
        {
          "indexed": false,
          "internalType": "uint256",
          "name": "seizeAmount",
          "type": "uint256"
        },
        {
          "indexed": false,
          "internalType": "uint256",
          "name": "repayAmount",
          "type": "uint256"
        },
        {
          "indexed": false,
          "internalType": "uint256",
          "name": "timestamp",
          "type": "uint256"
        }
      ],
      "name": "MarginAccountLiquidated",
      "type": "event"
    },
    {
      "anonymous": false,
      "inputs": [
        {
          "indexed": true,
          "internalType": "address",
          "name": "trader",
          "type": "address"
        },
        {
          "indexed": true,
          "internalType": "uint256",
          "name": "idx",
          "type": "uint256"
        },
        {
          "indexed": false,
          "internalType": "uint256",
          "name": "amount",
          "type": "uint256"
        },
        {
          "indexed": false,
          "internalType": "uint256",
          "name": "timestamp",
          "type": "uint256"
        }
      ],
      "name": "MarginAdded",
      "type": "event"
    },
    {
      "anonymous": false,
      "inputs": [
        {
          "indexed": true,
          "internalType": "address",
          "name": "trader",
          "type": "address"
        },
        {
          "indexed": true,
          "internalType": "uint256",
          "name": "idx",
          "type": "uint256"
        },
        {
          "indexed": false,
          "internalType": "uint256",
          "name": "amount",
          "type": "uint256"
        },
        {
          "indexed": false,
          "internalType": "uint256",
          "name": "timestamp",
          "type": "uint256"
        }
      ],
      "name": "MarginRemoved",
      "type": "event"
    },
    {
      "anonymous": false,
      "inputs": [
        {
          "indexed": false,
          "internalType": "address",
          "name": "account",
          "type": "address"
        }
      ],
      "name": "Paused",
      "type": "event"
    },
    {
      "anonymous": false,
      "inputs": [
        {
          "indexed": true,
          "internalType": "address",
          "name": "trader",
          "type": "address"
        },
        {
          "indexed": false,
          "internalType": "int256",
          "name": "realizedPnl",
          "type": "int256"
        },
        {
          "indexed": false,
          "internalType": "uint256",
          "name": "timestamp",
          "type": "uint256"
        }
      ],
      "name": "PnLRealized",
      "type": "event"
    },
    {
      "anonymous": false,
      "inputs": [
        {
          "indexed": true,
          "internalType": "address",
          "name": "trader",
          "type": "address"
        },
        {
          "indexed": false,
          "internalType": "uint256[]",
          "name": "seized",
          "type": "uint256[]"
        },
        {
          "indexed": false,
          "internalType": "uint256",
          "name": "repayAmount",
          "type": "uint256"
        },
        {
          "indexed": false,
          "internalType": "uint256",
          "name": "timestamp",
          "type": "uint256"
        }
      ],
      "name": "SettledBadDebt",
      "type": "event"
    },
    {
      "anonymous": false,
      "inputs": [
        {
          "indexed": false,
          "internalType": "address",
          "name": "account",
          "type": "address"
        }
      ],
      "name": "Unpaused",
      "type": "event"
    },
    {
      "inputs": [
        {
          "internalType": "uint256",
          "name": "idx",
          "type": "uint256"
        },
        {
          "internalType": "uint256",
          "name": "amount",
          "type": "uint256"
        }
      ],
      "name": "addMargin",
      "outputs": [],
      "stateMutability": "nonpayable",
      "type": "function"
    },
    {
      "inputs": [
        {
          "internalType": "uint256",
          "name": "idx",
          "type": "uint256"
        },
        {
          "internalType": "uint256",
          "name": "amount",
          "type": "uint256"
        },
        {
          "internalType": "address",
          "name": "to",
          "type": "address"
        }
      ],
      "name": "addMarginFor",
      "outputs": [],
      "stateMutability": "nonpayable",
      "type": "function"
    },
    {
      "inputs": [
        {
          "internalType": "uint256",
          "name": "idx",
          "type": "uint256"
        },
        {
          "internalType": "uint256",
          "name": "_weight",
          "type": "uint256"
        }
      ],
      "name": "changeCollateralWeight",
      "outputs": [],
      "stateMutability": "nonpayable",
      "type": "function"
    },
    {
      "inputs": [],
      "name": "clearingHouse",
      "outputs": [
        {
          "internalType": "contract IClearingHouse",
          "name": "",
          "type": "address"
        }
      ],
      "stateMutability": "view",
      "type": "function"
    },
    {
      "inputs": [],
      "name": "credit",
      "outputs": [
        {
          "internalType": "uint256",
          "name": "",
          "type": "uint256"
        }
      ],
      "stateMutability": "view",
      "type": "function"
    },
    {
      "inputs": [
        {
          "internalType": "address",
          "name": "trader",
          "type": "address"
        }
      ],
      "name": "getNormalizedMargin",
      "outputs": [
        {
          "internalType": "int256",
          "name": "weighted",
          "type": "int256"
        }
      ],
      "stateMutability": "view",
      "type": "function"
    },
    {
      "inputs": [
        {
          "internalType": "address",
          "name": "trader",
          "type": "address"
        }
      ],
      "name": "getSpotCollateralValue",
      "outputs": [
        {
          "internalType": "int256",
          "name": "spot",
          "type": "int256"
        }
      ],
      "stateMutability": "view",
      "type": "function"
    },
    {
      "inputs": [],
      "name": "governance",
      "outputs": [
        {
          "internalType": "address",
          "name": "",
          "type": "address"
        }
      ],
      "stateMutability": "view",
      "type": "function"
    },
    {
      "inputs": [
        {
          "internalType": "address",
          "name": "_governance",
          "type": "address"
        },
        {
          "internalType": "address",
          "name": "_vusd",
          "type": "address"
        }
      ],
      "name": "initialize",
      "outputs": [],
      "stateMutability": "nonpayable",
      "type": "function"
    },
    {
      "inputs": [],
      "name": "insuranceFund",
      "outputs": [
        {
          "internalType": "contract IInsuranceFund",
          "name": "",
          "type": "address"
        }
      ],
      "stateMutability": "view",
      "type": "function"
    },
    {
      "inputs": [
        {
          "internalType": "address",
          "name": "trader",
          "type": "address"
        },
        {
          "internalType": "bool",
          "name": "includeFunding",
          "type": "bool"
        }
      ],
      "name": "isLiquidatable",
      "outputs": [
        {
          "internalType": "enum IMarginAccount.LiquidationStatus",
          "name": "_isLiquidatable",
          "type": "uint8"
        },
        {
          "internalType": "uint256",
          "name": "repayAmount",
          "type": "uint256"
        },
        {
          "internalType": "uint256",
          "name": "incentivePerDollar",
          "type": "uint256"
        }
      ],
      "stateMutability": "view",
      "type": "function"
    },
    {
      "inputs": [
        {
          "internalType": "address",
          "name": "forwarder",
          "type": "address"
        }
      ],
      "name": "isTrustedForwarder",
      "outputs": [
        {
          "internalType": "bool",
          "name": "",
          "type": "bool"
        }
      ],
      "stateMutability": "view",
      "type": "function"
    },
    {
      "inputs": [
        {
          "internalType": "address",
          "name": "trader",
          "type": "address"
        },
        {
          "internalType": "uint256",
          "name": "repay",
          "type": "uint256"
        },
        {
          "internalType": "uint256",
          "name": "idx",
          "type": "uint256"
        },
        {
          "internalType": "uint256",
          "name": "minSeizeAmount",
          "type": "uint256"
        }
      ],
      "name": "liquidateExactRepay",
      "outputs": [],
      "stateMutability": "nonpayable",
      "type": "function"
    },
    {
      "inputs": [
        {
          "internalType": "address",
          "name": "trader",
          "type": "address"
        },
        {
          "internalType": "uint256",
          "name": "maxRepay",
          "type": "uint256"
        },
        {
          "internalType": "uint256",
          "name": "idx",
          "type": "uint256"
        },
        {
          "internalType": "uint256",
          "name": "seize",
          "type": "uint256"
        }
      ],
      "name": "liquidateExactSeize",
      "outputs": [],
      "stateMutability": "nonpayable",
      "type": "function"
    },
    {
      "inputs": [
        {
          "internalType": "address",
          "name": "trader",
          "type": "address"
        },
        {
          "internalType": "uint256",
          "name": "maxRepay",
          "type": "uint256"
        },
        {
          "internalType": "uint256[]",
          "name": "idxs",
          "type": "uint256[]"
        }
      ],
      "name": "liquidateFlexible",
      "outputs": [],
      "stateMutability": "nonpayable",
      "type": "function"
    },
    {
      "inputs": [],
      "name": "liquidationIncentive",
      "outputs": [
        {
          "internalType": "uint256",
          "name": "",
          "type": "uint256"
        }
      ],
      "stateMutability": "view",
      "type": "function"
    },
    {
      "inputs": [
        {
          "internalType": "uint256",
          "name": "",
          "type": "uint256"
        },
        {
          "internalType": "address",
          "name": "",
          "type": "address"
        }
      ],
      "name": "margin",
      "outputs": [
        {
          "internalType": "int256",
          "name": "",
          "type": "int256"
        }
      ],
      "stateMutability": "view",
      "type": "function"
    },
    {
      "inputs": [],
      "name": "oracle",
      "outputs": [
        {
          "internalType": "contract IOracle",
          "name": "",
          "type": "address"
        }
      ],
      "stateMutability": "view",
      "type": "function"
    },
    {
      "inputs": [],
      "name": "pause",
      "outputs": [],
      "stateMutability": "nonpayable",
      "type": "function"
    },
    {
      "inputs": [],
      "name": "paused",
      "outputs": [
        {
          "internalType": "bool",
          "name": "",
          "type": "bool"
        }
      ],
      "stateMutability": "view",
      "type": "function"
    },
    {
      "inputs": [],
      "name": "portfolioManager",
      "outputs": [
        {
          "internalType": "address",
          "name": "",
          "type": "address"
        }
      ],
      "stateMutability": "view",
      "type": "function"
    },
    {
      "inputs": [
        {
          "internalType": "address",
          "name": "trader",
          "type": "address"
        },
        {
          "internalType": "int256",
          "name": "realizedPnl",
          "type": "int256"
        }
      ],
      "name": "realizePnL",
      "outputs": [],
      "stateMutability": "nonpayable",
      "type": "function"
    },
    {
      "inputs": [
        {
          "internalType": "uint256",
          "name": "amount",
          "type": "uint256"
        }
      ],
      "name": "removeAvaxMargin",
      "outputs": [],
      "stateMutability": "nonpayable",
      "type": "function"
    },
    {
      "inputs": [
        {
          "internalType": "uint256",
          "name": "idx",
          "type": "uint256"
        },
        {
          "internalType": "uint256",
          "name": "amount",
          "type": "uint256"
        }
      ],
      "name": "removeMargin",
      "outputs": [],
      "stateMutability": "nonpayable",
      "type": "function"
    },
    {
      "inputs": [
        {
          "internalType": "address",
          "name": "trader",
          "type": "address"
        },
        {
          "internalType": "uint256",
          "name": "idx",
          "type": "uint256"
        },
        {
          "internalType": "uint256",
          "name": "amount",
          "type": "uint256"
        }
      ],
      "name": "removeMarginFor",
      "outputs": [],
      "stateMutability": "nonpayable",
      "type": "function"
    },
    {
      "inputs": [
        {
          "internalType": "address",
          "name": "_governance",
          "type": "address"
        }
      ],
      "name": "setGovernace",
      "outputs": [],
      "stateMutability": "nonpayable",
      "type": "function"
    },
    {
      "inputs": [
        {
          "internalType": "address",
          "name": "_portfolioManager",
          "type": "address"
        }
      ],
      "name": "setPortfolioManager",
      "outputs": [],
      "stateMutability": "nonpayable",
      "type": "function"
    },
    {
      "inputs": [
        {
          "internalType": "address",
          "name": "trader",
          "type": "address"
        }
      ],
      "name": "settleBadDebt",
      "outputs": [],
      "stateMutability": "nonpayable",
      "type": "function"
    },
    {
      "inputs": [],
      "name": "supportedAssets",
      "outputs": [
        {
          "components": [
            {
              "internalType": "contract IERC20",
              "name": "token",
              "type": "address"
            },
            {
              "internalType": "uint256",
              "name": "weight",
              "type": "uint256"
            },
            {
              "internalType": "uint8",
              "name": "decimals",
              "type": "uint8"
            }
          ],
          "internalType": "struct IMarginAccount.Collateral[]",
          "name": "",
          "type": "tuple[]"
        }
      ],
      "stateMutability": "view",
      "type": "function"
    },
    {
      "inputs": [],
      "name": "supportedAssetsLen",
      "outputs": [
        {
          "internalType": "uint256",
          "name": "",
          "type": "uint256"
        }
      ],
      "stateMutability": "view",
      "type": "function"
    },
    {
      "inputs": [
        {
          "internalType": "uint256",
          "name": "",
          "type": "uint256"
        }
      ],
      "name": "supportedCollateral",
      "outputs": [
        {
          "internalType": "contract IERC20",
          "name": "token",
          "type": "address"
        },
        {
          "internalType": "uint256",
          "name": "weight",
          "type": "uint256"
        },
        {
          "internalType": "uint8",
          "name": "decimals",
          "type": "uint8"
        }
      ],
      "stateMutability": "view",
      "type": "function"
    },
    {
      "inputs": [
        {
          "internalType": "address",
          "name": "_registry",
          "type": "address"
        },
        {
          "internalType": "uint256",
          "name": "_liquidationIncentive",
          "type": "uint256"
        }
      ],
      "name": "syncDeps",
      "outputs": [],
      "stateMutability": "nonpayable",
      "type": "function"
    },
    {
      "inputs": [
        {
          "internalType": "address",
          "name": "recipient",
          "type": "address"
        },
        {
          "internalType": "uint256",
          "name": "amount",
          "type": "uint256"
        }
      ],
      "name": "transferOutVusd",
      "outputs": [],
      "stateMutability": "nonpayable",
      "type": "function"
    },
    {
      "inputs": [],
      "name": "unpause",
      "outputs": [],
      "stateMutability": "nonpayable",
      "type": "function"
    },
    {
      "inputs": [],
      "name": "vusd",
      "outputs": [
        {
          "internalType": "contract IERC20FlexibleSupply",
          "name": "",
          "type": "address"
        }
      ],
      "stateMutability": "view",
      "type": "function"
    },
    {
      "inputs": [
        {
          "internalType": "address",
          "name": "trader",
          "type": "address"
        }
      ],
      "name": "weightedAndSpotCollateral",
      "outputs": [
        {
          "internalType": "int256",
          "name": "weighted",
          "type": "int256"
        },
        {
          "internalType": "int256",
          "name": "spot",
          "type": "int256"
        }
      ],
      "stateMutability": "view",
      "type": "function"
    },
    {
      "inputs": [
        {
          "internalType": "address",
          "name": "_coin",
          "type": "address"
        },
        {
          "internalType": "uint256",
          "name": "_weight",
          "type": "uint256"
        }
      ],
      "name": "whitelistCollateral",
      "outputs": [],
      "stateMutability": "nonpayable",
      "type": "function"
    },
    {
      "stateMutability": "payable",
      "type": "receive"
    }
  ],
  "bytecode": "0x60a06040523480156200001157600080fd5b506040516200483238038062004832833981016040819052620000349162000057565b6000805460ff60b01b191690556001600160a01b03166080526001805562000089565b6000602082840312156200006a57600080fd5b81516001600160a01b03811681146200008257600080fd5b9392505050565b608051614786620000ac600039600081816103e401526126f601526147866000f3fe60806040526004361061026e5760003560e01c8063870b007911610153578063c804cf60116100cb578063e5590ea21161007f578063f9a8232e11610064578063f9a8232e14610789578063fd9910e1146107a9578063ff71fa22146107c957600080fd5b8063e5590ea214610749578063edac52031461076957600080fd5b8063d87c7d21116100b0578063d87c7d21146106d4578063e19b74f7146106f4578063e2c9713b1461071457600080fd5b8063c804cf6014610694578063d41194b8146106b457600080fd5b8063a06d083c11610122578063a80ce55c11610107578063a80ce55c14610632578063b790230314610654578063c58f0c311461067457600080fd5b8063a06d083c146105fc578063a440b21a1461061257600080fd5b8063870b00791461056e578063873490ea1461058e5780638c765e94146105c65780639277f8ff146105dc57600080fd5b80635c975abb116101e65780637dc0d1d0116101b557806381d6dd8b1161019a57806381d6dd8b146105245780638456cb5914610539578063851e3ca51461054e57600080fd5b80637dc0d1d0146104e45780637ed5e2951461050457600080fd5b80635c975abb1461044457806360cb5305146104765780636141cc1c146104a4578063620b75df146104c457600080fd5b8063485cc9551161023d578063500b226511610222578063500b226514610398578063572b6c05146103c75780635aa6e6751461042457600080fd5b8063485cc955146103585780634b8f43811461037857600080fd5b806304aa459c146102c657806304ec9d6e146102e65780630af96800146103065780633f4ba83a1461034357600080fd5b366102c157600760018154811061028757610287613d17565b60009182526020909120600390910201546001600160a01b03166102a9610811565b6001600160a01b0316146102bf576102bf613d46565b005b600080fd5b3480156102d257600080fd5b506102bf6102e1366004613d8a565b610820565b3480156102f257600080fd5b506102bf610301366004613e16565b6109f9565b34801561031257600080fd5b50600254610326906001600160a01b031681565b6040516001600160a01b0390911681526020015b60405180910390f35b34801561034f57600080fd5b506102bf610a61565b34801561036457600080fd5b506102bf610373366004613e42565b610ac5565b34801561038457600080fd5b506102bf610393366004613e7b565b610b40565b3480156103a457600080fd5b506103b86103b3366004613eab565b610c5d565b60405161033a93929190613f1c565b3480156103d357600080fd5b506104146103e2366004613f3b565b7f00000000000000000000000000000000000000000000000000000000000000006001600160a01b0390811691161490565b604051901515815260200161033a565b34801561043057600080fd5b50600054610326906001600160a01b031681565b34801561045057600080fd5b50600054760100000000000000000000000000000000000000000000900460ff16610414565b34801561048257600080fd5b50610496610491366004613f3b565b610ea8565b60405190815260200161033a565b3480156104b057600080fd5b506102bf6104bf366004613f58565b610eba565b3480156104d057600080fd5b50600a54610326906001600160a01b031681565b3480156104f057600080fd5b50600354610326906001600160a01b031681565b34801561051057600080fd5b506102bf61051f366004613e16565b611048565b34801561053057600080fd5b50600754610496565b34801561054557600080fd5b506102bf6113b3565b34801561055a57600080fd5b506102bf610569366004613f3b565b611415565b34801561057a57600080fd5b506102bf610589366004613e7b565b6114a8565b34801561059a57600080fd5b506104966105a9366004613f91565b600960209081526000928352604080842090915290825290205481565b3480156105d257600080fd5b5061049660085481565b3480156105e857600080fd5b506102bf6105f7366004613e16565b6115d3565b34801561060857600080fd5b5061049660065481565b34801561061e57600080fd5b506102bf61062d366004613f3b565b6116d5565b34801561063e57600080fd5b50610647611769565b60405161033a9190613fb6565b34801561066057600080fd5b50600454610326906001600160a01b031681565b34801561068057600080fd5b506102bf61068f36600461401b565b6117ee565b3480156106a057600080fd5b506102bf6106af366004613f3b565b611961565b3480156106c057600080fd5b506102bf6106cf366004613e7b565b611f23565b3480156106e057600080fd5b506102bf6106ef366004614034565b611f9d565b34801561070057600080fd5b506102bf61070f366004614069565b6120f9565b34801561072057600080fd5b5061073461072f366004613f3b565b612248565b6040805192835260208301919091520161033a565b34801561075557600080fd5b50610496610764366004613f3b565b6124dd565b34801561077557600080fd5b50600554610326906001600160a01b031681565b34801561079557600080fd5b506102bf6107a4366004614069565b6124ef565b3480156107b557600080fd5b506102bf6107c4366004613e16565b61263e565b3480156107d557600080fd5b506107e96107e436600461401b565b6126b2565b604080516001600160a01b039094168452602084019290925260ff169082015260600161033a565b600061081b6126f2565b905090565b600054760100000000000000000000000000000000000000000000900460ff16156108925760405162461bcd60e51b815260206004820152601060248201527f5061757361626c653a207061757365640000000000000000000000000000000060448201526064015b60405180910390fd5b6002546040517f43ba49700000000000000000000000000000000000000000000000000000000081526001600160a01b038681166004830152909116906343ba497090602401600060405180830381600087803b1580156108f257600080fd5b505af1158015610906573d6000803e3d6000fd5b505050506000805b828110156109f157600061093a8786868581811061092e5761092e613d17565b90506020020135612755565b905060018151600381111561095157610951613ed9565b141561098c5780516040517f25ba9ec600000000000000000000000000000000000000000000000000000000815261088991906004016140a4565b6000815160038111156109a1576109a1613ed9565b146109ac57506109f1565b6109cf87878787868181106109c3576109c3613d17565b90506020020135612951565b92506109db83876140e1565b95505080806109e9906140f8565b91505061090e565b505050505050565b6000546001600160a01b03163314610a535760405162461bcd60e51b815260206004820152600f60248201527f4f4e4c595f474f5645524e414e434500000000000000000000000000000000006044820152606401610889565b610a5d8282612a79565b5050565b6000546001600160a01b03163314610abb5760405162461bcd60e51b815260206004820152600f60248201527f4f4e4c595f474f5645524e414e434500000000000000000000000000000000006044820152606401610889565b610ac3612d21565b565b600080547fffffffffffffffffffffffff0000000000000000000000000000000000000000166001600160a01b038416179055610b0581620f4240612a79565b600580547fffffffffffffffffffffffff0000000000000000000000000000000000000000166001600160a01b039290921691909117905550565b600054760100000000000000000000000000000000000000000000900460ff1615610bad5760405162461bcd60e51b815260206004820152601060248201527f5061757361626c653a20706175736564000000000000000000000000000000006044820152606401610889565b6000610bb7610811565b9050610bc4838383612dfb565b82610bd857610bd381836130c4565b610c11565b610c11818360078681548110610bf057610bf0613d17565b60009182526020909120600390910201546001600160a01b0316919061321a565b826001600160a01b0382167ffe460128225239fdbbc5909326e8198b8396336ff9b32b8f4dbda29447ecf97c84425b6040805192835260208301919091520160405180910390a3505050565b6001600160a01b03821660009081527fec8156718a8372b1db44bb411437d0870f3e3790d4a08526d024ce1b0b668f6b6020526040812054819081908415610d42576002546040517fe239e8400000000000000000000000000000000000000000000000000000000081526001600160a01b0388811660048301529091169063e239e8409060240160206040518083038186803b158015610cfd57600080fd5b505afa158015610d11573d6000803e3d6000fd5b505050506040513d601f19601f82011682018060405250810190610d359190614131565b610d3f908261414a565b90505b60008112610d5b57600260008093509350935050610ea1565b6002546040517f813167a70000000000000000000000000000000000000000000000000000000081526000916001600160a01b03169063813167a790610daa908a9085906001906004016141be565b604080518083038186803b158015610dc157600080fd5b505afa158015610dd5573d6000803e3d6000fd5b505050506040513d601f19601f82011682018060405250810190610df991906141f3565b5090508015610e145760016000809450945094505050610ea1565b600080610e2089612248565b9150915060008212610e4057600360008096509650965050505050610ea1565b610e51610e4c85614217565b6132e1565b9550620f424094506000811315610e9c57610e8f60085487620f4240610e76856132e1565b610e809190614250565b610e8a91906142bc565b613337565b610e9990866142d0565b94505b505050505b9250925092565b6000610eb382612248565b9392505050565b600054760100000000000000000000000000000000000000000000900460ff1615610f275760405162461bcd60e51b815260206004820152601060248201527f5061757361626c653a20706175736564000000000000000000000000000000006044820152606401610889565b60008211610f775760405162461bcd60e51b815260206004820152601360248201527f416464206e6f6e2d7a65726f206d617267696e000000000000000000000000006044820152606401610889565b82610f9257610f8d610f87610811565b8361334d565b610fd4565b610fd4610f9d610811565b308460078781548110610fb257610fb2613d17565b60009182526020909120600390910201546001600160a01b031692919061349c565b610fdd826134f3565b60008481526009602090815260408083206001600160a01b03861684529091528120805490919061100f9084906142e8565b909155508390506001600160a01b0382167fe424152e5f8dcbc0fbba9108ff4e148910ddb920dd772c655cb76517f579decf8442610c40565b6000546001600160a01b031633146110a25760405162461bcd60e51b815260206004820152600f60248201527f4f4e4c595f474f5645524e414e434500000000000000000000000000000000006044820152606401610889565b6110b0600a620f42406142bc565b8111156110ff5760405162461bcd60e51b815260206004820152601c60248201527f4d412e73796e63446570732e4c495f47545f31305f70657263656e74000000006044820152606401610889565b6000829050306001600160a01b0316816001600160a01b031663f742269d6040518163ffffffff1660e01b815260040160206040518083038186803b15801561114757600080fd5b505afa15801561115b573d6000803e3d6000fd5b505050506040513d601f19601f8201168201806040525081019061117f919061435c565b6001600160a01b0316146111d55760405162461bcd60e51b815260206004820152600f60248201527f496e636f727265637420736574757000000000000000000000000000000000006044820152606401610889565b806001600160a01b0316630af968006040518163ffffffff1660e01b815260040160206040518083038186803b15801561120e57600080fd5b505afa158015611222573d6000803e3d6000fd5b505050506040513d601f19601f82011682018060405250810190611246919061435c565b600260006101000a8154816001600160a01b0302191690836001600160a01b03160217905550806001600160a01b0316637dc0d1d06040518163ffffffff1660e01b815260040160206040518083038186803b1580156112a557600080fd5b505afa1580156112b9573d6000803e3d6000fd5b505050506040513d601f19601f820116820180604052508101906112dd919061435c565b600360006101000a8154816001600160a01b0302191690836001600160a01b03160217905550806001600160a01b031663b79023036040518163ffffffff1660e01b815260040160206040518083038186803b15801561133c57600080fd5b505afa158015611350573d6000803e3d6000fd5b505050506040513d601f19601f82011682018060405250810190611374919061435c565b600480547fffffffffffffffffffffffff0000000000000000000000000000000000000000166001600160a01b03929092169190911790555060085550565b6000546001600160a01b0316331461140d5760405162461bcd60e51b815260206004820152600f60248201527f4f4e4c595f474f5645524e414e434500000000000000000000000000000000006044820152606401610889565b610ac361358b565b6000546001600160a01b0316331461146f5760405162461bcd60e51b815260206004820152600f60248201527f4f4e4c595f474f5645524e414e434500000000000000000000000000000000006044820152606401610889565b600080547fffffffffffffffffffffffff0000000000000000000000000000000000000000166001600160a01b03831617905550565b50565b6000546001600160a01b031633146115025760405162461bcd60e51b815260206004820152600f60248201527f4f4e4c595f474f5645524e414e434500000000000000000000000000000000006044820152606401610889565b620f42408111156115555760405162461bcd60e51b815260206004820152600c60248201527f776569676874203e2031653600000000000000000000000000000000000000006044820152606401610889565b60075482106115a65760405162461bcd60e51b815260206004820152601860248201527f436f6c6c61746572616c206e6f7420737570706f7274656400000000000000006044820152606401610889565b80600783815481106115ba576115ba613d17565b9060005260206000209060030201600101819055505050565b6002546001600160a01b03166115e7610811565b6001600160a01b03161461163d5760405162461bcd60e51b815260206004820152601260248201527f4f6e6c7920636c656172696e67486f75736500000000000000000000000000006044820152606401610889565b8015610a5d576001600160a01b03821660009081527fec8156718a8372b1db44bb411437d0870f3e3790d4a08526d024ce1b0b668f6b60205260408120805483929061168a9084906142e8565b90915550506040805182815242602082015281516001600160a01b038516927ff9067ab1bfec1213afebcdd6735481adbaecc73093f35eeb381b1bb499aa4544928290030190a25050565b6000546001600160a01b0316331461172f5760405162461bcd60e51b815260206004820152600f60248201527f4f4e4c595f474f5645524e414e434500000000000000000000000000000000006044820152606401610889565b600a80547fffffffffffffffffffffffff0000000000000000000000000000000000000000166001600160a01b0392909216919091179055565b60606007805480602002602001604051908101604052809291908181526020016000905b828210156117e5576000848152602090819020604080516060810182526003860290920180546001600160a01b031683526001808201548486015260029091015460ff1691830191909152908352909201910161178d565b50505050905090565b600054760100000000000000000000000000000000000000000000900460ff161561185b5760405162461bcd60e51b815260206004820152601060248201527f5061757361626c653a20706175736564000000000000000000000000000000006044820152606401610889565b6000611865610811565b905061187360018383612dfb565b600760018154811061188757611887613d17565b60009182526020909120600390910201546040517f2e1a7d4d000000000000000000000000000000000000000000000000000000008152600481018490526001600160a01b0390911690632e1a7d4d90602401600060405180830381600087803b1580156118f457600080fd5b505af1158015611908573d6000803e3d6000fd5b505050506119168183613662565b60016001600160a01b0382167ffe460128225239fdbbc5909326e8198b8396336ff9b32b8f4dbda29447ecf97c84426040805192835260208301919091520160405180910390a35050565b600054760100000000000000000000000000000000000000000000900460ff16156119ce5760405162461bcd60e51b815260206004820152601060248201527f5061757361626c653a20706175736564000000000000000000000000000000006044820152606401610889565b6002546040517f813167a70000000000000000000000000000000000000000000000000000000081526000916001600160a01b03169063813167a790611a1d90859085906001906004016141be565b604080518083038186803b158015611a3457600080fd5b505afa158015611a48573d6000803e3d6000fd5b505050506040513d601f19601f82011682018060405250810190611a6c91906141f3565b5090508015611ae35760405162461bcd60e51b815260206004820152602c60248201527f4c697175696461746520706f736974696f6e73206265666f726520736574746c60448201527f696e6720626164206465627400000000000000000000000000000000000000006064820152608401610889565b6000611aee83610ea8565b12611b3b5760405162461bcd60e51b815260206004820152601860248201527f41626f7665206261642064656274207468726573686f6c6400000000000000006044820152606401610889565b6001600160a01b03821660009081527fec8156718a8372b1db44bb411437d0870f3e3790d4a08526d024ce1b0b668f6b6020526040812054908112611bc25760405162461bcd60e51b815260206004820152601060248201527f4e6f7468696e6720746f207265706179000000000000000000000000000000006044820152606401610889565b6000611bd0610e4c83614217565b905060006007805480602002602001604051908101604052809291908181526020016000905b82821015611c4e576000848152602090819020604080516060810182526003860290920180546001600160a01b031683526001808201548486015260029091015460ff16918301919091529083529092019101611bf6565b5050600480546040517fe2eb4f5e0000000000000000000000000000000000000000000000000000000081529495506001600160a01b03169363e2eb4f5e9350611c9f925086910190815260200190565b600060405180830381600087803b158015611cb957600080fd5b505af1158015611ccd573d6000803e3d6000fd5b505050506001600160a01b03851660009081527fec8156718a8372b1db44bb411437d0870f3e3790d4a08526d024ce1b0b668f6b60205260408120819055815167ffffffffffffffff811115611d2557611d25614379565b604051908082528060200260200182016040528015611d4e578160200160208202803683370190505b50905060015b8251811015611ed55760008181526009602090815260408083206001600160a01b038b16845290915281205490811315611ec25760008281526009602090815260408083206001600160a01b03808d1685529252822091909155600454611df59116611dbf836132e1565b868581518110611dd157611dd1613d17565b6020026020010151600001516001600160a01b031661321a9092919063ffffffff16565b611dfe816132e1565b838381518110611e1057611e10613d17565b602090810291909101015260045484516001600160a01b0390911690634075fa0f90869085908110611e4457611e44613d17565b6020908102919091010151516040517fffffffff0000000000000000000000000000000000000000000000000000000060e084901b1681526001600160a01b039091166004820152602401600060405180830381600087803b158015611ea957600080fd5b505af1158015611ebd573d6000803e3d6000fd5b505050505b5080611ecd816140f8565b915050611d54565b506001600160a01b0386167f18172d438ecc20ef650e13e0037292d809dc7a0803e0505eed947341008e6e7c828542604051611f13939291906143a8565b60405180910390a2505050505050565b600054760100000000000000000000000000000000000000000000900460ff1615611f905760405162461bcd60e51b815260206004820152601060248201527f5061757361626c653a20706175736564000000000000000000000000000000006044820152606401610889565b610a5d82826104bf610811565b600054760100000000000000000000000000000000000000000000900460ff161561200a5760405162461bcd60e51b815260206004820152601060248201527f5061757361626c653a20706175736564000000000000000000000000000000006044820152606401610889565b600a546001600160a01b031661201e610811565b6001600160a01b0316146120745760405162461bcd60e51b815260206004820152601460248201527f4f6e6c7920706f7274666f6c696f4d616e6765720000000000000000000000006044820152606401610889565b61207f828285612dfb565b8161209f57600a5461209a906001600160a01b0316826130c4565b6120c6565b600a54600780546120c6926001600160a01b031691849186908110610bf057610bf0613d17565b816001600160a01b0384167ffe460128225239fdbbc5909326e8198b8396336ff9b32b8f4dbda29447ecf97c8342610c40565b600054760100000000000000000000000000000000000000000000900460ff16156121665760405162461bcd60e51b815260206004820152601060248201527f5061757361626c653a20706175736564000000000000000000000000000000006044820152606401610889565b6002546040517f43ba49700000000000000000000000000000000000000000000000000000000081526001600160a01b038681166004830152909116906343ba497090602401600060405180830381600087803b1580156121c657600080fd5b505af11580156121da573d6000803e3d6000fd5b5050505060006121ea8584612755565b905060008151600381111561220157612201613ed9565b1461223b5780516040517f25ba9ec600000000000000000000000000000000000000000000000000000000815261088991906004016140a4565b6109f18186868686613780565b60008060006007805480602002602001604051908101604052809291908181526020016000905b828210156122c7576000848152602090819020604080516060810182526003860290920180546001600160a01b031683526001808201548486015260029091015460ff1691830191909152908352909201910161226f565b5050505090506122fd604051806060016040528060006001600160a01b0316815260200160008152602001600060ff1681525090565b60005b82518110156124d55760008181526009602090815260408083206001600160a01b038a168452909152902054612335576124c3565b82818151811061234757612347613d17565b602002602001015191506000600360009054906101000a90046001600160a01b03166001600160a01b031663fc57d4df85848151811061238957612389613d17565b6020908102919091010151516040517fffffffff0000000000000000000000000000000000000000000000000000000060e084901b1681526001600160a01b03909116600482015260240160206040518083038186803b1580156123ec57600080fd5b505afa158015612400573d6000803e3d6000fd5b505050506040513d601f19601f820116820180604052508101906124249190614131565b60008381526009602090815260408083206001600160a01b038c16845290915290205461245191906143f5565b604084015190915060ff1661246781600a6145d1565b61247190836145dd565b61247b90876142e8565b95506124888160066142d0565b61249390600a6145d1565b6124a085602001516134f3565b6124aa90846143f5565b6124b491906145dd565b6124be90886142e8565b965050505b806124cd816140f8565b915050612300565b505050915091565b60006124e882612248565b5092915050565b600054760100000000000000000000000000000000000000000000900460ff161561255c5760405162461bcd60e51b815260206004820152601060248201527f5061757361626c653a20706175736564000000000000000000000000000000006044820152606401610889565b6002546040517f43ba49700000000000000000000000000000000000000000000000000000000081526001600160a01b038681166004830152909116906343ba497090602401600060405180830381600087803b1580156125bc57600080fd5b505af11580156125d0573d6000803e3d6000fd5b5050505060006125e08584612755565b90506000815160038111156125f7576125f7613ed9565b146126315780516040517f25ba9ec600000000000000000000000000000000000000000000000000000000815261088991906004016140a4565b6109f1818686868661381f565b6002546001600160a01b0316612652610811565b6001600160a01b0316146126a85760405162461bcd60e51b815260206004820152601260248201527f4f6e6c7920636c656172696e67486f75736500000000000000000000000000006044820152606401610889565b610a5d82826130c4565b600781815481106126c257600080fd5b60009182526020909120600390910201805460018201546002909201546001600160a01b03909116925060ff1683565b60007f00000000000000000000000000000000000000000000000000000000000000006001600160a01b031633141561275057507fffffffffffffffffffffffffffffffffffffffffffffffffffffffffffffffec36013560601c90565b503390565b61278b6040805160a081019091528060008152602001600060ff1681526020016000815260200160008152602001600081525090565b60008211801561279c575060075482105b6127e85760405162461bcd60e51b815260206004820152601760248201527f636f6c6c61746572616c206e6f74207365697a61626c650000000000000000006044820152606401610889565b6127f3836000610c5d565b60408401819052606084018290528383600381111561281457612814613ed9565b600381111561282557612825613ed9565b905250600091506128339050565b8151600381111561284657612846613ed9565b141561294b5760006007838154811061286157612861613d17565b600091825260209182902060408051606081018252600393840290920180546001600160a01b0390811680855260018301549685019690965260029091015460ff1683830152925490517ffc57d4df00000000000000000000000000000000000000000000000000000000815260048101949094529093506129399291169063fc57d4df9060240160206040518083038186803b15801561290157600080fd5b505afa158015612915573d6000803e3d6000fd5b505050506040513d601f19601f82011682018060405250810190610e4c9190614131565b60808301526040015160ff1660208201525b92915050565b60008054760100000000000000000000000000000000000000000000900460ff16156129bf5760405162461bcd60e51b815260206004820152601060248201527f5061757361626c653a20706175736564000000000000000000000000000000006044820152606401610889565b60006129cb8584612755565b60008481526009602090815260408083206001600160a01b038a16845290915281205491925090612a06908390612a01906132e1565b6138eb565b905081606001518110612a3257612a258287846060015187600061381f565b5050606001519050610eb3565b60008481526009602090815260408083206001600160a01b038a168452909152902054612a6f908390889088908890612a6a906132e1565b613780565b9695505050505050565b620f4240811115612acc5760405162461bcd60e51b815260206004820152600c60248201527f776569676874203e2031653600000000000000000000000000000000000000006044820152606401610889565b60006007805480602002602001604051908101604052809291908181526020016000905b82821015612b48576000848152602090819020604080516060810182526003860290920180546001600160a01b031683526001808201548486015260029091015460ff16918301919091529083529092019101612af0565b50505050905060005b8151811015612beb57836001600160a01b0316828281518110612b7657612b76613d17565b6020026020010151600001516001600160a01b03161415612bd95760405162461bcd60e51b815260206004820152601160248201527f636f6c6c61746572616c206578697374730000000000000000000000000000006044820152606401610889565b80612be3816140f8565b915050612b51565b5060076040518060600160405280856001600160a01b03168152602001848152602001856001600160a01b031663313ce5676040518163ffffffff1660e01b815260040160206040518083038186803b158015612c4757600080fd5b505afa158015612c5b573d6000803e3d6000fd5b505050506040513d601f19601f82011682018060405250810190612c7f9190614645565b60ff9081169091528254600180820185556000948552602094859020845160039093020180547fffffffffffffffffffffffff0000000000000000000000000000000000000000166001600160a01b039093169290921782559383015193810193909355604090910151600290920180547fffffffffffffffffffffffffffffffffffffffffffffffffffffffffffffff001692909116919091179055505050565b600054760100000000000000000000000000000000000000000000900460ff16612d8d5760405162461bcd60e51b815260206004820152601460248201527f5061757361626c653a206e6f74207061757365640000000000000000000000006044820152606401610889565b600080547fffffffffffffffffff00ffffffffffffffffffffffffffffffffffffffffffff1690557f5db9ee0a495bf2e6ff9c91a7834c1ba4fdd244a5e8aa4e537bd38aeae4b073aa612dde610811565b6040516001600160a01b03909116815260200160405180910390a1565b81612e485760405162461bcd60e51b815260206004820152601660248201527f52656d6f7665206e6f6e2d7a65726f206d617267696e000000000000000000006044820152606401610889565b6002546040517f43ba49700000000000000000000000000000000000000000000000000000000081526001600160a01b038381166004830152909116906343ba497090602401600060405180830381600087803b158015612ea857600080fd5b505af1158015612ebc573d6000803e3d6000fd5b50505050612ec9826134f3565b60008481526009602090815260408083206001600160a01b03861684529091529020541215612f3a5760405162461bcd60e51b815260206004820152601460248201527f496e73756666696369656e742062616c616e63650000000000000000000000006044820152606401610889565b612f43826134f3565b60008481526009602090815260408083206001600160a01b038616845290915281208054909190612f7590849061414a565b9091555050600a546001600160a01b0316612f8e610811565b6001600160a01b0316146130bf576001600160a01b03811660009081527fec8156718a8372b1db44bb411437d0870f3e3790d4a08526d024ce1b0b668f6b602052604081205412156130485760405162461bcd60e51b815260206004820152603260248201527f43616e6e6f742072656d6f7665206d617267696e207768656e2076757364206260448201527f616c616e6365206973206e6567617469766500000000000000000000000000006064820152608401610889565b6002546040517f9001568e0000000000000000000000000000000000000000000000000000000081526001600160a01b03838116600483015290911690639001568e9060240160006040518083038186803b1580156130a657600080fd5b505afa1580156130ba573d6000803e3d6000fd5b505050505b505050565b6005546040517f70a082310000000000000000000000000000000000000000000000000000000081523060048201526000916001600160a01b0316906370a082319060240160206040518083038186803b15801561312157600080fd5b505afa158015613135573d6000803e3d6000fd5b505050506040513d601f19601f820116820180604052508101906131599190614131565b90508181101561320757600061316f82846140e1565b9050806006600082825461318391906142d0565b90915550506005546040517f40c10f19000000000000000000000000000000000000000000000000000000008152306004820152602481018390526001600160a01b03909116906340c10f1990604401600060405180830381600087803b1580156131ed57600080fd5b505af1158015613201573d6000803e3d6000fd5b50505050505b6005546130bf906001600160a01b031684845b6040516001600160a01b0383166024820152604481018290526130bf9084907fa9059cbb00000000000000000000000000000000000000000000000000000000906064015b604080517fffffffffffffffffffffffffffffffffffffffffffffffffffffffffffffffe08184030181529190526020810180517bffffffffffffffffffffffffffffffffffffffffffffffffffffffff167fffffffff0000000000000000000000000000000000000000000000000000000090931692909217909152613940565b6000808212156133335760405162461bcd60e51b815260206004820181905260248201527f53616665436173743a2076616c7565206d75737420626520706f7369746976656044820152606401610889565b5090565b60008183106133465781610eb3565b5090919050565b600554613365906001600160a01b031683308461349c565b60065415610a5d576005546040517f70a08231000000000000000000000000000000000000000000000000000000008152306004820152600091613410916001600160a01b03909116906370a082319060240160206040518083038186803b1580156133d057600080fd5b505afa1580156133e4573d6000803e3d6000fd5b505050506040513d601f19601f820116820180604052508101906134089190614131565b600654613337565b9050806006600082825461342491906140e1565b90915550506005546040517f42966c68000000000000000000000000000000000000000000000000000000008152600481018390526001600160a01b03909116906342966c6890602401600060405180830381600087803b15801561348857600080fd5b505af11580156130ba573d6000803e3d6000fd5b6040516001600160a01b03808516602483015283166044820152606481018290526134ed9085907f23b872dd000000000000000000000000000000000000000000000000000000009060840161325f565b50505050565b60007f7fffffffffffffffffffffffffffffffffffffffffffffffffffffffffffffff8211156133335760405162461bcd60e51b815260206004820152602860248201527f53616665436173743a2076616c756520646f65736e27742066697420696e206160448201527f6e20696e743235360000000000000000000000000000000000000000000000006064820152608401610889565b600054760100000000000000000000000000000000000000000000900460ff16156135f85760405162461bcd60e51b815260206004820152601060248201527f5061757361626c653a20706175736564000000000000000000000000000000006044820152606401610889565b600080547fffffffffffffffffff00ffffffffffffffffffffffffffffffffffffffffffff167601000000000000000000000000000000000000000000001790557f62e78cea01bee320cd4e420270b5ea74000d11b0c9f74754ebdbfc544b05a258612dde610811565b600260015414156136b55760405162461bcd60e51b815260206004820152601f60248201527f5265656e7472616e637947756172643a207265656e7472616e742063616c6c006044820152606401610889565b6002600155604080516000808252602082019092526001600160a01b0384169083906040516136e49190614694565b60006040518083038185875af1925050503d8060008114613721576040519150601f19603f3d011682016040523d82523d6000602084013e613726565b606091505b50509050806137775760405162461bcd60e51b815260206004820152601860248201527f4d413a20415641585f5452414e534645525f4641494c454400000000000000006044820152606401610889565b50506001805550565b600061378c86836138eb565b9050838111156138045760405162461bcd60e51b815260206004820152602560248201527f4e65656420746f207265706179206d6f726520746f207365697a65207468617460448201527f206d7563680000000000000000000000000000000000000000000000000000006064820152608401610889565b613815858285858a60600151613a25565b5095945050505050565b6000613888866080015161385288604001518761383c9190614250565b60068a6020015161384d91906146b0565b613b68565b61385c91906142bc565b60008581526009602090815260408083206001600160a01b038b168452909152902054610e8a906132e1565b9050818110156138da5760405162461bcd60e51b815260206004820152601260248201527f4e6f74207365697a696e6720656e6f75676800000000000000000000000000006044820152606401610889565b613815858585848a60600151613a25565b60008260200151600a6138fe91906146d3565b608084015161390d9084614250565b61391791906142bc565b60408401519091501561294b576040830151613936620f424083614250565b610eb391906142bc565b6000613995826040518060400160405280602081526020017f5361666545524332303a206c6f772d6c6576656c2063616c6c206661696c6564815250856001600160a01b0316613b7f9092919063ffffffff16565b8051909150156130bf57808060200190518101906139b391906146e2565b6130bf5760405162461bcd60e51b815260206004820152602a60248201527f5361666545524332303a204552433230206f7065726174696f6e20646964206e60448201527f6f742073756363656564000000000000000000000000000000000000000000006064820152608401610889565b6000841580613a32575082155b15613a3e575080613b5f565b613a4f613a49610811565b8661334d565b613a58856134f3565b6001600160a01b03871660009081527fec8156718a8372b1db44bb411437d0870f3e3790d4a08526d024ce1b0b668f6b602052604081208054909190613a9f9084906142e8565b90915550613aae9050836134f3565b60008581526009602090815260408083206001600160a01b038b16845290915281208054909190613ae090849061414a565b90915550613b059050613af1610811565b8460078781548110610bf057610bf0613d17565b836001600160a01b0387167f7fb23588e5b71d6f001557fcf957144c19a47dd6b80368d48b6289f6ba4cf1998588426040805193845260208401929092529082015260600160405180910390a3613b5c85836140e1565b90505b95945050505050565b6000613b7582600a6146d3565b610eb39084614250565b6060613b8e8484600085613b96565b949350505050565b606082471015613c0e5760405162461bcd60e51b815260206004820152602660248201527f416464726573733a20696e73756666696369656e742062616c616e636520666f60448201527f722063616c6c00000000000000000000000000000000000000000000000000006064820152608401610889565b6001600160a01b0385163b613c655760405162461bcd60e51b815260206004820152601d60248201527f416464726573733a2063616c6c20746f206e6f6e2d636f6e74726163740000006044820152606401610889565b600080866001600160a01b03168587604051613c819190614694565b60006040518083038185875af1925050503d8060008114613cbe576040519150601f19603f3d011682016040523d82523d6000602084013e613cc3565b606091505b5091509150613cd3828286613cde565b979650505050505050565b60608315613ced575081610eb3565b825115613cfd5782518084602001fd5b8160405162461bcd60e51b815260040161088991906146ff565b7f4e487b7100000000000000000000000000000000000000000000000000000000600052603260045260246000fd5b7f4e487b7100000000000000000000000000000000000000000000000000000000600052600160045260246000fd5b6001600160a01b03811681146114a557600080fd5b60008060008060608587031215613da057600080fd5b8435613dab81613d75565b935060208501359250604085013567ffffffffffffffff80821115613dcf57600080fd5b818701915087601f830112613de357600080fd5b813581811115613df257600080fd5b8860208260051b8501011115613e0757600080fd5b95989497505060200194505050565b60008060408385031215613e2957600080fd5b8235613e3481613d75565b946020939093013593505050565b60008060408385031215613e5557600080fd5b8235613e6081613d75565b91506020830135613e7081613d75565b809150509250929050565b60008060408385031215613e8e57600080fd5b50508035926020909101359150565b80151581146114a557600080fd5b60008060408385031215613ebe57600080fd5b8235613ec981613d75565b91506020830135613e7081613e9d565b7f4e487b7100000000000000000000000000000000000000000000000000000000600052602160045260246000fd5b60048110613f1857613f18613ed9565b9052565b60608101613f2a8286613f08565b602082019390935260400152919050565b600060208284031215613f4d57600080fd5b8135610eb381613d75565b600080600060608486031215613f6d57600080fd5b83359250602084013591506040840135613f8681613d75565b809150509250925092565b60008060408385031215613fa457600080fd5b823591506020830135613e7081613d75565b602080825282518282018190526000919060409081850190868401855b8281101561400e57815180516001600160a01b03168552868101518786015285015160ff168585015260609093019290850190600101613fd3565b5091979650505050505050565b60006020828403121561402d57600080fd5b5035919050565b60008060006060848603121561404957600080fd5b833561405481613d75565b95602085013595506040909401359392505050565b6000806000806080858703121561407f57600080fd5b843561408a81613d75565b966020860135965060408601359560600135945092505050565b6020810161294b8284613f08565b7f4e487b7100000000000000000000000000000000000000000000000000000000600052601160045260246000fd5b6000828210156140f3576140f36140b2565b500390565b60007fffffffffffffffffffffffffffffffffffffffffffffffffffffffffffffffff82141561412a5761412a6140b2565b5060010190565b60006020828403121561414357600080fd5b5051919050565b6000808312837f800000000000000000000000000000000000000000000000000000000000000001831281151615614184576141846140b2565b837f7fffffffffffffffffffffffffffffffffffffffffffffffffffffffffffffff0183138116156141b8576141b86140b2565b50500390565b6001600160a01b03841681526020810183905260608101600283106141e5576141e5613ed9565b826040830152949350505050565b6000806040838503121561420657600080fd5b505080516020909101519092909150565b60007f8000000000000000000000000000000000000000000000000000000000000000821415614249576142496140b2565b5060000390565b6000817fffffffffffffffffffffffffffffffffffffffffffffffffffffffffffffffff0483118215151615614288576142886140b2565b500290565b7f4e487b7100000000000000000000000000000000000000000000000000000000600052601260045260246000fd5b6000826142cb576142cb61428d565b500490565b600082198211156142e3576142e36140b2565b500190565b6000808212827f7fffffffffffffffffffffffffffffffffffffffffffffffffffffffffffffff03841381151615614322576143226140b2565b827f8000000000000000000000000000000000000000000000000000000000000000038412811615614356576143566140b2565b50500190565b60006020828403121561436e57600080fd5b8151610eb381613d75565b7f4e487b7100000000000000000000000000000000000000000000000000000000600052604160045260246000fd5b606080825284519082018190526000906020906080840190828801845b828110156143e1578151845292840192908401906001016143c5565b505050908301949094525060400152919050565b60007f7fffffffffffffffffffffffffffffffffffffffffffffffffffffffffffffff600084136000841385830485118282161615614436576144366140b2565b7f80000000000000000000000000000000000000000000000000000000000000006000871286820588128184161615614471576144716140b2565b6000871292508782058712848416161561448d5761448d6140b2565b878505871281841616156144a3576144a36140b2565b505050929093029392505050565b600181815b8085111561450a57817fffffffffffffffffffffffffffffffffffffffffffffffffffffffffffffffff048211156144f0576144f06140b2565b808516156144fd57918102915b93841c93908002906144b6565b509250929050565b6000826145215750600161294b565b8161452e5750600061294b565b8160018114614544576002811461454e5761456a565b600191505061294b565b60ff84111561455f5761455f6140b2565b50506001821b61294b565b5060208310610133831016604e8410600b841016171561458d575081810a61294b565b61459783836144b1565b807fffffffffffffffffffffffffffffffffffffffffffffffffffffffffffffffff048211156145c9576145c96140b2565b029392505050565b6000610eb38383614512565b6000826145ec576145ec61428d565b7fffffffffffffffffffffffffffffffffffffffffffffffffffffffffffffffff83147f800000000000000000000000000000000000000000000000000000000000000083141615614640576146406140b2565b500590565b60006020828403121561465757600080fd5b815160ff81168114610eb357600080fd5b60005b8381101561468357818101518382015260200161466b565b838111156134ed5750506000910152565b600082516146a6818460208701614668565b9190910192915050565b600060ff821660ff8416808210156146ca576146ca6140b2565b90039392505050565b6000610eb360ff841683614512565b6000602082840312156146f457600080fd5b8151610eb381613e9d565b602081526000825180602084015261471e816040850160208701614668565b601f017fffffffffffffffffffffffffffffffffffffffffffffffffffffffffffffffe016919091016040019291505056fea26469706673582212203c9f8a1a434db654e7036ee317f5e95c95f54e5c16068af7adf489e477abf3cd64736f6c63430008090033",
  "linkReferences": {},
  "deployedLinkReferences": {}
}