{
  "_format": "hh-sol-artifact-1",
  "contractName": "Minter",
  "sourceName": "contracts/test/ERC20NativeMinterTest.sol",
  "abi": [
    {
      "inputs": [
        {
          "internalType": "address",
          "name": "tokenAddress",
          "type": "address"
        }
      ],
      "stateMutability": "nonpayable",
      "type": "constructor"
    },
    {
      "inputs": [
        {
          "internalType": "uint256",
          "name": "value",
          "type": "uint256"
        }
      ],
      "name": "deposit",
      "outputs": [],
      "stateMutability": "nonpayable",
      "type": "function"
    },
    {
      "inputs": [
        {
          "internalType": "uint256",
          "name": "amount",
          "type": "uint256"
        }
      ],
      "name": "mintdraw",
      "outputs": [],
      "stateMutability": "nonpayable",
      "type": "function"
    }
  ],
  "bytecode": "0x608060405234801561001057600080fd5b506040516103523803806103528339818101604052810190610032919061008d565b806000806101000a81548173ffffffffffffffffffffffffffffffffffffffff021916908373ffffffffffffffffffffffffffffffffffffffff160217905550506100ff565b600081519050610087816100e8565b92915050565b60006020828403121561009f57600080fd5b60006100ad84828501610078565b91505092915050565b60006100c1826100c8565b9050919050565b600073ffffffffffffffffffffffffffffffffffffffff82169050919050565b6100f1816100b6565b81146100fc57600080fd5b50565b6102448061010e6000396000f3fe608060405234801561001057600080fd5b50600436106100365760003560e01c80630356b6cd1461003b578063b6b55f2514610057575b600080fd5b6100556004803603810190610050919061019a565b610073565b005b610071600480360381019061006c919061019a565b610101565b005b60008054906101000a900473ffffffffffffffffffffffffffffffffffffffff1673ffffffffffffffffffffffffffffffffffffffff16630356b6cd826040518263ffffffff1660e01b81526004016100cc91906101d2565b600060405180830381600087803b1580156100e657600080fd5b505af11580156100fa573d6000803e3d6000fd5b5050505050565b60008054906101000a900473ffffffffffffffffffffffffffffffffffffffff1673ffffffffffffffffffffffffffffffffffffffff1663d0e30db0826040518263ffffffff1660e01b81526004016000604051808303818588803b15801561016957600080fd5b505af115801561017d573d6000803e3d6000fd5b505050505050565b600081359050610194816101f7565b92915050565b6000602082840312156101ac57600080fd5b60006101ba84828501610185565b91505092915050565b6101cc816101ed565b82525050565b60006020820190506101e760008301846101c3565b92915050565b6000819050919050565b610200816101ed565b811461020b57600080fd5b5056fea2646970667358221220d08775fc1a7471941327b29301c1dc3b4ff1f51f2863f9aca45fe0b5f59c6ba064736f6c63430008000033",
  "linkReferences": {},
  "deployedLinkReferences": {}
}